:100000000C9458000C9480000C9480000C94800098
:100010000C9480000C9480000C9480000C94800060
:100020000C9480000C9480000C9480000C94800050
:100030000C9480000C9480000C9480000C94800040
:100040000C9412040C9480000C94E0030C94BA03FA
:100050000C9480000C9480000C9480000C94800020
:100060000C945C040C948000000000002500280023
:100070002B00040404040404040402020202020229
:10008000030303030303010204081020408001025C
:1000900004081020010204081020000000080002DB
:1000A00001000003040700000000000000007B05C1
:1000B00011241FBECFEFD8E0DEBFCDBF11E0A0E01E
:1000C000B1E0ECE7FFE002C005900D92AA3AB1075B
:1000D000D9F723E0AAEAB1E001C01D92A631B20728
:1000E000E1F710E0C8E5D0E004C02197FE010E94CE
:1000F000B607C735D107C9F70E94B4050C94BC07F1
:100100000C94000008950895AF92BF92CF92DF92B1
:10011000EF92FF920F931F93CF93DF936C017B01BC
:100120008B01040F151FEB015E01AE18BF08C0174D
:10013000D10759F06991D601ED91FC910190F081C0
:10014000E02DC6010995892B79F7C501DF91CF9183
:100150001F910F91FF90EF90DF90CF90BF90AF90E5
:100160000895FC01538D448D252F30E0842F90E0BD
:10017000821B930B541710F0CF96089501970895A2
:10018000FC01918D828D981761F0A28DAE0FBF2F6B
:10019000B11D5D968C91928D9F5F9F73928F90E0C1
:1001A00008958FEF9FEF0895FC01918D828D981730
:1001B00031F0828DE80FF11D858D90E008958FEF6D
:1001C0009FEF0895FC01918D228D892F90E0805C36
:1001D0009F4F821B91098F73992708958DE692E0B6
:1001E0000E94E20021E0892B09F420E0822F08958B
:1001F00080E090E0892B29F00E94EE0081110C94A0
:1002000000000895FC01A48DA80FB92FB11DA35AB9
:10021000BF4F2C91848D90E001968F739927848F26
:10022000A689B7892C93A089B1898C918370806449
:100230008C93938D848D981306C00288F389E02DEA
:1002400080818F7D80830895EF92FF920F931F939B
:10025000CF93DF93EC0181E0888F9B8D8C8D981379
:100260001AC0E889F989808185FF15C09FB7F89485
:10027000EE89FF896083E889F989808183708064D1
:1002800080839FBF81E090E0DF91CF911F910F911C
:10029000FF90EF900895F62E0B8D10E00F5F1F4F2B
:1002A0000F731127E02E8C8D8E110CC00FB607FC3A
:1002B000FACFE889F989808185FFF5CFCE010E94C8
:1002C0000201F1CFEB8DEC0FFD2FF11DE35AFF4F33
:1002D000F0829FB7F8940B8FEA89FB898081806256
:1002E000CFCFCF93DF93EC01888D8823B9F0AA8913
:1002F000BB89E889F9898C9185FD03C0808186FDE1
:100300000DC00FB607FCF7CF8C9185FFF2CF80812F
:1003100085FFEDCFCE010E940201E9CFDF91CF91A1
:10032000089590E0FC01E656FF4F2491FC01EA5746
:10033000FF4F3491FC01EE58FF4FE491EE23C9F0DA
:10034000222339F0233001F1A8F4213019F12230B1
:1003500029F1F0E0EE0FFF1FE859FF4FA591B4918E
:100360008FB7F894EC91611126C030953E233C93F1
:100370008FBF08952730A9F02830C9F0243049F7FD
:10038000809180008F7D03C0809180008F77809363
:100390008000DFCF84B58F7784BDDBCF84B58F7DC0
:1003A000FBCF8091B0008F778093B000D2CF809147
:1003B000B0008F7DF9CF3E2BDACF3FB7F894809114
:1003C000130290911402A0911502B091160226B565
:1003D000A89B05C02F3F19F00196A11DB11D3FBF7D
:1003E000BA2FA92F982F8827BC01CD01620F711D4C
:1003F000811D911D42E0660F771F881F991F4A9546
:10040000D1F708958F929F92AF92BF92CF92DF92D1
:10041000EF92FF924B015C010E94DD016B017C01B8
:100420000E94DD016C197D098E099F09683E7340A9
:1004300081059105A8F321E0821A9108A108B1086D
:1004400088EEC80E83E0D81EE11CF11C81149104D3
:10045000A104B10429F7FF90EF90DF90CF90BF90F7
:10046000AF909F908F9008952091EB01260F332736
:10047000331F21323105ECF420914302FC0190E05E
:1004800080E0243069F082E00895A091EB01219191
:10049000AC0145535E4FA40FB52FB11D2C930196AF
:1004A000861798F38091EB01680F6093EB0180E071
:1004B000089581E008951092430281E08093420202
:1004C00010921D0261E082E10E94910161E083E1EE
:1004D0000E949101E9EBF0E080818E7F8083808132
:1004E0008D7F808388E48093B80085E48093BC008E
:1004F0000895CF93DF9391E09093CA018823B9F0D8
:10050000C091B800D091BA008091BC008A7B8093E2
:10051000BC0060E082E10E94910160E083E10E9402
:1005200091010E945B02D093BA00C093B800DF91A2
:10053000CF9108950895E0911C0280911B02E81765
:1005400030F4F0E0E655FE4F808190E008958FEFA3
:100550009FEF089590911C0280911B022FEF3FEFB7
:10056000981748F4E92FF0E0E655FE4F208130E07F
:100570009F5F90931C02C901089580911B02909186
:100580001C02891B990B0895CF92DF92EF92FF9284
:100590000F931F93CF93DF937C01CB018A012091AE
:1005A0004902222389F0EB016B01C40ED51ECC1544
:1005B000DD0569F06991D701ED91FC910190F08121
:1005C000E02DC7010995F3CF642F0E943402C801C2
:1005D000DF91CF911F910F91FF90EF90DF90CF901F
:1005E0000895CF93DF931F92CDB7DEB76983209133
:1005F00049022223F9F020916C02203258F021E0C8
:1006000030E0FC013383228390E080E00F90DF91A3
:10061000CF91089580914A02E82FF0E0E55BFD4F0D
:10062000998190838F5F80934A0280936C0281E06E
:1006300090E0ECCF61E0CE0101960E943402F7CF4A
:1006400090E080E00895FC0101900020E9F73197E7
:10065000AF01481B590BBC018DE692E00C9484005D
:100660008F929F92AF92BF920F931F93CF93DF937E
:10067000CDB7DEB7A1970FB6F894DEBF0FBECDBFE2
:1006800019A2423008F44AE08E010F5D1F4F842EFC
:10069000912CB12CA12CA50194010E949407E62F66
:1006A000B901CA01EA30F4F4E05DD801EE938D019E
:1006B000232B242B252B79F790E080E0109719F05D
:1006C000CD010E942303A1960FB6F894DEBF0FBEA2
:1006D000CDBFDF91CF911F910F91BF90AF909F90B1
:1006E0008F900895E95CE1CFCF93DF930E942303BD
:1006F000EC0184E291E00E9423038C0F9D1FDF91A7
:10070000CF91089585ED8093BC0080914502909132
:100710004602A0914702B09148020796A11DB11D63
:1007200023E0B695A795979587952A95D1F72091BF
:10073000BC0024FD03C0109243020895409145027D
:10074000509146026091470270914802452B462B1A
:10075000472B69F30097A105B10541F025E32A95E0
:10076000F1F700000197A109B109E1CF809144029E
:100770000C9479021F920F920FB60F9211242F93AF
:100780003F934F935F936F937F938F939F93AF9319
:10079000BF93EF93FF938DE692E00E940201FF91D9
:1007A000EF91BF91AF919F918F917F916F915F91E9
:1007B0004F913F912F910F900FBE0F901F90189562
:1007C0001F920F920FB60F9211242F938F939F9326
:1007D000EF93FF93E0917D02F0917E028081E091A2
:1007E0008302F091840282FD1BC090818091860279
:1007F0008F5F8F7320918702821741F0E09186020C
:10080000F0E0E359FD4F958F80938602FF91EF91C1
:100810009F918F912F910F900FBE0F901F90189561
:100820008081F4CF1F920F920FB60F9211242F9355
:100830003F938F939F93AF93BF9380910F029091BB
:100840001002A0911102B091120230910E0223E029
:10085000230F2D3758F50196A11DB11D20930E02CF
:1008600080930F0290931002A0931102B093120292
:100870008091130290911402A0911502B09116027A
:100880000196A11DB11D8093130290931402A093B1
:100890001502B0931602BF91AF919F918F913F9136
:1008A0002F910F900FBE0F901F90189526E8230FE1
:1008B0000296A11DB11DD2CF1F920F920FB60F92BB
:1008C00011242F933F934F935F936F937F938F9355
:1008D0009F93AF93BF93EF93FF938091B900887F6D
:1008E000803609F44AC0F0F5883209F4A7C018F53B
:1008F000803109F49BC0B8F4882309F4F9C088302A
:1009000009F494C0FF91EF91BF91AF919F918F91A6
:100910007F916F915F914F913F912F910F900FBEFB
:100920000F901F901895883109F488C0803251F7D4
:100930008093410214C0803409F49DC040F4803398
:10094000B9F38833F9F68093410285ECB0C0803565
:1009500009F485C0883509F496C0883499F60E9458
:100960008203D0CF883909F48CC038F5883729F054
:1009700050F4883611F0803729F683E080934302E3
:1009800010920D0257C0883809F47BC0803919F0E5
:10099000803809F0B7CF80910D02803208F071C025
:1009A000E0910D0281E08E0F80930D028091BB00DB
:1009B000F0E0E351FE4F80833DC0803B39F0E0F42E
:1009C000803A09F479C0883A09F09CCF84E080939A
:1009D00043021092EC011092EB01E0911902F091A8
:1009E0001A0209958091EB0181110FC081E080937B
:1009F000EB011092CB0109C0803C09F4A6CF883CE2
:100A000009F4A3CF883B09F07DCFE091EC0181E0B0
:100A10008E0F8093EC01F0E0E553FE4F80818093D0
:100A2000BB009091EC018091EB0129C080911E02E6
:100A30008093BB0085EC8093BC0064CF9091400212
:100A400080913F02981758F5E091400281E08E0FA7
:100A500080934002F0E0E15EFD4F8081E9CFE091BC
:100A6000400281E08E0F809340028091BB00F0E055
:100A7000E15EFD4F80839091400280913F02981784
:100A8000C8F285E8D8CFE091400281E08E0F8093D4
:100A900040028091BB00F0E0E15EFD4F80838091D9
:100AA000420281115CCF81E080931D0284EA809331
:100AB000BC001092430226CF85EC8093BC001092BC
:100AC000430280910D02803230F4E0910D02F0E09B
:100AD000E351FE4F108260910D0270E0E091170229
:100AE000F09118028DEE91E0099510920D020ACF57
:100AF0001092410234CFEDE6F2E01382128288EECA
:100B000093E0A0E0B0E084839583A683B78324E0DC
:100B100031E03183208325EC30E03587248724ECD5
:100B200030E03787268720EC30E0318B208B21ECBA
:100B300030E0338B228B22EC30E0358B248B26EC9B
:100B400030E0378B268B118E128E138E148EEAE0D6
:100B5000F3E01382128284839583A683B78386E1B0
:100B600091E0918380830895789484B5826084BDF8
:100B700084B5816084BD85B5826085BD85B58160A1
:100B800085BD80916E00816080936E00109281001F
:100B900080918100826080938100809181008160DA
:100BA000809381008091800081608093800080919B
:100BB000B10084608093B1008091B0008160809327
:100BC000B00080917A00846080937A0080917A00EE
:100BD000826080937A0080917A00816080937A00AD
:100BE00080917A00806880937A001092C100E09131
:100BF0007D02F0917E0282E08083E0917902F091A3
:100C00007A021082E0917B02F0917C028FEC80836B
:100C100010928502E0918102F091820286E0808349
:100C2000E0917F02F0918002808180618083E09179
:100C30007F02F0918002808188608083E0917F0252
:100C4000F0918002808180688083E0917F02F09142
:100C5000800280818F7D808387E291E00E9474030F
:100C600010921C0210921B0210924A0210926C0207
:100C70000E945B0282E890E090931A02809319022E
:100C800083E890E0909318028093170295EE292E46
:100C900020E0A22E20E0B22E01E032E0332E8824A4
:100CA0008A9484E391E00E94740389E491E00E94B5
:100CB0002303C12CD12C7601D0E0C0E085EC982E26
:100CC0001C2D80E8C816D104E104F10409F403C125
:100CD0008C2D8F70A1F484E291E00E9423031031E7
:100CE00028F460E38DE692E00E94240140E1C70110
:100CF000B6010E94300388EA91E00E94230300932A
:100D0000490210936B0210924A0210926C020E94E8
:100D1000DD012B013C0180914302811162C03092C0
:100D200043020093420280924102109240021092CC
:100D30003F0210921E0290911E02812F880F892B74
:100D400080931E0280911D02813009F094C01092A0
:100D50001D020E94DD012B013C0180911E02809347
:100D6000BB008091450290914602A0914702B0914C
:100D70004802892B8A2B8B2BA1F00E94DD01209148
:100D80004502309146024091470250914802641951
:100D9000750986099709261737074807590708F480
:100DA00041C08091BC0083FDD8CF9092BC000E94CE
:100DB000DD012B013C0180914302823009F45EC0C9
:100DC000809141028F3F09F47BC0809141028032C3
:100DD00009F478C080914102803309F475C084E041
:100DE00026C08091450290914602A0914702B091A1
:100DF0004802892B8A2B8B2B09F48DCF0E94DD01B1
:100E0000209145023091460240914702509148029C
:100E1000641975098609970926173707480759077E
:100E200008F079CF809144020E94790285E0109207
:100E30004A0210926C0210924902811147C010318F
:100E400020F48CE791E00E94230340E1C701B60142
:100E50000E943003219688EA91E00E94230361E01A
:100E600070E080E090E00E9402028FEFC81AD80A7A
:100E7000E80AF80A25CF2092BC0099CF809145025C
:100E800090914602A0914702B0914802892B8A2B8B
:100E90008B2B09F490CF0E94DD0120914502309107
:100EA000460240914702509148026419750986092B
:100EB0009709261737074807590708F07CCFB2CFA4
:100EC00080E0B5CF82E0B3CF83E0B1CF8EE791E091
:100ED0000E942303C0CF84E291E00E94230381E8B3
:100EE00091E0209769F087E991E00E942303BE0119
:100EF000DD0F880B990B4AE00E9430038EE991E0E8
:100F00000E94740364EC79E080E090E00E940202A9
:100F1000A114B10409F4C5CE0E94EE00882309F49F
:100F2000C0CE0E940000BDCEA1E21A2EAA1BBB1BA0
:100F3000FD010DC0AA1FBB1FEE1FFF1FA217B307A5
:100F4000E407F50720F0A21BB30BE40BF50B661FBB
:100F5000771F881F991F1A9469F76095709580957F
:100F600090959B01AC01BD01CF010895EE0FFF1FCD
:0C0F70000590F491E02D0994F894FFCF57
:100F7C000000000024018400B1007101E200C000F7
:100F8C00D40000000000F102C40220039A02BD024A
:100F9C00AA029B020D0A000A493243205363616E78
:100FAC006E6572005363616E6E696E6720493243E1
:100FBC00206275732E2E2E0A002020203030203017
:100FCC003120303220303320303420303520303650
:100FDC00203037203038203039203041203042202A
:100FEC0030432030442030452030460030002D2D39
:100FFC00004E6F2049324320646576696365732027
:10100C00666F756E640A00466F756E64200020640E
:0A101C0065766963652873292000DA
:00000001FF
