:020000040000FA
:100000000C9463000C948B000C948B000C948C0467
:100010000C948C040C948C040C948B000C948B002A
:100020000C948B000C948B000C948B000C948B0024
:100030000C948B000C948B000C948B000C948B0014
:100040000C9442040C948B000C9410040C94EA035E
:100050000C948B000C948B000C948B000C948B00F4
:100060000C948B000C948B000000000024002700EF
:100070002A0000000008000201000003040700003D
:1000800000000000000000000000230026002900FE
:1000900000000000250028002B00040404040404D0
:1000A0000404020202020202030303030303010227
:1000B00004081020408001020408102001020408F6
:1000C000102032051A0A11241FBECFEFD8E0DEBF80
:1000D000CDBF22E0A4E8B1E001C01D92A13EB2076D
:1000E000E1F711E0A0E0B1E0E0E2FAE102C0059042
:1000F0000D92A438B107D9F710E0C2E6D0E004C0F1
:100100002197FE010E940B0BC136D107C9F70E944F
:10011000DD050C94030D0C940000AF92BF92CF92BA
:10012000DF92EF92FF920F931F93CF93DF936C01B7
:100130007B018B01040F151FEB015E01AE18BF0898
:10014000C017D10759F06991D601ED91FC9101904A
:10015000F081E02DC6010995892B79F7C501DF9162
:10016000CF911F910F91FF90EF90DF90CF90BF90B4
:10017000AF900895FC01538D448D252F30E0842FDE
:1001800090E0821B930B541710F0CF9608950197BF
:100190000895FC01918D828D981761F0A28DAE0FAC
:1001A000BF2FB11D5D968C91928D9F5F9F73928F33
:1001B00090E008958FEF9FEF0895FC01918D828D5F
:1001C000981731F0828DE80FF11D858D90E008952C
:1001D0008FEF9FEF0895FC01918D228D892F90E084
:1001E000805C9F4F821B91098F739927089581E24C
:1001F00092E00E94EB0021E0892B09F420E0822F9D
:10020000089580E090E0892B29F00E94F700811189
:100210000C9400000895FC01A48DA80FB92FB11D06
:10022000A35ABF4F2C91848D90E001968F7399272C
:10023000848FA689B7892C93A089B1898C9183700A
:1002400080648C93938D848D981306C00288F38903
:10025000E02D80818F7D80830895EF92FF920F9330
:100260001F93CF93DF93EC0181E0888F9B8D8C8D62
:1002700098131AC0E889F989808185FF15C09FB756
:10028000F894EE89FF896083E889F9898081837019
:10029000806480839FBF81E090E0DF91CF911F91C8
:1002A0000F91FF90EF900895F62E0B8D10E00F5FE9
:1002B0001F4F0F731127E02E8C8D8E110CC00FB6BF
:1002C00007FCFACFE889F989808185FFF5CFCE0157
:1002D0000E940B01F1CFEB8DEC0FFD2FF11DE35AC6
:1002E000FF4FF0829FB7F8940B8FEA89FB898081DA
:1002F0008062CFCFCF93DF93EC01888D8823B9F054
:10030000AA89BB89E889F9898C9185FD03C0808120
:1003100086FD0DC00FB607FCF7CF8C9185FFF2CF9D
:10032000808185FFEDCFCE010E940B01E9CFDF91E7
:10033000CF910895833081F028F4813099F0823094
:10034000A9F008958730A9F08830C9F08430B1F45D
:10035000809180008F7D03C0809180008F77809393
:100360008000089584B58F7784BD089584B58F7D0E
:10037000FBCF8091B0008F778093B000089580917B
:10038000B0008F7DF9CFCF93DF9390E0FC01E25571
:10039000FF4F249186569F4FFC0184918823C9F01A
:1003A00090E0880F991FFC01E859FF4FA591B49187
:1003B000FC01E057FF4FC591D49161110DC09FB76B
:1003C000F8948C91209582238C938881282328830C
:1003D0009FBFDF91CF910895623051F49FB7F89499
:1003E0003C91822F809583238C93E8812E2BEFCF35
:1003F0008FB7F894EC912E2B2C938FBFEACF3FB799
:10040000F8948091C5019091C601A091C701B09167
:10041000C80126B5A89B05C02F3F19F00196A11D64
:10042000B11D3FBFBA2FA92F982F8827BC01CD013E
:10043000620F711D811D911D42E0660F771F881F9D
:10044000991F4A95D1F708958F929F92AF92BF92CC
:10045000CF92DF92EF92FF924B015C010E94FF016D
:100460006B017C010E94FF016C197D098E099F09B7
:10047000683E734081059105A8F321E0821A910836
:10048000A108B10888EEC80E83E0D81EE11CF11C5B
:1004900081149104A104B10429F7FF90EF90DF903B
:1004A000CF90BF90AF909F908F9008952091CB01F7
:1004B0003091CC012817390771F49091C9018091CE
:1004C000CA01981741F0E091C901F0E0EC57FE4FE6
:1004D000808190E008958FEF9FEF08950895EF9247
:1004E000FF920F931F93CF93DF93DC015C96ED9007
:1004F000FC905D97E114F10479F481E090E01396AB
:100500009C938E93129790E080E0DF91CF911F91A2
:100510000F91FF90EF9008955196ED91FC915297B5
:1005200050968C915097982F90950FB75E962C917E
:100530005E97122F127021FD6095F894208111238F
:1005400019F1282B2083E7012197F1F728E0462FA6
:1005500050E0308160FF1AC0382B3083E7012197CB
:10056000F1F7BA0175956795215089F7112381F04C
:100570008081892380830FBF5C968D919C91019728
:10058000F1F781E090E0C1CF2923DCCF3923E5CF1B
:100590009081892BEFCF2091CB013091CC0128178E
:1005A000390771F48091CA012091C90190E0805C03
:1005B0009F4F821B910960E470E00E94A20A089597
:1005C00090E080E008952091CB013091CC01281774
:1005D0003907B9F49091C9018091CA01981789F03F
:1005E000E091C901F0E0EC57FE4F80812091C901F4
:1005F00030E02F5F3F4F2F7333272093C90190E0E6
:1006000008958FEF9FEF089590E080E00895FC013A
:1006100001900020E9F73197AF01481B590BBC014D
:100620008EEB92E00C948D00CF93DF930E94070332
:10063000EC018BE291E00E9407038C0F9D1FDF917C
:10064000CF910895CF93DF93EC0188819981009732
:1006500011F00E94AD0B198218821D821C821B8230
:100660001A82DF91CF910895FC01808191810097DA
:1006700011F00C94AD0B08950F931F93CF93DF935C
:10068000EC0188819981009759F02A813B812617D6
:10069000370730F081E0DF91CF911F910F910895DE
:1006A0008B016F5F7F4F0E94360C009759F0998342
:1006B00088831B830A832C813D81232B59F7FC01FE
:1006C0001082E8CF80E0E7CFEF92FF920F931F9365
:1006D000CF93DF936115710541F480E0DF91CF91F5
:1006E0001F910F91FF90EF90089541155105B1F0C2
:1006F0007B01EC010C811D81040F151FB8010E94C4
:100700003C03882351F3288139818C819D81B70175
:10071000820F931F0E94FC0C1D830C8381E0DECFAF
:10072000EF92FF920F931F93CF93DF93EC017B0126
:100730008A01BA010E943C0381110BC0CE010E94C4
:100740002203CE01DF91CF911F910F91FF90EF9087
:1007500008951D830C83B701888199810E94FC0C48
:10076000F0CFEF92FF920F931F93CF93DF93CDB70C
:10077000DEB729970FB6F894DEBF0FBECDBF8C0150
:10078000862FF80111821082138212821582148240
:1007900050E09E012F5F3F4F7901B90190E00E9428
:1007A000360AF70101900020E9F73197AF014E19A1
:1007B0005F09B701C8010E94900329960FB6F8940B
:1007C000DEBF0FBECDBFDF91CF911F910F91FF9084
:1007D000EF9008951F920F920FB60F9211242F934E
:1007E0003F934F935F936F937F938F939F93AF93B9
:1007F000BF93EF93FF9381E292E00E940B01FF9180
:10080000EF91BF91AF919F918F917F916F915F9188
:100810004F913F912F910F900FBE0F901F90189501
:100820001F920F920FB60F9211242F938F939F93C5
:10083000EF93FF93E0913102F09132028081E091D9
:100840003702F091380282FD1BC0908180913A02FC
:100850008F5F8F7320913B02821741F0E0913A0243
:10086000F0E0EF5DFD4F958F80933A02FF91EF919D
:100870009F918F912F910F900FBE0F901F90189501
:100880008081F4CF1F920F920FB60F9211242F93F5
:100890003F938F939F93AF93BF938091CD0190919E
:1008A000CE01A091CF01B091D0013091C40123E0DD
:1008B000230F2D3758F50196A11DB11D2093C401BA
:1008C0008093CD019093CE01A093CF01B093D0013E
:1008D0008091C5019091C601A091C701B091C80156
:1008E0000196A11DB11D8093C5019093C601A093EF
:1008F000C701B093C801BF91AF919F918F913F9174
:100900002F910F900FBE0F901F90189526E8230F80
:100910000296A11DB11DD2CF1F920F920FB60F925A
:1009200011242F933F934F935F936F937F938F93F4
:100930009F93AF93BF93EF93FF93E091CB01F0911F
:10094000CC01309749F0A685B7858585968D91FFB6
:1009500014C09C918923A1F4FF91EF91BF91AF91B5
:100960009F918F917F916F915F914F913F912F91C7
:100970000F900FBE0F901F9018959C91892361F7DF
:10098000A389B4899C918589809589238C938689D4
:1009900097890197F1F7608D718DA685B78555858B
:1009A00038E020E0CB010197F1F7822F90E0959598
:1009B0008795282F4C91452309F02068315091F7F5
:1009C000868D81FD20958091CA0190E001968F73FC
:1009D00099273091C901381799F0A091CA01B0E068
:1009E000AC57BE4F2C938093CA01828D938D019793
:1009F000F1F7A389B4898C919589892B8C93ACCF1D
:100A0000868D8160868FF1CF1F93CF93DF93282F40
:100A100030E0F901EE58FF4F8491F901E255FF4FA4
:100A2000D491F901E656FF4FC491CC23A9F0162FBB
:100A300081110E949A01EC2FF0E0EE0FFF1FE057AA
:100A4000FF4FA591B4918FB7F894EC91111108C0A4
:100A5000D095DE23DC938FBFDF91CF911F91089556
:100A6000DE2BF8CF109224021092230288EE93E03E
:100A7000A0E0B0E08093250290932602A093270285
:100A8000B09328022BE031E0309322022093210220
:100A900025EC30E030932E0220932D0224EC30E040
:100AA0003093300220932F0220EC30E0309332025A
:100AB0002093310221EC30E0309334022093330252
:100AC00022EC30E0309336022093350226EC30E001
:100AD000309338022093370210923A0210923B0270
:100AE00010923C0210923D021092C1021092C0027C
:100AF0008093C2029093C302A093C402B093C50234
:100B00008DE191E09093BF028093BE021092D502D6
:100B10001092D4021092D7021092D6021092D902EB
:100B20001092D8021092DB021092DA026091DC027D
:100B30006E7F6D7F6093DC026695617081E068274F
:100B400083E00E94040561E083E00E94C301E1EBC1
:100B5000F0E0E491E093CE02EDE9F0E0E491F0E022
:100B6000EE0FFF1FE057FF4F859194919093D002B5
:100B70008093CF0260E082E00E94C3018091DC029A
:100B800081FD04C061E082E00E94040582E0809360
:100B9000CA02E0EBF0E0E491E093CB02ECE9F0E094
:100BA000E491F0E0EE0FFF1FEA57FF4F859194911B
:100BB0009093CD028093CC020895CF93DF93CDB76D
:100BC000DEB762970FB6F894DEBF0FBECDBF789444
:100BD00084B5826084BD84B5816084BD85B5826042
:100BE00085BD85B5816085BD80916E0081608093F3
:100BF0006E0010928100809181008260809381005C
:100C0000809181008160809381008091800081606B
:100C1000809380008091B10084608093B1008091C6
:100C2000B00081608093B00080917A0084608093EE
:100C30007A0080917A00826080937A0080917A00B5
:100C4000816080937A0080917A00806880937A0036
:100C50001092C100E0913102F091320282E0808373
:100C6000E0912D02F0912E021082E0912F02F0917E
:100C7000300280E1808310923902E0913502F091D8
:100C8000360286E08083E0913302F0913402808165
:100C900080618083E0913302F0913402808188602A
:100CA0008083E0913302F0913402808180688083F8
:100CB000E0913302F091340280818F7D808381E066
:100CC00090E0A0E0B0E08093250290932602A093EC
:100CD0002702B09328021092D9021092D8021092E3
:100CE000D7021092D6021092D5021092D4028FE150
:100CF00090E09093DB028093DA029091CA029631E1
:100D000008F047C021E030E03093D5022093D402B0
:100D10002DE130E03093D7022093D6022DE030E071
:100D20003093D9022093D8022091680084E0983053
:100D300048F031E09E3008F430E081E001C0880FD7
:100D40003A95EAF7822B809368002DE630E09830E0
:100D500050F02BE630E09E3030F02CE630E096315B
:100D600010F030E020E03093D2022093D102292FFE
:100D700030E0983008F0CEC081E001C0880F9A952D
:100D8000EAF78093D3028091DA029091DB02019717
:100D9000F1F78091D8029091D902892B49F1E09125
:100DA000CB01F091CC0102E0EE3BF00709F1309766
:100DB00039F0A389B4899C918589809589238C9386
:100DC0008091DC028E7F8093DC021092CA01109227
:100DD000C9018EEB92E09093CC018093CB01E0911E
:100DE000D102F091D20280819091D302892B80832D
:100DF00081E090E0A0E0B0E08093C2029093C30253
:100E0000A093C402B093C50283E391E00E9414034F
:100E1000549A62E085E00E94C301579A249A259A69
:100E2000239A209A219A229A5F985C982B982C9862
:100E30002D98289829982A988BE391E00E9407031F
:100E40008FE391E00E94070384E491E00E9407038E
:100E50008FE391E00E941403E7E7F0E08491E3EB75
:100E6000F0E00491EFE9F0E014911123A1F0811179
:100E70000E949A01E12FF0E0EE0FFF1FEA57FF4FAB
:100E8000A591B491EC91E02337E0C32ED12CE12C55
:100E9000F12CE111A3C089E491E00E9414032D9884
:100EA00028980CED15E02C98299861E070E080E01E
:100EB00090E00E9424022C9A299A61E070E080E080
:100EC00090E00E9424020150110969F764EF71E07B
:100ED00080E090E00E9424022D9A289A0CED15E003
:100EE0002C98299861E070E080E090E00E94240254
:100EF0002C9A299A61E070E080E090E00E94240240
:100F00000150110969F764EF71E080E090E00E9400
:100F10002402C5CF9E3040F42850310981E001C041
:100F2000880F2A95EAF72DCF2E503109F7CF5F9A17
:100F30008EC028E030E0B5C0811108C09092EB016E
:100F4000D1C0853519F48092EB01CCC01092EB0131
:100F5000C9C02D983CC1289841C1833009F03EC1D9
:100F60008091ED01863089F48091F1019091F20138
:100F70009093EA018093E9018091EF019091F00153
:100F80009093E4018093E30129C1813019F48093A7
:100F9000000124C1823009F021C1109200011EC15C
:100FA0002C9A6AC1299AB4C149895A896D857E856E
:100FB0008EEB92E00E948D008BE291E00E9407038D
:100FC000CE010D960E94340310920102A114B104C7
:100FD00079F00E94F70081110E94000099249394F7
:100FE00083E0882E92E0792E20E0A22E20E0B22E1F
:100FF0002FB7F8948091CD019091CE01A091CF01AF
:10100000B091D0012FBF80931D0290931E02A09338
:101010001F02B09320024091190250911A02609170
:101020001B0270911C02841B950BA60BB70B069735
:10103000A105B10510F01092170281E292E00E9422
:10104000EB00892B09F450C04F9B71CF5F988091C2
:101050001D0290911E02A0911F02B0912002809368
:10106000190290931A02A0931B02B0931C0281E212
:1010700092E00E94C90090911702E92FF0E0EE5F24
:10108000FD4F81839F5F90931702943068F1892F01
:1010900090E020910502222309F44BCF30E02B5F32
:1010A0003F4F8217930701F530E020E047E1E2E08F
:1010B000F2E0ABEEB1E001900D924A95E1F72F5FBF
:1010C0003F4F2817390794F3909201028091EC0169
:1010D000803509F036CF8091EE01863009F02CCFB3
:1010E0007092EB011092170280910102882309F49B
:1010F00075C08091EB01823009F02FCF0091EF0194
:101100001091F0011027012710278091E90190919B
:10111000EA01081B190BB80117FF04C066277727DF
:10112000601B710B072E000C880B990BA701960111
:101130000E94B60A2093E5013093E6014093E7014F
:101140005093E8012B3031054105510544F41092CC
:10115000E5011092E6011092E7011092E80160911A
:10116000F1017091F2017627672776278091E301DC
:101170009091E401681B790B7093E2016093E101A7
:1011800077FF03C0719561957109072E000C880BDC
:10119000990BA70196010E94B60A2093DD013093B6
:1011A000DE014093DF015093E0012B303105410512
:1011B000510544F41092DD011092DE011092DF011E
:1011C0001092E001101611060CF0C3CE2D9A8091FA
:1011D000E1019091E20197FFBECE289A0E94FF01A3
:1011E0006093D9017093DA018093DB019093DC0165
:1011F0000091D5011091D6012091D7013091D801ED
:101200001B012C01201A310A420A530A9201810162
:10121000013213402105310578F10091E50110916B
:10122000E6012091E7013091E80102301105210526
:10123000310514F1209100012223F1F06093D501D2
:101240007093D6018093D7019093D8011C9BA8CEB0
:101250002C988091E5019091E601A091E701B09171
:10126000E8010197A109B1098093E5019093E60196
:10127000A093E701B093E8018091D9019091DA0140
:10128000A091DB01B091DC014091D1015091D201DC
:101290006091D3017091D4011C012D01241A350AEB
:1012A000460A570AB201A101413253406105710556
:1012B00078F14091DD015091DE016091DF01709184
:1012C000E001423051056105710514F120910001E2
:1012D0002223F1F08093D1019093D201A093D30106
:1012E000B093D401199B5ECE29988091DD01909135
:1012F000DE01A091DF01B091E0010197A109B109E0
:101300008093DD019093DE01A093DF01B093E001B3
:1013100080910102882309F457CE4AE060910002CF
:10132000CE0107960E94B1031A8219821C821B8289
:101330001E821D826F8178856115710531F04B85A4
:101340005C85CE0101960E94900342E050E060E887
:1013500071E0CE0101960E946403811104C0CE01A8
:1013600001960E9422031E861D86188A1F861A8AED
:10137000198A69817A816115710531F04D815E812B
:10138000CE010D960E949003CE0101960E94340377
:10139000CE0107960E9434030BEE11E0209100026B
:1013A000C8018B5E91402817190609F00CF4FCCD9A
:1013B00040E1F8016181CE0101960E94B103F8017C
:1013C00081816EE271E0803110F061E371E0188696
:1013D0001F821A8619861C861B86FB01019000203D
:1013E000E9F73197AF01461B570BCE0107960E94D4
:1013F00090034D815E8169817A81CE0107960E94BA
:101400006403811104C0CE0107960E9422034B851C
:101410005C856F817885CE010D960E946403CE01B4
:1014200007960E943403CE0101960E9434030F5F99
:101430001F4FB4CF8DE191E09093BF028093BE0225
:101440008091CB019091CC018E5B924071F4E09140
:10145000D102F091D20290818091D30280958923AC
:1014600080831092CC011092CB0108954532510532
:1014700020F4423010F00C94410AFB011082CB01A1
:101480000895BB27FB015527AA27880F991FAA1F7C
:10149000A41710F0A41B83955051B9F7A05DAA338F
:1014A00008F0A95DA193009779F7B111B19311925A
:1014B000CB010C945B0ADC01FC01672F719177234F
:1014C000E1F7329704C07C916D9370836291AE17FF
:1014D000BF07C8F308952F923F924F925F926F9289
:1014E0007F928F929F92AF92BF92CF92DF92EF92B4
:1014F000FF920F931F93CF93DF93CDB7DEB7CA1B35
:10150000DB0B0FB6F894DEBF0FBECDBF09942A885F
:10151000398848885F846E847D848C849B84AA8407
:10152000B984C884DF80EE80FD800C811B81AA8194
:10153000B981CE0FD11D0FB6F894DEBF0FBECDBF5F
:10154000ED01089597FB072E16F4009407D077FD60
:1015500009D00E94D50A07FC05D03EF490958195EC
:101560009F4F0895709561957F4F0895052E97FBC5
:101570001EF400940E94CD0A57FD07D00E94E90A8C
:1015800007FC03D04EF40C94CD0A5095409530954D
:1015900021953F4F4F4F5F4F0895909580957095DF
:1015A00061957F4F8F4F9F4F0895AA1BBB1B51E141
:1015B00007C0AA1FBB1FA617B70710F0A61BB70BC3
:1015C000881F991F5A95A9F780959095BC01CD0168
:1015D0000895A1E21A2EAA1BBB1BFD010DC0AA1F74
:1015E000BB1FEE1FFF1FA217B307E407F50720F08C
:1015F000A21BB30BE40BF50B661F771F881F991F07
:101600001A9469F760957095809590959B01AC014F
:10161000BD01CF010895EE0FFF1F0590F491E02D5D
:1016200009940F931F93CF93DF938230910510F4A9
:1016300082E090E0E091DF02F091E00230E020E013
:10164000B0E0A0E0309799F42115310509F44AC0C3
:10165000281B390B24303105D8F58A819B8161150F
:10166000710589F1FB0193838283FE0111C04081E2
:1016700051810281138148175907E0F04817590733
:1016800099F4109761F012960C93129713961C938D
:101690003296CF01DF91CF911F910F910895009362
:1016A000DF021093E002F4CF2115310551F042170B
:1016B000530738F0A901DB019A01BD01DF01F801F0
:1016C000C1CFEF01F9CF9093E0028093DF02CDCF3D
:1016D000FE01E20FF31F8193919322503109398368
:1016E0002883D7CF2091DD023091DE02232B41F4F5
:1016F00020910301309104013093DE022093DD023A
:1017000020910101309102012115310541F42DB7DD
:101710003EB74091050150910601241B350BE09125
:10172000DD02F091DE02E217F307A0F42E1B3F0B5F
:101730002817390778F0AC014E5F5F4F2417350743
:1017400048F04E0F5F1F5093DE024093DD028193FD
:1017500091939FCFF0E0E0E09CCFCF93DF93009791
:10176000E9F0FC01329713821282A091DF02B0915E
:10177000E002ED0130E020E01097A1F420813181FA
:10178000820F931F2091DD023091DE022817390766
:1017900009F061C0F093DE02E093DD02DF91CF91AA
:1017A0000895EA01CE17DF07E8F54A815B819E01C3
:1017B00041155105B1F7E901FB83EA83499159913C
:1017C000C40FD51FEC17FD0761F48081918102964B
:1017D000840F951FE90199838883828193819B837C
:1017E0008A83F0E0E0E012968D919C911397009728
:1017F000B9F52D913C911197CD010296820F931F5F
:101800002091DD023091DE022817390739F6309732
:1018100051F51092E0021092DF02B093DE02A09325
:10182000DD02BCCFD383C28340815181840F951FD9
:10183000C817D90761F44E5F5F4F88819981480FBF
:10184000591F518340838A819B8193838283211511
:10185000310509F0B0CFF093E002E093DF029ECFB4
:10186000FD01DC01C0CF13821282D7CFB0E0A0E02F
:10187000ECE3FCE00C946D0A8C01009751F4CB0171
:101880000E94110B8C01C801CDB7DEB7E0E10C94CA
:10189000890AFC01E60FF71F9C0122503109E2176B
:1018A000F30708F49DC0D901CD91DC911197C617BB
:1018B000D70798F0C530D10530F3CE0104978617CD
:1018C000970708F3C61BD70B2297C193D1936D934B
:1018D0007C93CF010E94AD0BD6CF5B01AC1ABD0A41
:1018E0004C018C0E9D1EA091DF02B091E002512CA4
:1018F000412CF12CE12C109731F58091DD02909173
:10190000DE028815990509F05CC04616570608F0F6
:1019100058C08091010190910201009741F48DB768
:101920009EB74091050150910601841B950BE81765
:10193000F90708F055C0F093DE02E093DD02F901EB
:1019400071836083A0CF8D919C91119712966C90BA
:10195000129713967C901397A815B90559F56C0149
:1019600042E0C40ED11CCA14DB0420F1AC014A19B8
:101970005B09DA011296159780F0628273825183B7
:101980004083D9016D937C93E114F10471F0D70188
:101990001396FC93EE93129776CF22968C0F9D1F91
:1019A000F90191838083F301EFCFF093E002E0939C
:1019B000DF0269CF4816590608F42C017D01D301D6
:1019C0009ACFCB010E94110B7C01009749F0AE0128
:1019D000B8010E94F30CC8010E94AD0B870153CFE0
:1019E00010E000E050CFFB01DC0102C001900D923D
:1019F00041505040D8F70895FB01DC0101900D9251
:101A00000020E1F7089510E0C2E6D0E004C0FE0136
:101A10000E940B0B2196C336D107C9F7F894FFCF6C
:101A2000010000E1028000000000002D018D00BADD
:101A3000007A01EB00C900DD00000000006F028D9C
:101A40000004036E02CB02E30256020D0A002030AE
:101A50000020000A3131353230300048533A0074EA
:101A6000727565002053533A00494E464F3A205351
:101A7000746172742073656C66746573742C206372
:101A80006865636B206A756D70657220616E642095
:101A90007265736574762061726475696E6F2E006D
:041AA0003A090000FF
:107E0000112484B714BE81FFF0D085E080938100F7
:107E100082E08093C00088E18093C10086E0809377
:107E2000C20080E18093C4008EE0C9D0259A86E02C
:107E300020E33CEF91E0309385002093840096BBD3
:107E4000B09BFECF1D9AA8958150A9F7CC24DD24C4
:107E500088248394B5E0AB2EA1E19A2EF3E0BF2EE7
:107E6000A2D0813461F49FD0082FAFD0023811F036
:107E7000013811F484E001C083E08DD089C08234E0
:107E800011F484E103C0853419F485E0A6D080C0E4
:107E9000853579F488D0E82EFF2485D0082F10E0AE
:107EA000102F00270E291F29000F111F8ED06801E7
:107EB0006FC0863521F484E090D080E0DECF843638
:107EC00009F040C070D06FD0082F6DD080E0C81688
:107ED00080E7D80618F4F601B7BEE895C0E0D1E017
:107EE00062D089930C17E1F7F0E0CF16F0E7DF06D8
:107EF00018F0F601B7BEE89568D007B600FCFDCFD4
:107F0000A601A0E0B1E02C9130E011968C91119780
:107F100090E0982F8827822B932B1296FA010C0160
:107F200087BEE89511244E5F5F4FF1E0A038BF0790
:107F300051F7F601A7BEE89507B600FCFDCF97BE46
:107F4000E89526C08437B1F42ED02DD0F82E2BD052
:107F50003CD0F601EF2C8F010F5F1F4F84911BD097
:107F6000EA94F801C1F70894C11CD11CFA94CF0C13
:107F7000D11C0EC0853739F428D08EE10CD085E9AC
:107F80000AD08FE07ACF813511F488E018D01DD067
:107F900080E101D065CF982F8091C00085FFFCCF94
:107FA0009093C60008958091C00087FFFCCF809118
:107FB000C00084FD01C0A8958091C6000895E0E648
:107FC000F0E098E1908380830895EDDF803219F02E
:107FD00088E0F5DFFFCF84E1DECF1F93182FE3DFCA
:107FE0001150E9F7F2DF1F91089580E0E8DFEE27F6
:047FF000FF270994CA
:027FFE00040479
:00000001FF
