:020000040000FA
:100000000C9463000C948B000C948B000C94FA02FB
:100010000C94FA020C94FA020C948B000C948B0052
:100020000C948B000C948B000C948B000C948B0024
:100030000C948B000C948B000C948B000C948B0014
:100040000C9458020C948B000C94C8020C94A202DD
:100050000C948B000C948B000C948B000C948B00F4
:100060000C948B000C948B0000000008000201002F
:100070000003040700000000000000000000000072
:1000800023002600290000000000240027002A0089
:1000900000000000250028002B00040404040404D0
:1000A0000404020202020202030303030303010227
:1000B00004081020408001020408102001020408F6
:1000C0001020BE030C0611241FBECFEFD8E0DEBF08
:1000D000CDBF22E0A2E4B1E001C01D92AB34B20773
:1000E000E1F711E0A0E0B1E0E6ECFCE002C0059031
:1000F0000D92A234B107D9F710E0C2E6D0E004C0F7
:100100002197FE010E945006C136D107C9F70E940F
:10011000A7040C9456060C940000AF92BF92CF92A5
:10012000DF92EF92FF920F931F93CF93DF936C01B7
:100130007B018B01040F151FEB015E01AE18BF0898
:10014000C017D10759F06991D601ED91FC9101904A
:10015000F081E02DC6010995892B79F7C501DF9162
:10016000CF911F910F91FF90EF90DF90CF90BF90B4
:10017000AF900895FC01538D448D252F30E0842FDE
:1001800090E0821B930B541710F0CF9608950197BF
:100190000895FC01918D828D981761F0A28DAE0FAC
:1001A000BF2FB11D5D968C91928D9F5F9F73928F33
:1001B00090E008958FEF9FEF0895FC01918D828D5F
:1001C000981731F0828DE80FF11D858D90E008952C
:1001D0008FEF9FEF0895FC01918D228D892F90E084
:1001E000805C9F4F821B91098F73992708958FE838
:1001F00091E00E94EB0021E0892B09F420E0822F9E
:10020000089580E090E0892B29F00E94F700811189
:100210000C9400000895FC01A48DA80FB92FB11D06
:10022000A35ABF4F2C91848D90E001968F7399272C
:10023000848FA689B7892C93A089B1898C9183700A
:1002400080648C93938D848D981306C00288F38903
:10025000E02D80818F7D80830895EF92FF920F9330
:100260001F93CF93DF93EC0181E0888F9B8D8C8D62
:1002700098131AC0E889F989808185FF15C09FB756
:10028000F894EE89FF896083E889F9898081837019
:10029000806480839FBF81E090E0DF91CF911F91C8
:1002A0000F91FF90EF900895F62E0B8D10E00F5FE9
:1002B0001F4F0F731127E02E8C8D8E110CC00FB6BF
:1002C00007FCFACFE889F989808185FFF5CFCE0157
:1002D0000E940B01F1CFEB8DEC0FFD2FF11DE35AC6
:1002E000FF4FF0829FB7F8940B8FEA89FB898081DA
:1002F0008062CFCFCF93DF93EC01888D8823B9F054
:10030000AA89BB89E889F9898C9185FD03C0808120
:1003100086FD0DC00FB607FCF7CF8C9185FFF2CF9D
:10032000808185FFEDCFCE010E940B01E9CFDF91E7
:10033000CF910895209184013091850128173907C4
:1003400071F49091820180918301981741F0E091BE
:100350008201F0E0EE5BFE4F808190E008958FEF28
:100360009FEF08950895EF92FF920F931F93CF93FD
:10037000DF93DC015C96ED90FC905D97E114F10455
:1003800079F481E090E013969C938E93129790E01D
:1003900080E0DF91CF911F910F91FF90EF90089532
:1003A0005196ED91FC91529750968C915097982FC1
:1003B00090950FB75E962C915E97122F127021FDCB
:1003C0006095F8942081112319F1282B2083E701EF
:1003D0002197F1F728E0462F50E0308160FF1AC0E6
:1003E000382B3083E7012197F1F7BA0175956795AE
:1003F000215089F7112381F08081892380830FBFE9
:100400005C968D919C910197F1F781E090E0C1CFCE
:100410002923DCCF3923E5CF9081892BEFCF2091A1
:100420008401309185012817390771F48091830187
:100430002091820190E0805C9F4F821B910960E4D3
:1004400070E00E942806089590E080E008952091D1
:1004500084013091850128173907B9F49091820100
:1004600080918301981789F0E0918201F0E0EE5BC2
:10047000FE4F80812091820130E02F5F3F4F2F732C
:1004800033272093820190E008958FEF9FEF089526
:1004900090E080E00895FC0101900020E9F7319799
:1004A000AF01481B590BBC018CE292E00C948D000B
:1004B0001F920F920FB60F9211242F933F938F9399
:1004C0009F93AF93BF9380918B0190918C01A091EA
:1004D0008D01B0918E0130918A0123E0230F2D37D9
:1004E00058F50196A11DB11D20938A0180938B01BF
:1004F00090938C01A0938D01B0938E018091860121
:1005000090918701A0918801B09189010196A11D68
:10051000B11D8093860190938701A0938801B093C9
:100520008901BF91AF919F918F913F912F910F9032
:100530000FBE0F901F90189526E8230F0296A11D5D
:10054000B11DD2CF1F920F920FB60F9211242F938D
:100550003F934F935F936F937F938F939F93AF934B
:10056000BF93EF93FF938FE891E00E940B01FF91FF
:10057000EF91BF91AF919F918F917F916F915F911B
:100580004F913F912F910F900FBE0F901F90189594
:100590001F920F920FB60F9211242F938F939F9358
:1005A000EF93FF93E0919F01F091A0018081E09192
:1005B000A501F091A60182FD1BC090818091A80148
:1005C0008F5F8F732091A901821741F0E091A801FC
:1005D000F0E0E157FE4F958F8093A801FF91EF91D6
:1005E0009F918F912F910F900FBE0F901F90189594
:1005F0008081F4CF1F920F920FB60F9211242F9388
:100600003F934F935F936F937F938F939F93AF939A
:10061000BF93EF93FF93E0918401F09185013097B0
:1006200049F0A685B7858585968D91FF14C09C916C
:100630008923A1F4FF91EF91BF91AF919F918F9189
:100640007F916F915F914F913F912F910F900FBECE
:100650000F901F9018959C91892361F7A389B48905
:100660009C918589809589238C93868997890197A8
:10067000F1F7608D718DA685B785558538E020E04E
:10068000CB010197F1F7822F90E095958795282F60
:100690004C91452309F02068315091F7868D81FDFA
:1006A00020958091830190E001968F739927309176
:1006B0008201381799F0A0918301B0E0AE5BBE4F84
:1006C0002C9380938301828D938D0197F1F7A389F9
:1006D000B4898C919589892B8C93ACCF868D816060
:1006E000868FF1CF90E0FC01E859FF4F2491FC0187
:1006F000E255FF4F3491FC01E656FF4FE491EE23A3
:10070000C9F0222339F0233001F1A8F4213019F186
:10071000223029F1F0E0EE0FFF1FE057FF4FA591C7
:10072000B4918FB7F894EC91611126C030953E23B7
:100730003C938FBF08952730A9F02830C9F02430AA
:1007400049F7809180008F7D03C0809180008F7772
:1007500080938000DFCF84B58F7784BDDBCF84B5F5
:100760008F7DFBCF8091B0008F778093B000D2CF88
:100770008091B0008F7DF9CF3E2BDACF0F931F937E
:10078000CF93DF93109292011092910188EE93E043
:10079000A0E0B0E08093930190939401A093950121
:1007A000B093960124E031E03093900120938F01C3
:1007B00025EC30E030939C0120939B0124EC30E049
:1007C00030939E0120939D0120EC30E03093A001F6
:1007D00020939F0121EC30E03093A2012093A101EE
:1007E00022EC30E03093A4012093A30126EC30E00A
:1007F0003093A6012093A5011092A8011092A9019F
:100800001092AA011092AB0110922F0210922E02A8
:100810008093300290933102A0933202B09333025E
:1008200086E191E090932D0280932C021092430276
:100830001092420210924502109244021092470216
:1008400010924602109249021092480260914A02A8
:100850006E7F6D7F60934A026695617081E06827C4
:1008600083E00E94720341EB50E0FA0164918DE94C
:1008700090E0FC012491222399F030E0220F331FF5
:10088000F901EA57FF4FA591B491F901E057FF4FE5
:10089000259134912FB7F8943C91632B6C932FBF23
:1008A000FA01449140933C02FC018491E82FF0E06E
:1008B000EE0FFF1FE057FF4F8591949190933E02FA
:1008C00080933D0200EB10E0F8012491CCE9D0E0E8
:1008D000FE0184918823C9F090E0880F991FFC01E4
:1008E000EA57FF4FA591B491FC01E057FF4F4591A6
:1008F00054913FB7F8949C91822F809598239C93B4
:10090000FA019081892380833FBF80914A0281FD53
:1009100004C061E082E00E94720382E080933802AA
:10092000F801049100933902FE01C491EC2FF0E02C
:10093000EE0FFF1FE458FF4F8591949190933B0277
:1009400080933A02DF91CF911F910F91089578948F
:1009500084B5826084BD84B5816084BD85B58260C4
:1009600085BD85B5816085BD80916E008160809375
:100970006E001092810080918100826080938100DE
:1009800080918100816080938100809180008160EE
:10099000809380008091B10084608093B100809149
:1009A000B00081608093B00080917A008460809371
:1009B0007A0080917A00826080937A0080917A0038
:1009C000816080937A0080917A00806880937A00B9
:1009D0001092C100E0919F01F091A00182E080831C
:1009E000E0919B01F0919C011082E0919D01F091BA
:1009F0009E0180E180831092A701E091A301F09114
:100A0000A40186E08083E091A101F091A2018081A0
:100A100080618083E091A101F091A20180818860D2
:100A20008083E091A101F091A201808180688083A0
:100A3000E091A101F091A20180818F7D808381E00E
:100A400090E0A0E0B0E08093930190939401A09394
:100A50009501B093960110924702109246021092AF
:100A600045021092440210924302109242028FE11A
:100A700090E0909349028093480290913802963119
:100A800008F047C021E030E0309343022093420257
:100A90002DE130E030934502209344022DE030E018
:100AA00030934702209346022091680084E09830FA
:100AB00048F031E09E3008F430E081E001C0880F5A
:100AC0003A95EAF7822B809368002DE630E0983063
:100AD00050F02BE630E09E3030F02CE630E09631DE
:100AE00010F030E020E03093400220933F02292FA5
:100AF00030E0983008F083C081E001C0880F9A95FB
:100B0000EAF780934102809148029091490201974F
:100B1000F1F78091460290914702892B49F1E091CB
:100B20008401F091850182E0EC32F80709F13097F9
:100B300039F0A389B4899C918589809589238C9308
:100B400080914A028E7F80934A0210928301109214
:100B500082018CE292E09093850180938401E09180
:100B60003F02F0914002808190914102892B808365
:100B700081E090E0A0E0B0E08093300290933102F9
:100B8000A0933202B093330284E291E00E944B02C0
:100B900080E391E00E944B02549A559A569A579AD4
:100BA000209A219A229A239A249A259A5C985D98F1
:100BB0005E985F98289829982A982B982C982D98B9
:100BC00083E391E00E944B0287E391E00E944B0295
:100BD0008CE391E00E944B0287E391E00E944B027C
:100BE00080E391E00E944B02C0E0D0E02097F1F357
:100BF0000E94F7008823D1F30E940000F7CF9E30B7
:100C000040F42850310981E001C0880F2A95EAF7A5
:100C100078CF2E503109F7CF86E191E090932D02E5
:100C200080932C0280918401909185018C52924096
:100C300071F4E0913F02F091400290818091410275
:100C400080958923808310928501109284010895F4
:100C500097FB072E16F4009407D077FD09D00E9469
:100C60003C0607FC05D03EF4909581959F4F089572
:100C7000709561957F4F0895AA1BBB1B51E107C07A
:100C8000AA1FBB1FA617B70710F0A61BB70B881F1C
:100C9000991F5A95A9F780959095BC01CD010895AB
:100CA000EE0FFF1F0590F491E02D099410E0C2E6CD
:100CB000D0E004C0FE010E9450062196C336D10741
:100CC000C9F7F894FFCF000000002D018D00BA0095
:100CD0007A01EB00C900DD0000000000B3018D00C7
:100CE0004802B2010F0227029A01535445454C2095
:100CF000404C495645000D0A0048533A007472753D
:080D000065002053533A000086
:107E0000112484B714BE81FFF0D085E080938100F7
:107E100082E08093C00088E18093C10086E0809377
:107E2000C20080E18093C4008EE0C9D0259A86E02C
:107E300020E33CEF91E0309385002093840096BBD3
:107E4000B09BFECF1D9AA8958150A9F7CC24DD24C4
:107E500088248394B5E0AB2EA1E19A2EF3E0BF2EE7
:107E6000A2D0813461F49FD0082FAFD0023811F036
:107E7000013811F484E001C083E08DD089C08234E0
:107E800011F484E103C0853419F485E0A6D080C0E4
:107E9000853579F488D0E82EFF2485D0082F10E0AE
:107EA000102F00270E291F29000F111F8ED06801E7
:107EB0006FC0863521F484E090D080E0DECF843638
:107EC00009F040C070D06FD0082F6DD080E0C81688
:107ED00080E7D80618F4F601B7BEE895C0E0D1E017
:107EE00062D089930C17E1F7F0E0CF16F0E7DF06D8
:107EF00018F0F601B7BEE89568D007B600FCFDCFD4
:107F0000A601A0E0B1E02C9130E011968C91119780
:107F100090E0982F8827822B932B1296FA010C0160
:107F200087BEE89511244E5F5F4FF1E0A038BF0790
:107F300051F7F601A7BEE89507B600FCFDCF97BE46
:107F4000E89526C08437B1F42ED02DD0F82E2BD052
:107F50003CD0F601EF2C8F010F5F1F4F84911BD097
:107F6000EA94F801C1F70894C11CD11CFA94CF0C13
:107F7000D11C0EC0853739F428D08EE10CD085E9AC
:107F80000AD08FE07ACF813511F488E018D01DD067
:107F900080E101D065CF982F8091C00085FFFCCF94
:107FA0009093C60008958091C00087FFFCCF809118
:107FB000C00084FD01C0A8958091C6000895E0E648
:107FC000F0E098E1908380830895EDDF803219F02E
:107FD00088E0F5DFFFCF84E1DECF1F93182FE3DFCA
:107FE0001150E9F7F2DF1F91089580E0E8DFEE27F6
:047FF000FF270994CA
:027FFE00040479
:00000001FF
