:020000040000FA
:100000000C9463000C948B000C948B000C945203A2
:100010000C9452030C9452030C948B000C948B00A0
:100020000C948B000C948B000C948B000C948B0024
:100030000C948B000C948B000C948B000C948B0014
:100040000C9408030C948B000C94D6020C94B00210
:100050000C948B000C948B000C948B000C948B00F4
:100060000C948B000C948B0000000008000201002F
:100070000003040700000000000000000000000072
:1000800023002600290000000000240027002A0089
:1000900000000000250028002B00040404040404D0
:1000A0000404020202020202030303030303010227
:1000B00004081020408001020408102001020408F6
:1000C000102016044E0711241FBECFEFD8E0DEBF6C
:1000D000CDBF22E0ACE3B1E001C01D92AF36B20764
:1000E000E1F711E0A0E0B1E0ECEAF3E102C0059035
:1000F0000D92AC33B107D9F710E0C2E6D0E004C0EE
:100100002197FE010E94D107C136D107C9F70E948D
:1001100047050C94C9090C940000AF92BF92CF928E
:10012000DF92EF92FF920F931F93CF93DF936C01B7
:100130007B018B01040F151FEB015E01AE18BF0898
:10014000C017D10759F06991D601ED91FC9101904A
:10015000F081E02DC6010995892B79F7C501DF9162
:10016000CF911F910F91FF90EF90DF90CF90BF90B4
:10017000AF900895FC01538D448D252F30E0842FDE
:1001800090E0821B930B541710F0CF9608950197BF
:100190000895FC01918D828D981761F0A28DAE0FAC
:1001A000BF2FB11D5D968C91928D9F5F9F73928F33
:1001B00090E008958FEF9FEF0895EF92FF920F93D5
:1001C0001F93CF93DF937B018C01D0E0C0E02FB76A
:1001D000F8948091A5019091A601A091A701B091FA
:1001E000A8012FBF8093B1019093B201A093B301F6
:1001F000B093B40189EA91E00E94C90097FF2CC036
:100200002FB7F8948091A5019091A601A091A70124
:10021000B091A8012FBF4091B1015091B2016091FE
:10022000B3017091B401841B950BA60BB70B4091E1
:10023000AD015091AE016091AF017091B001841792
:100240009507A607B707B0F2CE01DF91CF911F91B6
:100250000F91FF90EF900895F80181938F012196FF
:10026000EC16FD0609F0B3CFEFCFFC01918D828D26
:10027000981731F0828DE80FF11D858D90E008957B
:100280008FEF9FEF0895FC01918D228D892F90E0D3
:10029000805C9F4F821B91098F739927089589EA8B
:1002A00091E00E94430121E0892B09F420E0822F94
:1002B000089580E090E0892B29F00E944F01811180
:1002C0000C9400000895FC01A48DA80FB92FB11D56
:1002D000A35ABF4F2C91848D90E001968F7399277C
:1002E000848FA689B7892C93A089B1898C9183705A
:1002F00080648C93938D848D981306C00288F38953
:10030000E02D80818F7D80830895EF92FF920F937F
:100310001F93CF93DF93EC0181E0888F9B8D8C8DB1
:1003200098131AC0E889F989808185FF15C09FB7A5
:10033000F894EE89FF896083E889F9898081837068
:10034000806480839FBF81E090E0DF91CF911F9117
:100350000F91FF90EF900895F62E0B8D10E00F5F38
:100360001F4F0F731127E02E8C8D8E110CC00FB60E
:1003700007FCFACFE889F989808185FFF5CFCE01A6
:100380000E946301F1CFEB8DEC0FFD2FF11DE35ABD
:10039000FF4FF0829FB7F8940B8FEA89FB89808129
:1003A0008062CFCFCF93DF93EC01888D8823B9F0A3
:1003B000AA89BB89E889F9898C9185FD03C0808170
:1003C00086FD0DC00FB607FCF7CF8C9185FFF2CFED
:1003D000808185FFEDCFCE010E946301E9CFDF91DF
:1003E000CF91089520918301309184012817390716
:1003F00071F49091810180918201981741F0E09110
:100400008101F0E0E45CFE4F808190E008958FEF81
:100410009FEF08950895EF92FF920F931F93CF934C
:10042000DF93DC015C96ED90FC905D97E114F104A4
:1004300079F481E090E013969C938E93129790E06C
:1004400080E0DF91CF911F910F91FF90EF90089581
:100450005196ED91FC91529750968C915097982F10
:1004600090950FB75E962C915E97122F127021FD1A
:100470006095F8942081112319F1282B2083E7013E
:100480002197F1F728E0462F50E0308160FF1AC035
:10049000382B3083E7012197F1F7BA0175956795FD
:1004A000215089F7112381F08081892380830FBF38
:1004B0005C968D919C910197F1F781E090E0C1CF1E
:1004C0002923DCCF3923E5CF9081892BEFCF2091F1
:1004D0008301309184012817390771F480918201DA
:1004E0002091810190E0805C9F4F821B910960E424
:1004F00070E00E94A907089590E080E0089520919F
:1005000083013091840128173907B9F49091810152
:1005100080918201981789F0E0918101F0E0E45C1C
:10052000FE4F80812091810130E02F5F3F4F2F737C
:1005300033272093810190E008958FEF9FEF089576
:1005400090E080E00895FC0101900020E9F73197E8
:10055000AF01481B590BBC018CE492E00C948D0058
:100560001F920F920FB60F9211242F933F934F9328
:100570005F936F937F938F939F93AF93BF93EF930B
:10058000FF9389EA91E00E946301FF91EF91BF918F
:10059000AF919F918F917F916F915F914F913F911B
:1005A0002F910F900FBE0F901F9018951F920F92D2
:1005B0000FB60F9211242F938F939F93EF93FF9376
:1005C000E091B901F091BA018081E091BF01F09111
:1005D000C00182FD1BC090818091C2018F5F8F732B
:1005E0002091C301821741F0E091C201F0E0E7558C
:1005F000FE4F958F8093C201FF91EF919F918F9154
:100600002F910F900FBE0F901F9018958081F4CFFF
:100610001F920F920FB60F9211242F933F938F9337
:100620009F93AF93BF938091A5019091A601A09154
:10063000A701B091A8013091800123E0230F2D374D
:1006400058F50196A11DB11D209380018093A5014D
:100650009093A601A093A701B093A80180917C017B
:1006600090917D01A0917E01B0917F010196A11D25
:10067000B11D80937C0190937D01A0937E01B09386
:100680007F01BF91AF919F918F913F912F910F90DB
:100690000FBE0F901F90189526E8230F0296A11DFC
:1006A000B11DD2CF1F920F920FB60F9211242F932C
:1006B0003F934F935F936F937F938F939F93AF93EA
:1006C000BF93EF93FF93E0918301F0918401309702
:1006D00049F0A685B7858585968D91FF14C09C91BC
:1006E0008923A1F4FF91EF91BF91AF919F918F91D9
:1006F0007F916F915F914F913F912F910F900FBE1E
:100700000F901F9018959C91892361F7A389B48954
:100710009C918589809589238C93868997890197F7
:10072000F1F7608D718DA685B785558538E020E09D
:10073000CB010197F1F7822F90E095958795282FAF
:100740004C91452309F02068315091F7868D81FD49
:1007500020958091820190E001968F7399273091C6
:100760008101381799F0A0918201B0E0A45CBE4FDE
:100770002C9380938201828D938D0197F1F7A38949
:10078000B4898C919589892B8C93ACCF868D8160AF
:10079000868FF1CF90E0FC01E859FF4F2491FC01D6
:1007A000E255FF4F3491FC01E656FF4FE491EE23F2
:1007B000C9F0222339F0233001F1A8F4213019F1D6
:1007C000223029F1F0E0EE0FFF1FE057FF4FA59117
:1007D000B4918FB7F894EC91611126C030953E2307
:1007E0003C938FBF08952730A9F02830C9F02430FA
:1007F00049F7809180008F7D03C0809180008F77C2
:1008000080938000DFCF84B58F7784BDDBCF84B544
:100810008F7DFBCF8091B0008F778093B000D2CFD7
:100820008091B0008F7DF9CF3E2BDACF0F931F93CD
:10083000CF93DF931092AC011092AB0188EE93E05E
:10084000A0E0B0E08093AD019093AE01A093AF0122
:10085000B093B0012CE031E03093AA012093A901BC
:1008600025EC30E03093B6012093B50124EC30E064
:100870003093B8012093B70120EC30E03093BA01F7
:100880002093B90121EC30E03093BC012093BB01EF
:1008900022EC30E03093BE012093BD0126EC30E025
:1008A0003093C0012093BF011092C2011092C30186
:1008B0001092C4011092C50110924F0210924E0284
:1008C0008093500290935102A0935202B09353022E
:1008D0008EE191E090934D0280934C02109263025E
:1008E00010926202109265021092640210926702E6
:1008F00010926602109269021092680260916A0278
:100900006E7F6D7F60936A026695617081E06827F3
:1009100083E00E94CA0341EB50E0FA0164918DE943
:1009200090E0FC012491222399F030E0220F331F44
:10093000F901EA57FF4FA591B491F901E057FF4F34
:10094000259134912FB7F8943C91632B6C932FBF72
:10095000FA01449140935C02FC018491E82FF0E09D
:10096000EE0FFF1FE057FF4F8591949190935E0229
:1009700080935D0200EB10E0F8012491CCE9D0E017
:10098000FE0184918823C9F090E0880F991FFC0133
:10099000EA57FF4FA591B491FC01E057FF4F4591F5
:1009A00054913FB7F8949C91822F809598239C9303
:1009B000FA019081892380833FBF80916A0281FD83
:1009C00004C061E082E00E94CA0382E08093580282
:1009D000F801049100935902FE01C491EC2FF0E05C
:1009E000EE0FFF1FE458FF4F8591949190935B02A7
:1009F00080935A02109247021092460210924902C6
:100A00001092480210924B0210924A0261E070E08C
:100A100090E080E00E94FC08009701F1909347026B
:100A200080934602109249021092480220914A0295
:100A300030914B02232B11F4FC01108210924B02D7
:100A400010924A026BE371E0809146029091470256
:100A5000DF91CF911F910F910C94C20980914602B2
:100A600090914702009711F00E947308109247027C
:100A70001092460210924B0210924A0210924902C2
:100A800010924802DF91CF911F910F9108957894B1
:100A900084B5826084BD84B5816084BD85B5826083
:100AA00085BD85B5816085BD80916E008160809334
:100AB0006E0010928100809181008260809381009D
:100AC00080918100816080938100809180008160AD
:100AD000809380008091B10084608093B100809108
:100AE000B00081608093B00080917A008460809330
:100AF0007A0080917A00826080937A0080917A00F7
:100B0000816080937A0080917A00806880937A0077
:100B10001092C100E091B901F091BA0182E08083A6
:100B2000E091B501F091B6011082E091B701F0912A
:100B3000B80180E180831092C101E091BD01F09184
:100B4000BE0186E08083E091BB01F091BC01808111
:100B500080618083E091BB01F091BC01808188605D
:100B60008083E091BB01F091BC018081806880832B
:100B7000E091BB01F091BC0180818F7D8083109258
:100B8000670210926602109265021092640210923F
:100B90006302109262028FE190E090936902809369
:100BA000680290915802963108F047C021E030E089
:100BB00030936302209362022DE130E030936502AE
:100BC000209364022DE030E03093670220936602A8
:100BD0002091680084E0983048F031E09E3008F4BD
:100BE00030E081E001C0880F3A95EAF7822B8093CC
:100BF00068002DE630E0983050F02BE630E09E3073
:100C000030F02CE630E0963110F030E020E0309308
:100C1000600220935F02292F30E0983008F0EAC08C
:100C200081E001C0880F9A95EAF780936102809174
:100C30006802909169020197F1F7809166029091A4
:100C40006702892B49F1E0918301F091840182E0F0
:100C5000EC34F80709F1309739F0A389B4899C91F5
:100C60008589809589238C9380916A028E7F8093F9
:100C70006A0210928201109281018CE492E09093BA
:100C8000840180938301E0915F02F0916002808192
:100C900090916102892B808385E090E0A0E0B0E034
:100CA0008093AD019093AE01A093AF01B093B001DA
:100CB0008093500290935102A0935202B09353023A
:100CC0008CE291E00E94A302209A219A229A249A0F
:100CD000259A239A559A569A579A83EC90E0FC01EC
:100CE0003197F1F7289829982A982C982D982B98C5
:100CF0000197F1F785E391E00E94A30289E391E077
:100D00000E94A302CBE8D1E000E010E0EE24E394DF
:100D1000F12C89EA91E00E944301892B09F487C0F4
:100D200089EA91E00E94C9008093A401803509F40A
:100D300078C09091A301903509F085C0833009F007
:100D400082C089EA91E00E944301892BD1F389EAAC
:100D500091E00E94C900069709F05DC068E070E06C
:100D600089E991E00E94DD002091990130919A017A
:100D700032272327322730939801209397018091BF
:100D80009B0190919C019827892798274091950174
:100D900050919601841B950B90939401809393013D
:100DA00010929201109291018091000190910101A5
:100DB000892BB9F137FF2BC0299A8091930190912B
:100DC000940197FF26C02D9A90E080E02091910138
:100DD000309192018217930724F5181619060CF02A
:100DE0002C9AFE013197F1F72C98FE013197F1F71B
:100DF0000196ECCF9E3040F42850310981E001C0CB
:100E0000880F2A95EAF711CF2E503109F7CF29988C
:100E1000D4CF2D98D9CF65E070E085E891E00E94AD
:100E2000DD008091A4018093A3015E985F98011575
:100E3000110509F46ECF0E944F01882309F469CF90
:100E40000E94000066CF853561F766E070E085E8B6
:100E500091E00E94DD0080918501813029F4F092BB
:100E60000101E0920001DDCF823029F410920101EE
:100E700010920001D6CF8630A1F680918601909124
:100E800087019093900180938F01809188019091C8
:100E900089019093960180939501C3CF809146027A
:100EA00090914702009711F00E9473088EE191E043
:100EB00090934D0280934C02809183019091840124
:100EC0008C54924071F4E0915F02F0916002908145
:100ED0008091610280958923808310928401109211
:100EE000830108952F923F924F925F926F927F926B
:100EF0008F929F92AF92BF92CF92DF92EF92FF922A
:100F00000F931F93CF93DF93CDB7DEB7CA1BDB0BD5
:100F10000FB6F894DEBF0FBECDBF09942A8839887A
:100F200048885F846E847D848C849B84AA84B98481
:100F3000C884DF80EE80FD800C811B81AA81B9818D
:100F4000CE0FD11D0FB6F894DEBF0FBECDBFED01A1
:100F5000089597FB072E16F4009407D077FD09D06B
:100F60000E94BD0707FC05D03EF4909581959F4FE8
:100F70000895709561957F4F0895AA1BBB1B51E1A1
:100F800007C0AA1FBB1FA617B70710F0A61BB70BF9
:100F9000881F991F5A95A9F780959095BC01CD019E
:100FA0000895EE0FFF1F0590F491E02D09940F9323
:100FB0001F93CF93DF938230910510F482E090E08D
:100FC000E0916D02F0916E0230E020E0B0E0A0E030
:100FD000309799F42115310509F44AC0281B390BC3
:100FE00024303105D8F58A819B816115710589F11D
:100FF000FB0193838283FE0111C0408151810281F4
:10100000138148175907E0F04817590799F41097CA
:1010100061F012960C93129713961C933296CF019F
:10102000DF91CF911F910F91089500936D0210935E
:101030006E02F4CF2115310551F04217530738F0F5
:10104000A901DB019A01BD01DF01F801C1CFEF0168
:10105000F9CF90936E0280936D02CDCFFE01E20F27
:10106000F31F819391932250310939832883D7CF7D
:1010700020916B0230916C02232B41F420910401EA
:101080003091050130936C0220936B022091020194
:10109000309103012115310541F42DB73EB7409140
:1010A000060150910701241B350BE0916B02F09172
:1010B0006C02E217F307A0F42E1B3F0B2817390729
:1010C00078F0AC014E5F5F4F2417350748F04E0FA4
:1010D0005F1F50936C0240936B02819391939FCF5B
:1010E000F0E0E0E09CCFCF93DF930097E9F0FC01C4
:1010F000329713821282A0916D02B0916E02ED01BF
:1011000030E020E01097A1F420813181820F931FFD
:1011100020916B0230916C022817390709F061C0E9
:10112000F0936C02E0936B02DF91CF910895EA0196
:10113000CE17DF07E8F54A815B819E014115510515
:10114000B1F7E901FB83EA8349915991C40FD51F97
:10115000EC17FD0761F4808191810296840F951F41
:10116000E90199838883828193819B838A83F0E05C
:10117000E0E012968D919C9113970097B9F52D910F
:101180003C911197CD010296820F931F20916B0223
:1011900030916C022817390739F6309751F51092C3
:1011A0006E0210926D02B0936C02A0936B02BCCFE2
:1011B000D383C28340815181840F951FC817D907FB
:1011C00061F44E5F5F4F88819981480F591F5183A9
:1011D00040838A819B81938382832115310509F0A5
:1011E000B0CFF0936E02E0936D029ECFFD01DC0163
:1011F000C0CF13821282D7CFB0E0A0E0E2E0F9E0E6
:101200000C9474078C01009751F4CB010E94D7070E
:101210008C01C801CDB7DEB7E0E10C949007FC016A
:10122000E60FF71F9C0122503109E217F30708F47B
:101230009DC0D901CD91DC911197C617D70798F0C1
:10124000C530D10530F3CE0104978617970708F310
:10125000C61BD70B2297C193D1936D937C93CF017B
:101260000E947308D6CF5B01AC1ABD0A4C018C0EEC
:101270009D1EA0916D02B0916E02512C412CF12C5B
:10128000E12C109731F580916B0290916C028815DA
:10129000990509F05CC04616570608F058C08091C1
:1012A000020190910301009741F48DB79EB74091E0
:1012B000060150910701841B950BE817F90708F008
:1012C00055C0F0936C02E0936B02F9017183608367
:1012D000A0CF8D919C91119712966C9012971396B6
:1012E0007C901397A815B90559F56C0142E0C40E1E
:1012F000D11CCA14DB0420F1AC014A195B09DA01E4
:101300001296159780F06282738251834083D901CF
:101310006D937C93E114F10471F0D7011396FC9363
:10132000EE93129776CF22968C0F9D1FF901918331
:101330008083F301EFCFF0936E02E0936D0269CFEB
:101340004816590608F42C017D01D3019ACFCB0130
:101350000E94D7077C01009749F0AE01B8010E94B6
:10136000B909C8010E947308870153CF10E000E05B
:1013700050CFFB01DC0102C001900D924150504062
:10138000D8F70895FB01DC0101900D920020E1F7F0
:10139000089510E0C2E6D0E004C0FE010E94D1072B
:1013A0002196C336D107C9F7F894FFCF010000009A
:1013B0006F0280000000000085018D00BA00D2019C
:1013C0004301C9003501000000000B028D00A0029E
:1013D0000A0267027F02F2010A626F6F742E2E2EDC
:0813E00000094F4B000D0A004B
:107800000C94343C0C94513C0C94513C0C94513CE1
:107810000C94513C0C94513C0C94513C0C94513CB4
:107820000C94513C0C94513C0C94513C0C94513CA4
:107830000C94513C0C94513C0C94513C0C94513C94
:107840000C94513C0C94513C0C94513C0C94513C84
:107850000C94513C0C94513C0C94513C0C94513C74
:107860000C94513C0C94513C11241FBECFEFD8E036
:10787000DEBFCDBF11E0A0E0B1E0ECE9FFE702C060
:1078800005900D92A230B107D9F712E0A2E0B1E065
:1078900001C01D92AD30B107E1F70E942D3D0C945F
:1078A000CC3F0C94003C982F959595959595959582
:1078B000905D8F708A307CF0282F295A8091C0000B
:1078C00085FFFCCF9093C6008091C00085FFFCCF60
:1078D0002093C6000895282F205DF0CF982F809127
:1078E000C00085FFFCCF9093C6000895EF92FF92F1
:1078F0000F931F93EE24FF2487018091C00087FD22
:1079000017C00894E11CF11C011D111D81E4E8164B
:1079100082E4F8068FE0080780E0180770F3E09132
:107920000401F091050109958091C00087FFE9CF1E
:107930008091C6001F910F91FF90EF9008950E94D3
:10794000763C982F8091C00085FFFCCF9093C600B5
:1079500091362CF490330CF09053892F089597555D
:10796000892F08951F930E949F3C182F0E949F3CCF
:107970001295107F810F1F9108951F93182F882350
:1079800021F00E94763C1150E1F71F9108951F935A
:10799000182F0E94763C803249F0809103018F5F5E
:1079A000809303018530C1F01F9108958091C0003C
:1079B00085FFFCCF84E18093C6008091C00085FFE5
:1079C000FCCF1093C6008091C00085FFFCCF80E102
:1079D0008093C6001F910895E0910401F091050184
:1079E00009951F9108950E94763C803241F0809164
:1079F00003018F5F80930301853081F008958091AA
:107A0000C00085FFFCCF84E18093C6008091C00058
:107A100085FFFCCF80E18093C6000895E0910401CA
:107A2000F09105010995089540E951E08823A1F0FE
:107A30002D9A28EE33E0FA013197F1F721503040CA
:107A4000D1F72D9828EE33E0FA013197F1F7215064
:107A50003040D1F7815061F708953F924F925F9285
:107A60006F927F928F929F92AF92BF92CF92DF924E
:107A7000EF92FF920F931F93CF93DF93000080E16B
:107A80008093C4001092C50088E18093C10086E015
:107A90008093C2005098589A259A81E00E94143D24
:107AA00024E1F22E9EE1E92E85E9D82E0FE0C02ECA
:107AB00010E1B12EAA24A394B1E49B2EA6E58A2E50
:107AC000F2E57F2EE0E26E2E79E4572E63E5462E36
:107AD00050E5352E0E94763C8033B1F18133B9F107
:107AE000803409F46FC0813409F476C0823409F41B
:107AF00085C0853409F488C0803531F1823521F1A3
:107B0000813511F1853509F485C0863509F48DC0BC
:107B1000843609F496C0843709F403C1853709F423
:107B200072C1863709F466C0809103018F5F80932C
:107B30000301853079F6E0910401F0910501099582
:107B40000E94763C803351F60E94F33CC3CF0E94E2
:107B5000763C803249F78091C00085FFFCCFF092DF
:107B6000C6008091C00085FFFCCF9092C600809136
:107B7000C00085FFFCCF8092C6008091C00085FFC9
:107B8000FCCF7092C6008091C00085FFFCCF609250
:107B9000C6008091C00085FFFCCF5092C600809146
:107BA000C00085FFFCCF4092C6008091C00085FFD9
:107BB000FCCF3092C6008091C00085FFFCCFB09210
:107BC000C60088CF0E94763C863808F4BDCF0E945C
:107BD000763C0E94F33C7ECF0E94763C803809F4CC
:107BE0009CC0813809F40BC1823809F43CC1883942
:107BF00009F48FC080E00E94C73C6CCF84E10E94F2
:107C0000BD3C0E94F33C66CF85E00E94BD3C0E94D3
:107C1000F33C60CF0E94763C809306010E94763C44
:107C2000809307010E94F33C55CF0E94763C80333D
:107C300009F41DC183E00E94BD3C80E00E94C73C66
:107C400049CF0E94763C809309020E94763C809343
:107C5000080280910C028E7F80930C020E94763C79
:107C6000853409F415C18091080290910902892B8D
:107C700089F000E010E00E94763CF801E85FFE4FDA
:107C800080830F5F1F4F80910802909109020817AF
:107C9000190788F30E94763C803209F045CF809125
:107CA0000C0280FF01C16091060170910701660F0F
:107CB000771F7093070160930601A0910802B091AD
:107CC00009021097C9F0E8E0F1E09B01AD014E0F09
:107CD0005F1FF999FECF32BD21BD819180BDFA9A17
:107CE000F99A2F5F3F4FE417F50799F76A0F7B1F4B
:107CF00070930701609306018091C00085FFFCCF5F
:107D0000F092C6008091C00085FFFCCFB092C60003
:107D1000E1CE83E00E94C73CDDCE82E00E94C73CFA
:107D2000D9CE0E94763C809309020E94763C8093D3
:107D300008028091060190910701880F991F909386
:107D40000701809306010E94763C853409F4A6C0A1
:107D500080910C028E7F80930C020E94763C8032D0
:107D600009F0B8CE8091C00085FFFCCFF092C6002C
:107D7000609108027091090261157105B9F140E046
:107D800050E080910C02A82FA170B82FB27011C0E2
:107D9000BB2309F45CC0E0910601F0910701319624
:107DA000F0930701E09306014F5F5F4F46175707B7
:107DB000E8F4AA2369F3F999FECF209106013091E6
:107DC000070132BD21BDF89A90B58091C00085FFB2
:107DD000FCCF9093C6002F5F3F4F30930701209355
:107DE00006014F5F5F4F4617570718F38091C00099
:107DF00085FDE5CE8091C00085FFF8CFE0CE81E023
:107E00000E94C73C67CE0E94763C803209F08CCE3F
:107E10008091C00085FFFCCFF092C6008091C00029
:107E200085FFFCCFE092C6008091C00085FFFCCFAB
:107E3000D092C6008091C00085FFFCCFC092C600E2
:107E40008091C00085FFFCCFB092C60043CEE09188
:107E50000601F091070194918091C00085FFFCCF4D
:107E60009093C6009CCF80E10E94C73C33CE0E9415
:107E7000763C0E94763C182F0E94763C112309F430
:107E800083C0113009F484C08FE00E94C73C22CE29
:107E900080910C02816080930C02E5CE80910C02EF
:107EA000816080930C0259CF809107018823880F4D
:107EB000880B8A2180930B02809106019091070123
:107EC000880F991F90930701809306018091080203
:107ED00080FF09C080910802909109020196909359
:107EE000090280930802F894F999FECF1127E091D6
:107EF0000601F0910701C8E0D1E08091080290915D
:107F00000902103091F40091570001700130D9F34B
:107F100003E000935700E89500915700017001308D
:107F2000D9F301E100935700E89509901990009169
:107F3000570001700130D9F301E000935700E89534
:107F40001395103498F011270091570001700130FB
:107F5000D9F305E000935700E895009157000170B0
:107F60000130D9F301E100935700E895329602976A
:107F700009F0C7CF103011F00296E5CF112480919F
:107F8000C00085FFB9CEBCCE8EE10E94C73CA2CD19
:0E7F900085E90E94C73C9ECDF894FFCF80008B
:00000001FF
