:100000000C9463000C948B000C948B000C943404BF
:100010000C9434040C9434040C948B000C948B00DA
:100020000C948B000C948B000C948B000C948B0024
:100030000C948B000C948B000C948B000C948B0014
:100040000C94EA030C948B000C94B8030C94920368
:100050000C948B000C948B000C948B000C948B00F4
:100060000C948B000C948B0000000008000201002F
:100070000003040700000000000000000000000072
:1000800023002600290000000000240027002A0089
:1000900000000000250028002B00040404040404D0
:1000A0000404020202020202030303030303010227
:1000B00004081020408001020408102001020408F6
:1000C0001020F804FF0811241FBECFEFD8E0DEBFD8
:1000D000CDBF22E0AEE5B1E001C01D92A139B2076B
:1000E000E1F711E0A0E0B1E0E2EDF7E102C0059038
:1000F0000D92AE35B107D9F710E0C2E6D0E004C0EA
:100100002197FE010E94E409C136D107C9F70E9478
:10011000F4050C94DC0B0C940000AF92BF92CF92CC
:10012000DF92EF92FF920F931F93CF93DF936C01B7
:100130007B018B01040F151FEB015E01AE18BF0898
:10014000C017D10759F06991D601ED91FC9101904A
:10015000F081E02DC6010995892B79F7C501DF9162
:10016000CF911F910F91FF90EF90DF90CF90BF90B4
:10017000AF900895FC01538D448D252F30E0842FDE
:1001800090E0821B930B541710F0CF9608950197BF
:100190000895FC01918D828D981761F0A28DAE0FAC
:1001A000BF2FB11D5D968C91928D9F5F9F73928F33
:1001B00090E008958FEF9FEF0895EF92FF920F93D5
:1001C0001F93CF93DF937B018C01D0E0C0E02FB76A
:1001D000F8948091C7019091C801A091C901B09194
:1001E000CA012FBF8093D3019093D401A093D5016E
:1001F000B093D6018BEC91E00E94C90097FF2CC010
:100200002FB7F8948091C7019091C801A091C901BE
:10021000B091CA012FBF4091D3015091D401609198
:10022000D5017091D601841B950BA60BB70B40919D
:10023000CF015091D0016091D1017091D20184170A
:100240009507A607B707B0F2CE01DF91CF911F91B6
:100250000F91FF90EF900895F80181938F012196FF
:10026000EC16FD0609F0B3CFEFCFFC01918D828D26
:10027000981731F0828DE80FF11D858D90E008957B
:100280008FEF9FEF0895FC01918D228D892F90E0D3
:10029000805C9F4F821B91098F73992708958BEC87
:1002A00091E00E94430121E0892B09F420E0822F94
:1002B000089580E090E0892B29F00E944F01811180
:1002C0000C9400000895FC01A48DA80FB92FB11D56
:1002D000A35ABF4F2C91848D90E001968F7399277C
:1002E000848FA689B7892C93A089B1898C9183705A
:1002F00080648C93938D848D981306C00288F38953
:10030000E02D80818F7D80830895EF92FF920F937F
:100310001F93CF93DF93EC0181E0888F9B8D8C8DB1
:1003200098131AC0E889F989808185FF15C09FB7A5
:10033000F894EE89FF896083E889F9898081837068
:10034000806480839FBF81E090E0DF91CF911F9117
:100350000F91FF90EF900895F62E0B8D10E00F5F38
:100360001F4F0F731127E02E8C8D8E110CC00FB60E
:1003700007FCFACFE889F989808185FFF5CFCE01A6
:100380000E946301F1CFEB8DEC0FFD2FF11DE35ABD
:10039000FF4FF0829FB7F8940B8FEA89FB89808129
:1003A0008062CFCFCF93DF93EC01888D8823B9F0A3
:1003B000AA89BB89E889F9898C9185FD03C0808170
:1003C00086FD0DC00FB607FCF7CF8C9185FFF2CFED
:1003D000808185FFEDCFCE010E946301E9CFDF91DF
:1003E000CF9108952091A5013091A60128173907D2
:1003F00071F49091A3018091A401981741F0E091CC
:10040000A301F0E0E25AFE4F808190E008958FEF63
:100410009FEF08950895EF92FF920F931F93CF934C
:10042000DF93DC015C96ED90FC905D97E114F104A4
:1004300079F481E090E013969C938E93129790E06C
:1004400080E0DF91CF911F910F91FF90EF90089581
:100450005196ED91FC91529750968C915097982F10
:1004600090950FB75E962C915E97122F127021FD1A
:100470006095F8942081112319F1282B2083E7013E
:100480002197F1F728E0462F50E0308160FF1AC035
:10049000382B3083E7012197F1F7BA0175956795FD
:1004A000215089F7112381F08081892380830FBF38
:1004B0005C968D919C910197F1F781E090E0C1CF1E
:1004C0002923DCCF3923E5CF9081892BEFCF2091F1
:1004D000A5013091A6012817390771F48091A40174
:1004E0002091A30190E0805C9F4F821B910960E402
:1004F00070E00E94BC09089590E080E0089520918A
:10050000A5013091A60128173907B9F49091A301EC
:100510008091A401981789F0E091A301F0E0E25ADC
:10052000FE4F80812091A30130E02F5F3F4F2F735A
:1005300033272093A30190E008958FEF9FEF089554
:1005400090E080E0089542E050E06CE271E08EE6D9
:1005500092E00C948D00CF93DF93EC018881998118
:10056000009711F00E94860A198218821D821C824F
:100570001B821A82DF91CF910895FC0180819181C5
:10058000009711F00C94860A08950F931F93CF9350
:10059000DF93EC0188819981009759F02A813B8192
:1005A0002617370730F081E0DF91CF911F910F912F
:1005B00008958B016F5F7F4F0E940F0B009759F0DA
:1005C000998388831B830A832C813D81232B59F7D0
:1005D000FC011082E8CF80E0E7CFEF92FF920F930B
:1005E0001F93CF93DF936115710541F480E0DF9194
:1005F000CF911F910F91FF90EF90089541155105F4
:10060000B1F07B01EC010C811D81040F151FB801B5
:100610000E94C502882351F3288139818C819D81F4
:10062000B701820F931F0E94D50B1D830C8381E0BD
:10063000DECF0F931F93CF93DF9300D0CDB7DEB7FC
:100640008C0180E289831A8241E050E0BE016F5F35
:100650007F4FC8010E94ED02811103C0C8010E94B2
:10066000AB02C8010F900F90DF91CF911F910F91B6
:100670000895EF92FF920F931F93CF93DF93EC01B6
:100680007B018A01BA010E94C50281110BC0CE0113
:100690000E94AB02CE01DF91CF911F910F91FF908D
:1006A000EF9008951D830C83B701888199810E9482
:1006B000D50BF0CFEF92FF920F931F93CF93DF9361
:1006C000CDB7DEB762970FB6F894DEBF0FBECDBFD1
:1006D0008C01CB01F80111821082138212821582E3
:1006E00014824AE09E012F5F3F4F7901B9010E94B9
:1006F0001F09F70101900020E9F73197AF014E196A
:100700005F09B701C8010E94390362960FB6F894D9
:10071000DEBF0FBECDBFDF91CF911F910F91FF9034
:10072000EF9008951F920F920FB60F9211242F93FE
:100730003F934F935F936F937F938F939F93AF9369
:10074000BF93EF93FF938BEC91E00E946301FF91C5
:10075000EF91BF91AF919F918F917F916F915F9139
:100760004F913F912F910F900FBE0F901F901895B2
:100770001F920F920FB60F9211242F938F939F9376
:10078000EF93FF93E091DB01F091DC018081E09138
:10079000E101F091E20182FD1BC090818091E401B2
:1007A0008F5F8F732091E501821741F0E091E401A2
:1007B000F0E0E553FE4F958F8093E401FF91EF91B8
:1007C0009F918F912F910F900FBE0F901F901895B2
:1007D0008081F4CF1F920F920FB60F9211242F93A6
:1007E0003F938F939F93AF93BF938091C701909155
:1007F000C801A091C901B091CA013091A20123E0C2
:10080000230F2D3758F50196A11DB11D2093A2018C
:100810008093C7019093C801A093C901B093CA0106
:1008200080919E0190919F01A091A001B091A101A2
:100830000196A11DB11D80939E0190939F01A093ED
:10084000A001B093A101BF91AF919F918F913F9172
:100850002F910F900FBE0F901F90189526E8230F31
:100860000296A11DB11DD2CF1F920F920FB60F920B
:1008700011242F933F934F935F936F937F938F93A5
:100880009F93AF93BF93EF93FF93E091A501F091F6
:10089000A601309749F0A685B7858585968D91FF8D
:1008A00014C09C918923A1F4FF91EF91BF91AF9166
:1008B0009F918F917F916F915F914F913F912F9178
:1008C0000F900FBE0F901F9018959C91892361F790
:1008D000A389B4899C918589809589238C93868985
:1008E00097890197F1F7608D718DA685B78555853C
:1008F00038E020E0CB010197F1F7822F90E0959549
:100900008795282F4C91452309F02068315091F7A5
:10091000868D81FD20958091A40190E001968F73D2
:1009200099273091A301381799F0A091A401B0E064
:10093000A25ABE4F2C938093A401828D938D019770
:10094000F1F7A389B4898C919589892B8C93ACCFCD
:10095000868D8160868FF1CF90E0FC01E859FF4FD2
:100960002491FC01E255FF4F3491FC01E656FF4F04
:10097000E491EE23C9F0222339F0233001F1A8F4E9
:10098000213019F1223029F1F0E0EE0FFF1FE0577E
:10099000FF4FA591B4918FB7F894EC91611126C0E7
:1009A00030953E233C938FBF08952730A9F028301F
:1009B000C9F0243049F7809180008F7D03C0809179
:1009C00080008F7780938000DFCF84B58F7784BDE0
:1009D000DBCF84B58F7DFBCF8091B0008F77809384
:1009E000B000D2CF8091B0008F7DF9CF3E2BDACF0F
:1009F0000F931F93CF93DF931092CE011092CD01EE
:100A000088EE93E0A0E0B0E08093CF019093D00116
:100A1000A093D101B093D2012CE031E03093CC010E
:100A20002093CB0125EC30E03093D8012093D701FF
:100A300024EC30E03093DA012093D90120EC30E04F
:100A40003093DC012093DB0121EC30E03093DE01B8
:100A50002093DD0122EC30E03093E0012093DF01B0
:100A600026EC30E03093E2012093E1011092E401A2
:100A70001092E5011092E6011092E70110927102C6
:100A8000109270028093720290937302A09374028A
:100A9000B09375028EE191E090936F0280936E02A5
:100AA00010928502109284021092870210928602A0
:100AB000109289021092880210928B0210928A0280
:100AC00060918C026E7F6D7F60938C026695617081
:100AD00081E0682783E00E94AC0441EB50E0FA011A
:100AE00064918DE990E0FC012491222399F030E09B
:100AF000220F331FF901EA57FF4FA591B491F90175
:100B0000E057FF4F259134912FB7F8943C91632B18
:100B10006C932FBFFA01449140937E02FC018491B3
:100B2000E82FF0E0EE0FFF1FE057FF4F8591949103
:100B30009093800280937F0200EB10E0F8012491F3
:100B4000CCE9D0E0FE0184918823C9F090E0880FC1
:100B5000991FFC01EA57FF4FA591B491FC01E057A2
:100B6000FF4F459154913FB7F8949C91822F809507
:100B700098239C93FA019081892380833FBF8091C1
:100B80008C0281FD04C061E082E00E94AC0482E03E
:100B900080937A02F801049100937B02FE01C491D4
:100BA000EC2FF0E0EE0FFF1FE458FF4F859194917A
:100BB00090937D0280937C021092690210926802E9
:100BC00010926B0210926A0210926D0210926C02E7
:100BD00050E040E06EE271E088E692E0DF91CF9174
:100BE0001F910F910C943903CF93DF93CDB7DEB7EC
:100BF000A0970FB6F894DEBF0FBECDBF789484B532
:100C0000826084BD84B5816084BD85B5826085BD08
:100C100085B5816085BD80916E00816080936E0096
:100C20001092810080918100826080938100809188
:100C30008100816080938100809180008160809339
:100C400080008091B10084608093B1008091B000F9
:100C500081608093B00080917A00846080937A00F4
:100C600080917A00826080937A0080917A0081601E
:100C700080937A0080917A00806880937A00109245
:100C8000C100E091DB01F091DC0182E08083E09122
:100C9000D701F091D8011082E091D901F091DA01E9
:100CA00080E180831092E301E091DF01F091E001A7
:100CB00086E08083E091DD01F091DE01808180613A
:100CC0008083E091DD01F091DE0180818860808386
:100CD000E091DD01F091DE01808180688083E09108
:100CE000DD01F091DE0180818F7D80831092890289
:100CF000109288021092870210928602109285024A
:100D0000109284028FE190E090938B0280938A028C
:100D100090917A02963108F047C021E030E030939C
:100D20008502209384022DE130E0309387022093E6
:100D300086022DE030E030938902209388022091D2
:100D4000680084E0983048F031E09E3008F430E0EC
:100D500081E001C0880F3A95EAF7822B8093680002
:100D60002DE630E0983050F02BE630E09E3030F049
:100D70002CE630E0963110F030E020E03093820233
:100D800020938102292F30E0983008F0ECC181E0F7
:100D900001C0880F9A95EAF78093830280918A02B6
:100DA00090918B020197F1F78091880290918902CE
:100DB000892B49F1E091A501F091A60182E0EE3680
:100DC000F80709F1309739F0A389B4899C91858996
:100DD000809589238C9380918C028E7F80938C02E6
:100DE0001092A4011092A3018EE692E09093A601C6
:100DF0008093A501E0918102F0918202808190911F
:100E00008302892B808385E090E0A0E0B0E08093AE
:100E1000CF019093D001A093D101B093D2018093E0
:100E2000720290937302A0937402B0937502209A99
:100E3000219A229A249A259A239A559A569A579A31
:100E400083EC90E0FC013197F1F7289829982A98D3
:100E50002C982D982B980197F1F74DE250E06FE216
:100E600071E08EE692E00E948D000E94A3028E0146
:100E70000F5F1F4F3BE8E32EFF24F3946624639437
:100E8000712C84E1A82EB12C90E0C92E90E0D92ECF
:100E90008BEC91E00E944301892B09F481C18BEC1A
:100EA00091E00E94C9008093C601803509F472C1A7
:100EB0009091C501903509F07FC1833009F07CC164
:100EC00050E040E06EE271E088E692E00E94390373
:100ED0008BEC91E00E944301892BD1F38BEC91E0E4
:100EE0000E94C900069709F04FC168E070E08BEBE3
:100EF00091E00E94DD002091BB013091BC013227BE
:100F0000232732273093BA012093B9018090B7018B
:100F10009090B8018091BD019091BE0198278927DA
:100F20009827881999099093B6018093B50197FF86
:100F300003C091958195910966E070E00E94BC091B
:100F4000FB016B35710514F0EAE5F0E0F093B401B4
:100F5000E093B301C90137FF03C0919581959109D1
:100F6000B5010E94BC096E177F070CF4BF01709396
:100F7000B2016093B101B401CE014B960E945A03B5
:100F80006091B5017091B6018091B7019091B8015F
:100F9000681B790BCE010F960E945A031E8A1D8A88
:100FA000188E1F8A1A8E198E6F85788961157105C2
:100FB00031F04B895C89CE0145960E943903CE0100
:100FC00045960E9419034C014F8D58A16B8D7C8D65
:100FD0000E94ED02811103C0C4010E94AB02C40152
:100FE0000E9419034C012AE0A80166E070E080E04D
:100FF00090E00E942A09F80101900020E9F731975A
:10100000AF01401B510BB801C4010E94ED028111D8
:1010100003C0C4010E94AB02C4010E941903FC0179
:10102000448155816081718188E692E00E94ED02E1
:10103000CE0145960E94BD02CE010F960E94BD02D0
:10104000CE014B960E94BD028091B5019091B601F0
:1010500061E070E01816190614F06FEF7FEFCE0113
:1010600045960E945A036091B3017091B401C80182
:101070000E945A03188A1F861A8A198A1C8A1B8A98
:1010800069817A816115710531F04D815E81CE01F2
:101090000F960E943903CE010F960E9419034C014E
:1010A000498D5A8D6D897E890E94ED02811103C0A0
:1010B000C4010E94AB02F4014481558160817181B9
:1010C00088E692E00E94ED02CE010F960E94BD02DA
:1010D000C8010E94BD02CE0145960E94BD0240910A
:1010E0006C0250916D0260916802709169028EE607
:1010F00092E00E948D000E94A302809100019091D5
:101100000101892B09F446C08091B1019091B2018F
:1011100045970CF43FC08091B9019091BA0197FFB7
:101120002FC0299A8091B5019091B60197FF2AC0EE
:101130002D9A90E080E02091B1013091B2018217A8
:10114000930744F52091B3013091B4012817390772
:101150000CF02C9AF7013197F1F72C98F7013197A1
:10116000F1F70196E8CF9E3040F42850310981E034
:1011700001C0880F2A95EAF70FCE2E503109F7CF1C
:101180002998D0CF2D98D5CF65E070E087EA91E01F
:101190000E94DD008091C6018093C5015E985F9832
:1011A000C114D10409F474CE0E944F01882309F4BC
:1011B00068CE0E94000062CE853561F766E070E07F
:1011C00087EA91E00E94DD008091A701813029F437
:1011D0007092010160920001DDCF823029F41092FB
:1011E000010110920001D6CF8630A1F68091AA01AC
:1011F0009091AB019093B8018093B701CBCF88E673
:1012000092E00E94BD028EE191E090936F02809384
:101210006E028091A5019091A6018E56924071F4C4
:10122000E0918102F0918202908180918302809509
:10123000892380831092A6011092A5010895BB27EF
:101240004A3031F4992322F4BDE2909581959F4F65
:101250000C945C09BB272A3051F4992342F4BDE277
:1012600090958095709561957F4F8F4F9F4F0C940F
:101270003A09BB27FA01A62F62177105810591056E
:10128000330B30FB66F0AA27660F771F881F991F64
:10129000AA1FA21710F0A21B63953850A9F7A05DF2
:1012A000AA3308F0A95DA19336F7B111B19310826A
:1012B000CA010C947509BB27FB015527AA27880F83
:1012C000991FAA1FA41710F0A41B83955051B9F7BA
:1012D000A05DAA3308F0A95DA193009779F7B11139
:1012E000B1931192CB010C947509DC01FC01672FBD
:1012F00071917723E1F7329704C07C916D937083ED
:101300006291AE17BF07C8F308952F923F924F9294
:101310005F926F927F928F929F92AF92BF92CF9285
:10132000DF92EF92FF920F931F93CF93DF93CDB78E
:10133000DEB7CA1BDB0B0FB6F894DEBF0FBECDBF06
:1013400009942A88398848885F846E847D848C84D7
:101350009B84AA84B984C884DF80EE80FD800C81E0
:101360001B81AA81B981CE0FD11D0FB6F894DEBFC3
:101370000FBECDBFED01089597FB072E16F4009424
:1013800007D077FD09D00E94D00907FC05D03EF4B4
:10139000909581959F4F0895709561957F4F089521
:1013A000AA1BBB1B51E107C0AA1FBB1FA617B7078B
:1013B00010F0A61BB70B881F991F5A95A9F78095A7
:1013C0009095BC01CD010895EE0FFF1F0590F4919B
:1013D000E02D09940F931F93CF93DF9382309105F3
:1013E00010F482E090E0E0918F02F091900230E002
:1013F00020E0B0E0A0E0309799F42115310509F420
:101400004AC0281B390B24303105D8F58A819B81CD
:101410006115710589F1FB0193838283FE0111C07F
:10142000408151810281138148175907E0F0481724
:10143000590799F4109761F012960C93129713962E
:101440001C933296CF01DF91CF911F910F91089598
:1014500000938F0210939002F4CF2115310551F0C3
:101460004217530738F0A901DB019A01BD01DF01E2
:10147000F801C1CFEF01F9CF9093900280938F02D2
:10148000CDCFFE01E20FF31F8193919322503109DA
:1014900039832883D7CF20918D0230918E02232B60
:1014A00041F4209104013091050130938E02209384
:1014B0008D0220910201309103012115310541F483
:1014C0002DB73EB74091060150910701241B350B03
:1014D000E0918D02F0918E02E217F307A0F42E1B2B
:1014E0003F0B2817390778F0AC014E5F5F4F241788
:1014F000350748F04E0F5F1F50938E0240938D02C8
:10150000819391939FCFF0E0E0E09CCFCF93DF9366
:101510000097E9F0FC01329713821282A0918F02AA
:10152000B0919002ED0130E020E01097A1F420810D
:101530003181820F931F20918D0230918E022817E6
:10154000390709F061C0F0938E02E0938D02DF91BC
:10155000CF910895EA01CE17DF07E8F54A815B8154
:101560009E0141155105B1F7E901FB83EA834991D9
:101570005991C40FD51FEC17FD0761F4808191814B
:101580000296840F951FE901998388838281938154
:101590009B838A83F0E0E0E012968D919C911397F3
:1015A0000097B9F52D913C911197CD010296820FCC
:1015B000931F20918D0230918E022817390739F63A
:1015C000309751F51092900210928F02B0938E02D4
:1015D000A0938D02BCCFD383C28340815181840FFD
:1015E000951FC817D90761F44E5F5F4F88819981B5
:1015F000480F591F518340838A819B819383828343
:101600002115310509F0B0CFF0939002E0938F02DD
:101610009ECFFD01DC01C0CF13821282D7CFB0E094
:10162000A0E0E5E1FBE00C9487098C01009751F400
:10163000CB010E94EA098C01C801CDB7DEB7E0E119
:101640000C94A309FC01E60FF71F9C0122503109FD
:10165000E217F30708F49DC0D901CD91DC911197F1
:10166000C617D70798F0C530D10530F3CE010497DF
:101670008617970708F3C61BD70B2297C193D19300
:101680006D937C93CF010E94860AD6CF5B01AC1A82
:10169000BD0A4C018C0E9D1EA0918F02B09190024C
:1016A000512C412CF12CE12C109731F580918D02B9
:1016B00090918E028815990509F05CC04616570670
:1016C00008F058C08091020190910301009741F405
:1016D0008DB79EB74091060150910701841B950B71
:1016E000E817F90708F055C0F0938E02E0938D02D9
:1016F000F90171836083A0CF8D919C91119712960F
:101700006C90129713967C901397A815B90559F50C
:101710006C0142E0C40ED11CCA14DB0420F1AC0100
:101720004A195B09DA011296159780F0628273827A
:1017300051834083D9016D937C93E114F10471F0DE
:10174000D7011396FC93EE93129776CF22968C0FC7
:101750009D1FF90191838083F301EFCFF0939002F5
:10176000E0938F0269CF4816590608F42C017D01D9
:10177000D3019ACFCB010E94EA097C01009749F07E
:10178000AE01B8010E94CC0BC8010E94860A8701F5
:1017900053CF10E000E050CFFB01DC0102C001900C
:1017A0000D9241505040D8F70895FB01DC010190A3
:1017B0000D920020E1F7089510E0C2E6D0E004C0E9
:1017C000FE010E94E4092196C336D107C9F7F894B7
:0217D000FFCF49
:1017D20001000000910280000000000085018D00E0
:1017E200BA00D2014301C9003501000000000B021A
:1017F2008D00A0020A0267027F02F2010D0A005068
:101802006F7374696F6E5920416E676C6559206FF2
:1018120066737365745920544F535450206E756D1E
:0E182200737470592064697265637459000014
:00000001FF
