:020000040000FA
:100000000C9463000C948B000C948B000C944704AC
:100010000C9447040C9447040C948B000C948B00B4
:100020000C948B000C948B000C948B000C948B0024
:100030000C948B000C948B000C948B000C948B0014
:100040000C94FD030C948B000C94CB030C94A5032F
:100050000C948B000C948B000C948B000C948B00F4
:100060000C948B000C948B0000000008000201002F
:100070000003040700000000000000000000000072
:1000800023002600290000000000240027002A0089
:1000900000000000250028002B00040404040404D0
:1000A0000404020202020202030303030303010227
:1000B00004081020408001020408102001020408F6
:1000C00010200B05280911241FBECFEFD8E0DEBF9A
:1000D000CDBF22E0AEE5B1E001C01D92A539B20767
:1000E000E1F711E0A0E0B1E0E4E2F8E102C0059040
:1000F0000D92AE35B107D9F710E0C2E6D0E004C0EA
:100100002197FE010E940D0AC136D107C9F70E944E
:1001100007060C94050C0C940000AF92BF92CF928E
:10012000DF92EF92FF920F931F93CF93DF936C01B7
:100130007B018B01040F151FEB015E01AE18BF0898
:10014000C017D10759F06991D601ED91FC9101904A
:10015000F081E02DC6010995892B79F7C501DF9162
:10016000CF911F910F91FF90EF90DF90CF90BF90B4
:10017000AF900895FC01538D448D252F30E0842FDE
:1001800090E0821B930B541710F0CF9608950197BF
:100190000895FC01918D828D981761F0A28DAE0FAC
:1001A000BF2FB11D5D968C91928D9F5F9F73928F33
:1001B00090E008958FEF9FEF0895EF92FF920F93D5
:1001C0001F93CF93DF937B018C01D0E0C0E02FB76A
:1001D000F8948091CB019091CC01A091CD01B09188
:1001E000CE012FBF8093D7019093D801A093D9015E
:1001F000B093DA018FEC91E00E94C90097FF2CC008
:100200002FB7F8948091CB019091CC01A091CD01B2
:10021000B091CE012FBF4091D7015091D80160918C
:10022000D9017091DA01841B950BA60BB70B409195
:10023000D3015091D4016091D5017091D6018417FA
:100240009507A607B707B0F2CE01DF91CF911F91B6
:100250000F91FF90EF900895F80181938F012196FF
:10026000EC16FD0609F0B3CFEFCFFC01918D828D26
:10027000981731F0828DE80FF11D858D90E008957B
:100280008FEF9FEF0895FC01918D228D892F90E0D3
:10029000805C9F4F821B91098F73992708958FEC83
:1002A00091E00E94430121E0892B09F420E0822F94
:1002B000089580E090E0892B29F00E944F01811180
:1002C0000C9400000895FC01A48DA80FB92FB11D56
:1002D000A35ABF4F2C91848D90E001968F7399277C
:1002E000848FA689B7892C93A089B1898C9183705A
:1002F00080648C93938D848D981306C00288F38953
:10030000E02D80818F7D80830895EF92FF920F937F
:100310001F93CF93DF93EC0181E0888F9B8D8C8DB1
:1003200098131AC0E889F989808185FF15C09FB7A5
:10033000F894EE89FF896083E889F9898081837068
:10034000806480839FBF81E090E0DF91CF911F9117
:100350000F91FF90EF900895F62E0B8D10E00F5F38
:100360001F4F0F731127E02E8C8D8E110CC00FB60E
:1003700007FCFACFE889F989808185FFF5CFCE01A6
:100380000E946301F1CFEB8DEC0FFD2FF11DE35ABD
:10039000FF4FF0829FB7F8940B8FEA89FB89808129
:1003A0008062CFCFCF93DF93EC01888D8823B9F0A3
:1003B000AA89BB89E889F9898C9185FD03C0808170
:1003C00086FD0DC00FB607FCF7CF8C9185FFF2CFED
:1003D000808185FFEDCFCE010E946301E9CFDF91DF
:1003E000CF9108952091A5013091A60128173907D2
:1003F00071F49091A3018091A401981741F0E091CC
:10040000A301F0E0E25AFE4F808190E008958FEF63
:100410009FEF08950895EF92FF920F931F93CF934C
:10042000DF93DC015C96ED90FC905D97E114F104A4
:1004300079F481E090E013969C938E93129790E06C
:1004400080E0DF91CF911F910F91FF90EF90089581
:100450005196ED91FC91529750968C915097982F10
:1004600090950FB75E962C915E97122F127021FD1A
:100470006095F8942081112319F1282B2083E7013E
:100480002197F1F728E0462F50E0308160FF1AC035
:10049000382B3083E7012197F1F7BA0175956795FD
:1004A000215089F7112381F08081892380830FBF38
:1004B0005C968D919C910197F1F781E090E0C1CF1E
:1004C0002923DCCF3923E5CF9081892BEFCF2091F1
:1004D000A5013091A6012817390771F48091A40174
:1004E0002091A30190E0805C9F4F821B910960E402
:1004F00070E00E94E509089590E080E00895209161
:10050000A5013091A60128173907B9F49091A301EC
:100510008091A401981789F0E091A301F0E0E25ADC
:10052000FE4F80812091A30130E02F5F3F4F2F735A
:1005300033272093A30190E008958FEF9FEF089554
:1005400090E080E0089542E050E06CE271E082E7E4
:1005500092E00C948D00CF93DF93EC018881998118
:10056000009711F00E94AF0A198218821D821C8226
:100570001B821A82DF91CF910895FC0180819181C5
:10058000009711F00C94AF0A08950F931F93CF9327
:10059000DF93EC0188819981009759F02A813B8192
:1005A0002617370730F081E0DF91CF911F910F912F
:1005B00008958B016F5F7F4F0E94380B009759F0B1
:1005C000998388831B830A832C813D81232B59F7D0
:1005D000FC011082E8CF80E0E7CFEF92FF920F930B
:1005E0001F93CF93DF936115710541F480E0DF9194
:1005F000CF911F910F91FF90EF90089541155105F4
:10060000B1F07B01EC010C811D81040F151FB801B5
:100610000E94C502882351F3288139818C819D81F4
:10062000B701820F931F0E94FE0B1D830C8381E094
:10063000DECF0F931F93CF93DF9300D0CDB7DEB7FC
:100640008C0180E289831A8241E050E0BE016F5F35
:100650007F4FC8010E94ED02811103C0C8010E94B2
:10066000AB02C8010F900F90DF91CF911F910F91B6
:100670000895CF93DF93EC01FB01448155816081A4
:1006800071810E94ED02811103C0CE010E94AB0274
:10069000CE01DF91CF910895EF92FF920F931F93B8
:1006A000CF93DF93EC017B018A01BA010E94C5025E
:1006B00081110BC0CE010E94AB02CE01DF91CF9120
:1006C0001F910F91FF90EF9008951D830C83B70148
:1006D000888199810E94FE0BF0CFEF92FF920F93D9
:1006E0001F93CF93DF93CDB7DEB762970FB6F89421
:1006F000DEBF0FBECDBF8C01CB01F801118210828D
:1007000013821282158214824AE09E012F5F3F4FAE
:100710007901B9010E944809F70101900020E9F729
:100720003197AF014E195F09B701C8010E944C0310
:1007300062960FB6F894DEBF0FBECDBFDF91CF91AA
:100740001F910F91FF90EF9008951F920F920FB697
:100750000F9211242F933F934F935F936F937F9347
:100760008F939F93AF93BF93EF93FF938FEC91E0A1
:100770000E946301FF91EF91BF91AF919F918F9183
:100780007F916F915F914F913F912F910F900FBE8D
:100790000F901F9018951F920F920FB60F92112471
:1007A0002F938F939F93EF93FF93E091DF01F0914D
:1007B000E0018081E091E501F091E60182FD1BC03E
:1007C00090818091E8018F5F8F732091E9018217FA
:1007D00041F0E091E801F0E0E153FE4F958F809306
:1007E000E801FF91EF919F918F912F910F900FBE94
:1007F0000F901F9018958081F4CF1F920F920FB623
:100800000F9211242F933F938F939F93AF93BF9396
:100810008091CB019091CC01A091CD01B091CE01FE
:100820003091A20123E0230F2D3758F50196A11D29
:10083000B11D2093A2018093CB019093CC01A09392
:10084000CD01B093CE0180919E0190919F01A09126
:10085000A001B091A1010196A11DB11D80939E013F
:1008600090939F01A093A001B093A101BF91AF917C
:100870009F918F913F912F910F900FBE0F901F90DE
:10088000189526E8230F0296A11DB11DD2CF1F9205
:100890000F920FB60F9211242F933F934F935F93B4
:1008A0006F937F938F939F93AF93BF93EF93FF9338
:1008B000E091A501F091A601309749F0A685B78592
:1008C0008585968D91FF14C09C918923A1F4FF9199
:1008D000EF91BF91AF919F918F917F916F915F91B8
:1008E0004F913F912F910F900FBE0F901F90189531
:1008F0009C91892361F7A389B4899C91858980950E
:1009000089238C93868997890197F1F7608D718D82
:10091000A685B785558538E020E0CB010197F1F732
:10092000822F90E095958795282F4C91452309F0CB
:100930002068315091F7868D81FD20958091A4012A
:1009400090E001968F7399273091A301381799F0A1
:10095000A091A401B0E0A25ABE4F2C938093A401B1
:10096000828D938D0197F1F7A389B4898C91958934
:10097000892B8C93ACCF868D8160868FF1CF90E0F0
:10098000FC01E859FF4F2491FC01E255FF4F3491DF
:10099000FC01E656FF4FE491EE23C9F0222339F023
:1009A000233001F1A8F4213019F1223029F1F0E0CF
:1009B000EE0FFF1FE057FF4FA591B4918FB7F8944A
:1009C000EC91611126C030953E233C938FBF089572
:1009D0002730A9F02830C9F0243049F780918000F1
:1009E0008F7D03C0809180008F7780938000DFCF60
:1009F00084B58F7784BDDBCF84B58F7DFBCF8091AD
:100A0000B0008F778093B000D2CF8091B0008F7DFF
:100A1000F9CF3E2BDACF0F931F93CF93DF93109232
:100A2000D2011092D10188EE93E0A0E0B0E0809373
:100A3000D3019093D401A093D501B093D6012CE0BB
:100A400031E03093D0012093CF0125EC30E030939A
:100A5000DC012093DB0124EC30E03093DE012093B5
:100A6000DD0120EC30E03093E0012093DF0121EC48
:100A700030E03093E2012093E10122EC30E030934A
:100A8000E4012093E30126EC30E03093E60120936B
:100A9000E5011092E8011092E9011092EA0110922A
:100AA000EB0110927502109274028093760290937B
:100AB0007702A0937802B09379028EE191E090934F
:100AC000730280937202109289021092880210922F
:100AD0008B0210928A0210928D0210928C02109258
:100AE0008F0210928E02609190026E7F6D7F6093F4
:100AF00090026695617081E0682783E00E94BF04E0
:100B000041EB50E0FA0164918DE990E0FC01249101
:100B1000222399F030E0220F331FF901EA57FF4FEB
:100B2000A591B491F901E057FF4F259134912FB76A
:100B3000F8943C91632B6C932FBFFA01449140933E
:100B40008202FC018491E82FF0E0EE0FFF1FE057D6
:100B5000FF4F85919491909384028093830200EBE0
:100B600010E0F8012491CCE9D0E0FE0184918823C3
:100B7000C9F090E0880F991FFC01EA57FF4FA5913B
:100B8000B491FC01E057FF4F459154913FB7F89461
:100B90009C91822F809598239C93FA0190818923C0
:100BA00080833FBF8091900281FD04C061E082E0BC
:100BB0000E94BF0482E080937E02F80104910093BA
:100BC0007F02FE01C491EC2FF0E0EE0FFF1FE4580E
:100BD000FF4F8591949190938102809380021092AF
:100BE0006D0210926C0210926F0210926E021092BF
:100BF00071021092700250E040E06EE271E08CE60B
:100C000092E0DF91CF911F910F910C944C03CF9301
:100C1000DF93CDB7DEB7A6970FB6F894DEBF0FBE51
:100C2000CDBF789484B5826084BD84B5816084BD75
:100C300085B5826085BD85B5816085BD80916E007A
:100C4000816080936E0010928100809181008260AB
:100C500080938100809181008160809381008091E8
:100C600080008160809380008091B10084608093D7
:100C7000B1008091B00081608093B00080917A00D3
:100C8000846080937A0080917A00826080937A00F9
:100C900080917A00816080937A0080917A008068E8
:100CA00080937A001092C100E091DF01F091E001A1
:100CB00082E08083E091DB01F091DC011082E09121
:100CC000DD01F091DE0180E180831092E701E09187
:100CD000E301F091E40186E08083E091E101F0918D
:100CE000E201808180618083E091E101F091E20185
:100CF000808188608083E091E101F091E201808150
:100D000080688083E091E101F091E20180818F7D34
:100D1000808310928D0210928C0210928B0210929E
:100D20008A0210928902109288028FE190E09093DB
:100D30008F0280938E0290917E02963108F047C018
:100D400021E030E030938902209388022DE130E0E9
:100D500030938B0220938A022DE030E030938D0295
:100D600020938C022091680084E0983048F031E0B4
:100D70009E3008F430E081E001C0880F3A95EAF730
:100D8000822B809368002DE630E0983050F02BE6FF
:100D900030E09E3030F02CE630E0963110F030E05C
:100DA00020E03093860220938502292F30E098308E
:100DB00008F0FAC181E001C0880F9A95EAF78093A4
:100DC000870280918E0290918F020197F1F78091B6
:100DD0008C0290918D02892B49F1E091A501F0914F
:100DE000A60182E0E237F80709F1309739F0A389CC
:100DF000B4899C918589809589238C9380919002F8
:100E00008E7F809390021092A4011092A30182E73A
:100E100092E09093A6018093A501E0918502F09164
:100E20008602808190918702892B808385E090E003
:100E3000A0E0B0E08093D3019093D401A093D501BA
:100E4000B093D6018093760290937702A0937802B4
:100E5000B0937902209A219A229A249A259A239A69
:100E6000559A569A579A83EC90E0FC013197F1F726
:100E7000289829982A982C982D982B980197F1F763
:100E80004DE250E06FE271E082E792E00E948D0057
:100E90000E94A3023BE8E32EFF24F3948E010F5F30
:100EA0001F4FCC24C394D12C94E1A92EB12C20E067
:100EB000622E20E0722E8FEC91E00E944301892B7C
:100EC00009F48FC18FEC91E00E94C9008093CA01A0
:100ED000803509F480C19091C901903509F08DC128
:100EE000833009F08AC150E040E06EE271E08CE6A8
:100EF00092E00E944C038FEC91E00E944301892B09
:100F0000D1F38FEC91E00E94C900069709F05DC112
:100F100068E070E08FEB91E00E94DD002091BF015E
:100F20003091C0013227232732273093BE0120930E
:100F3000BD018090BB019090BC018091C101909156
:100F4000C201982789279827881999099093BA018F
:100F50008093B90197FF03C091958195910966E04F
:100F600070E00E94E509FB016135710514F0E0E5D0
:100F7000F0E0F093B801E093B701C90137FF03C077
:100F8000919581959109B5010E94E5096E177F073A
:100F90000CF4BF017093B6016093B501B401CE01AA
:100FA00081960E946D036091B9017091BA018091A0
:100FB000BB019091BC01681B790BCE014B960E943E
:100FC0006D036091B3017091B401CE010F960E9440
:100FD0006D031E8A1D8A188E1F8A1A8E198E6F85C0
:100FE00078896115710531F04B895C89CE01459690
:100FF0000E944C03CE0145960E941903BE01655E16
:101000007F4F0E9439030E941903BE016F5D7F4F1D
:101010000E9439030E9419034C012AE0A80166E0EE
:1010200070E080E090E00E945309F80101900020F8
:10103000E9F73197AF01401B510BB801C4010E9481
:10104000ED02811103C0C4010E94AB02C4010E94E1
:101050001903FC0144815581608171818CE692E025
:101060000E94ED02CE0145960E94BD02CE010F9670
:101070000E94BD02CE014B960E94BD02CE01819618
:101080000E94BD028091B9019091BA0161E070E0C7
:101090001816190614F06FEF7FEFCE0145960E94E7
:1010A0006D036091B7017091B801C8010E946D0392
:1010B000188A1F861A8A198A1C8A1B8A69817A8172
:1010C0006115710531F04D815E81CE010F960E9450
:1010D0004C03CE010F960E941903BE016B5E7F4F39
:1010E0000E943903FC0144815581608171818CE645
:1010F00092E00E94ED02CE010F960E94BD02C8014F
:101100000E94BD02CE0145960E94BD024091700230
:101110005091710260916C0270916D0282E792E0D1
:101120000E948D000E94A302809100019091010114
:10113000892B09F450C08091B5019091B601459773
:101140000CF449C02091BD013091BE018091B101E4
:101150009091B201820F931F9093B4018093B301D9
:1011600037FF2FC0299A8091B9019091BA0197FF5A
:101170002AC02D9A90E080E02091B5013091B6010F
:101180008217930744F52091B7013091B8012817D1
:1011900039070CF02C9AF7013197F1F72C98F701E9
:1011A0003197F1F70196E8CF9E3040F4285031098D
:1011B00081E001C0880F2A95EAF701CE2E5031094F
:1011C000F7CF2998D0CF2D98D5CF65E070E087EA8A
:1011D00091E00E94DD008091CA018093C9015E9870
:1011E0005F986114710409F466CE0E944F01882350
:1011F00009F457CE0E94000051CE853561F766E0B4
:1012000070E087EA91E00E94DD008091A7018130C3
:1012100029F4D0920101C0920001DDCF823029F47F
:101220001092010110920001D6CF8630A1F6809174
:10123000A8019091A9019093B2018093B10180918E
:10124000AA019091AB019093BC018093BB01C3CFE5
:101250008CE692E00E94BD028EE191E090937302D1
:10126000809372028091A5019091A60182579240CD
:1012700071F4E0918502F09186029081809187025D
:101280008095892380831092A6011092A50108956C
:10129000BB274A3031F4992322F4BDE29095819521
:1012A0009F4F0C948509BB272A3051F4992342F4AF
:1012B000BDE290958095709561957F4F8F4F9F4FC0
:1012C0000C946309BB27FA01A62F621771058105EB
:1012D0009105330B30FB66F0AA27660F771F881F36
:1012E000991FAA1FA21710F0A21B63953850A9F7E7
:1012F000A05DAA3308F0A95DA19336F7B111B193AF
:101300001082CA010C949E09BB27FB015527AA270E
:10131000880F991FAA1FA41710F0A41B8395505182
:10132000B9F7A05DAA3308F0A95DA193009779F7FA
:10133000B111B1931192CB010C949E09DC01FC0117
:10134000672F71917723E1F7329704C07C916D93F9
:1013500070836291AE17BF07C8F308952F923F9232
:101360004F925F926F927F928F929F92AF92BF92B5
:10137000CF92DF92EF92FF920F931F93CF93DF9361
:10138000CDB7DEB7CA1BDB0B0FB6F894DEBF0FBEBE
:10139000CDBF09942A88398848885F846E847D840B
:1013A0008C849B84AA84B984C884DF80EE80FD800D
:1013B0000C811B81AA81B981CE0FD11D0FB6F89483
:1013C000DEBF0FBECDBFED01089597FB072E16F4CB
:1013D000009407D077FD09D00E94F90907FC05D0D9
:1013E0003EF4909581959F4F0895709561957F4F3C
:1013F0000895AA1BBB1B51E107C0AA1FBB1FA6175C
:10140000B70710F0A61BB70B881F991F5A95A9F7AD
:1014100080959095BC01CD010895EE0FFF1F0590BA
:10142000F491E02D09940F931F93CF93DF938230B3
:10143000910510F482E090E0E0919302F091940223
:1014400030E020E0B0E0A0E0309799F421153105BC
:1014500009F44AC0281B390B24303105D8F58A819C
:101460009B816115710589F1FB0193838283FE01E4
:1014700011C0408151810281138148175907E0F062
:101480004817590799F4109761F012960C93129728
:1014900013961C933296CF01DF91CF911F910F913C
:1014A00008950093930210939402F4CF211531050F
:1014B00051F04217530738F0A901DB019A01BD0131
:1014C000DF01F801C1CFEF01F9CF9093940280932F
:1014D0009302CDCFFE01E20FF31F8193919322502F
:1014E000310939832883D7CF20919102309192021C
:1014F000232B41F420910401309105013093920295
:1015000020939102209102013091030121153105B0
:1015100041F42DB73EB74091060150910701241BBD
:10152000350BE0919102F0919202E217F307A0F4DB
:101530002E1B3F0B2817390778F0AC014E5F5F4F29
:101540002417350748F04E0F5F1F509392024093C7
:101550009102819391939FCFF0E0E0E09CCFCF93F5
:10156000DF930097E9F0FC01329713821282A09179
:101570009302B0919402ED0130E020E01097A1F4C5
:1015800020813181820F931F20919102309192022C
:101590002817390709F061C0F0939202E093910295
:1015A000DF91CF910895EA01CE17DF07E8F54A8170
:1015B0005B819E0141155105B1F7E901FB83EA8387
:1015C00049915991C40FD51FEC17FD0761F4808133
:1015D00091810296840F951FE90199838883828106
:1015E00093819B838A83F0E0E0E012968D919C9139
:1015F00013970097B9F52D913C911197CD01029663
:10160000820F931F2091910230919202281739077F
:1016100039F6309751F51092940210929302B093DC
:101620009202A0939102BCCFD383C28340815181A7
:10163000840F951FC817D90761F44E5F5F4F8881EB
:101640009981480F591F518340838A819B819383DD
:1016500082832115310509F0B0CFF0939402E09315
:1016600093029ECFFD01DC01C0CF13821282D7CF3F
:10167000B0E0A0E0EEE3FBE00C94B0098C01009731
:1016800051F4CB010E94130A8C01C801CDB7DEB71B
:10169000E0E10C94CC09FC01E60FF71F9C012250FD
:1016A0003109E217F30708F49DC0D901CD91DC910F
:1016B0001197C617D70798F0C530D10530F3CE0182
:1016C00004978617970708F3C61BD70B2297C19379
:1016D000D1936D937C93CF010E94AF0AD6CF5B016B
:1016E000AC1ABD0A4C018C0E9D1EA0919302B091C4
:1016F0009402512C412CF12CE12C109731F5809162
:101700009102909192028815990509F05CC04616E5
:10171000570608F058C0809102019091030100978C
:1017200041F48DB79EB74091060150910701841B8B
:10173000950BE817F90708F055C0F0939202E09373
:101740009102F90171836083A0CF8D919C911197D3
:1017500012966C90129713967C901397A815B90562
:1017600059F56C0142E0C40ED11CCA14DB0420F10F
:10177000AC014A195B09DA011296159780F0628272
:10178000738251834083D9016D937C93E114F104FA
:1017900071F0D7011396FC93EE93129776CF2296B1
:1017A0008C0F9D1FF90191838083F301EFCFF0939C
:1017B0009402E093930269CF4816590608F42C016D
:1017C0007D01D3019ACFCB010E94130A7C010097BF
:1017D00049F0AE01B8010E94F50BC8010E94AF0AA2
:1017E000870153CF10E000E050CFFB01DC0102C0C5
:1017F00001900D9241505040D8F70895FB01DC0153
:1018000001900D920020E1F7089510E0C2E6D0E0CB
:1018100004C0FE010E940D0A2196C336D107C9F704
:10182000F894FFCF01000000950280000000000046
:1018300085018D00BA00D2014301C90035010000C5
:1018400000000B028D00A0020A0267027F02F20173
:101850000D0A00506F7374696F6E5920416E676C8A
:101860006559206F66737365745920544F535450F3
:10187000206E756D73747059206469726563745954
:02188000000066
:107E0000112484B714BE81FFF0D085E080938100F7
:107E100082E08093C00088E18093C10086E0809377
:107E2000C20080E18093C4008EE0C9D0259A86E02C
:107E300020E33CEF91E0309385002093840096BBD3
:107E4000B09BFECF1D9AA8958150A9F7CC24DD24C4
:107E500088248394B5E0AB2EA1E19A2EF3E0BF2EE7
:107E6000A2D0813461F49FD0082FAFD0023811F036
:107E7000013811F484E001C083E08DD089C08234E0
:107E800011F484E103C0853419F485E0A6D080C0E4
:107E9000853579F488D0E82EFF2485D0082F10E0AE
:107EA000102F00270E291F29000F111F8ED06801E7
:107EB0006FC0863521F484E090D080E0DECF843638
:107EC00009F040C070D06FD0082F6DD080E0C81688
:107ED00080E7D80618F4F601B7BEE895C0E0D1E017
:107EE00062D089930C17E1F7F0E0CF16F0E7DF06D8
:107EF00018F0F601B7BEE89568D007B600FCFDCFD4
:107F0000A601A0E0B1E02C9130E011968C91119780
:107F100090E0982F8827822B932B1296FA010C0160
:107F200087BEE89511244E5F5F4FF1E0A038BF0790
:107F300051F7F601A7BEE89507B600FCFDCF97BE46
:107F4000E89526C08437B1F42ED02DD0F82E2BD052
:107F50003CD0F601EF2C8F010F5F1F4F84911BD097
:107F6000EA94F801C1F70894C11CD11CFA94CF0C13
:107F7000D11C0EC0853739F428D08EE10CD085E9AC
:107F80000AD08FE07ACF813511F488E018D01DD067
:107F900080E101D065CF982F8091C00085FFFCCF94
:107FA0009093C60008958091C00087FFFCCF809118
:107FB000C00084FD01C0A8958091C6000895E0E648
:107FC000F0E098E1908380830895EDDF803219F02E
:107FD00088E0F5DFFFCF84E1DECF1F93182FE3DFCA
:107FE0001150E9F7F2DF1F91089580E0E8DFEE27F6
:047FF000FF270994CA
:027FFE00040479
:00000001FF
