:100000000C94E0000C9408010C9408010C948D05EC
:100010000C948D050C948D050C9408010C9408012A
:100020000C9408010C9408010C9408010C9408012C
:100030000C9408010C9408010C9408010C9408011C
:100040000C9443050C9408010C9411050C94EB04DA
:100050000C9408010C9408010C9408010C940801FC
:100060000C9408010C94080100407A10F35A00A087
:10007000724E18090010A5D4E80000E87648170071
:1000800000E40B54020000CA9A3B000000E1F505B1
:10009000000080969800000040420F000000A086FB
:1000A00001000000102700000000E803000000002D
:1000B0006400000000000A000000000001000000D1
:1000C00000002C76D888DC674F0823DFC1DFAE59EB
:1000D000E1B1B796E5E3E453C63AE651997696E87E
:1000E000E6C28426EB898C9B62ED407C6FFCEFBC02
:1000F0009C9F40F2BAA56FA5F490055A2AF75C932D
:100100006B6CF9676DC11BFCE0E40D47FEF520E662
:10011000B500D0ED902E0300943577050080841E45
:10012000080000204E0A000000C80C333333330FA0
:10013000986E12831141EF8D2114893BE65516CF3D
:10014000FEE6DB18D1844B381BF77C1D901DA4BB49
:10015000E424203284725E228100C9F124ECA1E5FE
:100160003D2700000000240027002A0000000008AE
:10017000000201000003040700000000000000006E
:1001800000000000230026002900000000002500D8
:1001900028002B00040404040404040402020202E4
:1001A000020203030303030301020408102040803A
:1001B00001020408102001020408102033061F0D5C
:1001C00011241FBECFEFD8E0DEBFCDBF22E0A4E9EF
:1001D000B1E001C01D92A53FB207E1F711E0A0E038
:1001E000B1E0E0E2F7E202C005900D92A439B10758
:1001F000D9F710E0CFEDD0E004C02197FE010E94B6
:100200008B11CE3DD107C9F70E94DE060C948313F3
:100210000C940000AF92BF92CF92DF92EF92FF92C8
:100220000F931F93CF93DF936C017B018B01040F1E
:10023000151FEB015E01AE18BF08C017D10759F0BA
:100240006991D601ED91FC910190F081E02DC601FC
:100250000995892B79F7C501DF91CF911F910F91F6
:10026000FF90EF90DF90CF90BF90AF900895FC018A
:10027000538D448D252F30E0842F90E0821B930B0B
:10028000541710F0CF96089501970895FC01918DB1
:10029000828D981761F0A28DAE0FBF2FB11D5D96B4
:1002A0008C91928D9F5F9F73928F90E008958FEF56
:1002B0009FEF0895FC01918D828D981731F0828D0A
:1002C000E80FF11D858D90E008958FEF9FEF089561
:1002D000FC01918D228D892F90E0805C9F4F821BC5
:1002E00091098F739927089585E392E00E94680130
:1002F00021E0892B09F420E0822F089580E090E02E
:10030000892B29F00E94740181110C94000008953A
:10031000FC01A48DA80FB92FB11DA35ABF4F2C917A
:10032000848D90E001968F739927848FA689B78971
:100330002C93A089B1898C91837080648C93938D68
:10034000848D981306C00288F389E02D80818F7D0B
:1003500080830895EF92FF920F931F93CF93DF93C3
:10036000EC0181E0888F9B8D8C8D98131AC0E889F1
:10037000F989808185FF15C09FB7F894EE89FF89C0
:100380006083E889F98980818370806480839FBF5E
:1003900081E090E0DF91CF911F910F91FF90EF905E
:1003A0000895F62E0B8D10E00F5F1F4F0F7311276E
:1003B000E02E8C8D8E110CC00FB607FCFACFE889A9
:1003C000F989808185FFF5CFCE010E948801F1CFA8
:1003D000EB8DEC0FFD2FF11DE35AFF4FF0829FB71D
:1003E000F8940B8FEA89FB8980818062CFCFCF930D
:1003F000DF93EC01888D8823B9F0AA89BB89E8894D
:10040000F9898C9185FD03C0808186FD0DC00FB6F2
:1004100007FCF7CF8C9185FFF2CF808185FFEDCF70
:10042000CE010E948801E9CFDF91CF9108958330FA
:1004300081F028F4813099F08230A9F00895873056
:10044000A9F08830C9F08430B1F4809180008F7DAC
:1004500003C0809180008F7780938000089584B5D9
:100460008F7784BD089584B58F7DFBCF8091B000D8
:100470008F778093B00008958091B0008F7DF9CF81
:10048000CF93DF9390E0FC01E855FE4F24918C560A
:100490009E4FFC0184918823C9F090E0880F991F3A
:1004A000FC01EE59FE4FA591B491FC01E657FE4FB9
:1004B000C591D49161110DC09FB7F8948C9120958E
:1004C00082238C938881282328839FBFDF91CF913B
:1004D0000895623051F49FB7F8943C91822F809533
:1004E00083238C93E8812E2BEFCF8FB7F894EC9178
:1004F0002E2B2C938FBFEACF3FB7F8948091D50174
:100500009091D601A091D701B091D80126B5A89BB2
:1005100005C02F3F19F00196A11DB11D3FBFBA2F95
:10052000A92F982F8827BC01CD01620F711D811D55
:10053000911D42E0660F771F881F991F4A95D1F7DA
:1005400008958F929F92AF92BF92CF92DF92EF92D7
:10055000FF924B015C010E947C026B017C010E94B6
:100560007C026C197D098E099F09683E73408105E4
:100570009105A8F321E0821A9108A108B10888EE3C
:10058000C80E83E0D81EE11CF11C81149104A10463
:10059000B10429F7FF90EF90DF90CF90BF90AF901C
:1005A0009F908F9008952091DB013091DC012817F6
:1005B000390771F49091D9018091DA01981741F0CF
:1005C000E091D901F0E0EC56FE4F808190E0089573
:1005D0008FEF9FEF08950895EF92FF920F931F936F
:1005E000CF93DF93DC015C96ED90FC905D97E11476
:1005F000F10479F481E090E013969C938E93129726
:1006000090E080E0DF91CF911F910F91FF90EF90EC
:1006100008955196ED91FC91529750968C91509778
:10062000982F90950FB75E962C915E97122F1270AF
:1006300021FD6095F8942081112319F1282B208346
:10064000E7012197F1F728E0462F50E0308160FF65
:100650001AC0382B3083E7012197F1F7BA0175955D
:100660006795215089F7112381F080818923808348
:100670000FBF5C968D919C910197F1F781E090E01E
:10068000C1CF2923DCCF3923E5CF9081892BEFCF50
:100690002091DB013091DC012817390771F480913A
:1006A000DA012091D90190E0805C9F4F821B910973
:1006B00060E470E00E942211089590E080E00895C7
:1006C0002091DB013091DC0128173907B9F49091B2
:1006D000D9018091DA01981789F0E091D901F0E011
:1006E000EC56FE4F80812091D90130E02F5F3F4FC3
:1006F0002F7333272093D90190E008958FEF9FEF58
:10070000089590E080E00895FC0101900020E9F751
:100710003197AF01481B590BBC0182ED92E00C945C
:100720000A01CF93DF930E948403EC018DE291E0F4
:100730000E9484038C0F9D1FDF91CF9108950F932A
:100740001F93CF93DF93EC0188819981009759F033
:100750002A813B812617370730F081E0DF91CF9166
:100760001F910F9108958B016F5F7F4F0E94B6120A
:10077000009759F0998388831B830A832C813D81DC
:10078000232B59F7FC011082E8CF80E0E7CFEF92EE
:10079000FF920F931F93CF93DF936115710541F47F
:1007A00080E0DF91CF911F910F91FF90EF9008951E
:1007B00041155105B1F07B01EC010C811D81040F45
:1007C000151FB8010E949F03882351F328813981A6
:1007D0008C819D81B701820F931F0E947C131D8322
:1007E0000C8381E0DECFCF93DF93EC018881998188
:1007F000009711F00E942D12198218821D821C820E
:100800001B821A82DF91CF910895CF93DF93EC0181
:10081000FB0101900020E9F73197AF01461B570B10
:100820000E94C703811103C0CE010E94F303CE01D1
:10083000DF91CF910895CF93DF93EC01FB014481C9
:100840005581608171810E94C703811103C0CE016F
:100850000E94F303CE01DF91CF910895EF92FF92B2
:100860000F931F93CF93DF93EC017B018A01BA01B1
:100870000E949F0381110BC0CE010E94F303CE01A1
:10088000DF91CF911F910F91FF90EF9008951D83FD
:100890000C83B701888199810E947C13F0CFFB0102
:1008A00001900020E9F73197AF01461B570B0C94DC
:1008B0002E040F931F93CF93DF93CDB7DEB76197CD
:1008C0000FB6F894DEBF0FBECDBF8C01CB01F8018F
:1008D0001182108213821282158214824AE0BE01B4
:1008E0006F5F7F4F0E948A0DBE016F5F7F4FC8010F
:1008F0000E944F0461960FB6F894DEBF0FBECDBFC5
:10090000DF91CF911F910F910895EF92FF920F9376
:100910001F93CF93DF93CDB7DEB7A1970FB6F894AF
:10092000DEBF0FBECDBF7C01CB01BA01F701118242
:10093000108213821282158214828E010F5F1F4F64
:1009400022E044E00E943B0D009789F0BC01C70102
:100950000E944F04A1960FB6F894DEBF0FBECDBF24
:10096000DF91CF911F910F91FF90EF900895C701F4
:100970000E94F303EFCFCF93DF93EC01FB018617C7
:10098000970749F0608171816115710541F04481DB
:1009900055810E942E04CE01DF91CF9108950E94CF
:1009A000F303F9CFFC0111821082138212821582A7
:1009B0001482FB0101900020E9F73197AF01461B3B
:1009C000570B0C942E04FC0180819181009711F04B
:1009D0000C942D1208951F920F920FB60F921124AE
:1009E0002F933F934F935F936F937F938F939F9337
:1009F000AF93BF93EF93FF9385E392E00E9488014A
:100A0000FF91EF91BF91AF919F918F917F916F91E6
:100A10005F914F913F912F910F900FBE0F901F90BC
:100A200018951F920F920FB60F9211242F938F9348
:100A30009F93EF93FF93E0914502F09146028081EE
:100A4000E0914B02F0914C0282FD1BC0908180919D
:100A50004E028F5F8F7320914F02821741F0E09119
:100A60004E02F0E0EB5CFD4F958F80934E02FF91BC
:100A7000EF919F918F912F910F900FBE0F901F902C
:100A800018958081F4CF1F920F920FB60F92112408
:100A90002F933F938F939F93AF93BF938091DD01EB
:100AA0009091DE01A091DF01B091E0013091D4017D
:100AB00023E0230F2D3758F50196A11DB11D20937A
:100AC000D4018093DD019093DE01A093DF01B09308
:100AD000E0018091D5019091D601A091D701B0910C
:100AE000D8010196A11DB11D8093D5019093D60127
:100AF000A093D701B093D801BF91AF919F918F91EF
:100B00003F912F910F900FBE0F901F90189526E8E0
:100B1000230F0296A11DB11DD2CF1F920F920FB6C7
:100B20000F9211242F933F934F935F936F937F9373
:100B30008F939F93AF93BF93EF93FF93E091DB016C
:100B4000F091DC01309749F0A685B7858585968DB3
:100B500091FF14C09C918923A1F4FF91EF91BF9163
:100B6000AF919F918F917F916F915F914F913F9145
:100B70002F910F900FBE0F901F9018959C91892375
:100B800061F7A389B4899C918589809589238C9389
:100B9000868997890197F1F7608D718DA685B78554
:100BA000558538E020E0CB010197F1F7822F90E0E6
:100BB00095958795282F4C91452309F02068315051
:100BC00091F7868D81FD20958091DA0190E0019664
:100BD0008F7399273091D901381799F0A091DA01D4
:100BE000B0E0AC56BE4F2C938093DA01828D938D8A
:100BF0000197F1F7A389B4898C919589892B8C93FE
:100C0000ACCF868D8160868FF1CF1F93CF93DF931A
:100C1000282F30E0F901E459FE4F8491F901E8559D
:100C2000FE4FD491F901EC56FE4FC491CC23A9F0AC
:100C3000162F81110E941702EC2FF0E0EE0FFF1F1C
:100C4000E657FE4FA591B4918FB7F894EC9111112E
:100C500008C0D095DE23DC938FBFDF91CF911F9129
:100C60000895DE2BF8CF109238021092370288EEEA
:100C700093E0A0E0B0E08093390290933A02A09311
:100C80003B02B0933C022DE031E0309336022093DA
:100C9000350225EC30E0309342022093410224ECEF
:100CA00030E0309344022093430220EC30E0309354
:100CB00046022093450221EC30E030934802209315
:100CC000470222EC30E030934A022093490226EC9E
:100CD00030E030934C0220934B0210924E0210925F
:100CE0004F0210925002109251021092D5021092AF
:100CF000D4028093D6029093D702A093D802B093E7
:100D0000D9028FE191E09093D3028093D2021092A6
:100D1000E9021092E8021092EB021092EA0210929D
:100D2000ED021092EC021092EF021092EE0260912E
:100D3000F0026E7F6D7F6093F0026695617081E0D6
:100D4000682783E00E94050661E083E00E9440027C
:100D5000EBEAF1E0E491E093E202E7E9F1E0E4910B
:100D6000F0E0EE0FFF1FE657FE4F859194919093B0
:100D7000E4028093E30260E082E00E9440028091FE
:100D8000F00281FD04C061E082E00E94050682E07D
:100D90008093DE02EAEAF1E0E491E093DF02E6E923
:100DA000F1E0E491F0E0EE0FFF1FE058FE4F859177
:100DB00094919093E1028093E0020895CF93DF93A2
:100DC000CDB7DEB7C654D1090FB6F894DEBF0FBE5B
:100DD000CDBF789484B5826084BD84B5816084BDC4
:100DE00085B5826085BD85B5816085BD80916E00C9
:100DF000816080936E0010928100809181008260FA
:100E00008093810080918100816080938100809136
:100E100080008160809380008091B1008460809325
:100E2000B1008091B00081608093B00080917A0021
:100E3000846080937A0080917A00826080937A0047
:100E400080917A00816080937A0080917A00806836
:100E500080937A001092C100E0914502F091460221
:100E600082E08083E0914102F09142021082E091A1
:100E70004302F091440280E1808310924D02E091A0
:100E80004902F0914A0286E08083E0914702F091A6
:100E90004802808180618083E0914702F09148029E
:100EA000808188608083E0914702F09148028081D0
:100EB00080688083E0914702F091480280818F7DB5
:100EC000808381E090E0A0E0B0E0809339029093CD
:100ED0003A02A0933B02B0933C021092ED021092B2
:100EE000EC021092EB021092EA021092E9021092C8
:100EF000E8028FE190E09093EF028093EE029091F0
:100F0000DE02963108F047C021E030E03093E9027C
:100F10002093E8022DE130E03093EB022093EA02C7
:100F20002DE030E03093ED022093EC022091680038
:100F300084E0983048F031E09E3008F430E081E001
:100F400001C0880F3A95EAF7822B809368002DE65E
:100F500030E0983050F02BE630E09E3030F02CE658
:100F600030E0963110F030E020E03093E60220933C
:100F7000E502292F30E0983008F0CFC081E001C0B1
:100F8000880F9A95EAF78093E7028091EE0290919C
:100F9000EF020197F1F78091EC029091ED02892B1D
:100FA00049F1E091DB01F091DC0142E0E23DF40720
:100FB00009F1309739F0A389B4899C91858980958E
:100FC00089238C938091F0028E7F8093F00210929F
:100FD000DA011092D90182ED92E09093DC018093C6
:100FE000DB01E091E502F091E60280819091E70259
:100FF000892B808381E090E0A0E0B0E08093D6026E
:101000009093D702A093D802B093D90283E391E0E2
:101010000E949103549A62E085E00E944002579A30
:10102000249A259A239A209A219A229A5F985C986A
:101030002B982C982D98289829982A988BE391E042
:101040000E9484038FE391E00E94840384E491E092
:101050000E9484038FE391E00E949103E1E7F1E0B5
:101060008491EDEAF1E00491E9E9F1E014911123B2
:10107000A9F081110E941702E12FF0E0EE0FFF1F8F
:10108000E058FE4FA591B491EC91E02390E1892EB8
:1010900097E2992EA12CB12CE111BDC389E491E016
:1010A0000E9491032D9828980CED15E02C98299812
:1010B00061E070E080E090E00E94A1022C9A299A01
:1010C00061E070E080E090E00E94A102015011090F
:1010D00069F764EF71E080E090E00E94A1022D9A30
:1010E000289A0CED15E02C98299861E070E080E0DA
:1010F00090E00E94A1022C9A299A61E070E080E0C1
:1011000090E00E94A1020150110969F764EF71E0BB
:1011100080E090E00E94A102C5CF9E3040F42850AC
:10112000310981E001C0880F2A95EAF72CCF2E50B3
:101130003109F7CF5F9AA1C328E030E0C9C381111C
:1011400099C19093FF0110922B0280911502882380
:1011500009F4A5C08091FF01823009F036C20091E8
:101160000302109104021027012710278091FD012E
:101170009091FE01081B190B1093FC010093FB01D9
:101180001092F7011092F8011092F9011092FA01F1
:1011900080910101909102018130910509F07FC198
:1011A000C0903102D0903202E0903302F0903402CD
:1011B0008091F3019091F401A091F501B091F601B5
:1011C00026013701481A590A6A0A7B0A409E900193
:1011D000419E300D509E300D1124E091F101F091AF
:1011E000F201E20FF31FF093F201E093F10180911D
:1011F000E9019091EA01849D9001859D300D949DB7
:10120000300D11248091EF019091F001D801A81BBD
:10121000B90BCD01289FD001299FB00D389FB00D8B
:1012200011242091ED013091EE01029FC001039F36
:10123000900D129F900D1124A80FB91F2091EB0162
:101240003091EC01E29FC001E39F900DF29F900D61
:1012500011248A0F9B1F9C0150E040E02093F7016E
:101260003093F8014093F9015093FA011093F00183
:101270000093EF01C092F301D092F401E092F501E6
:10128000F092F6018D37910508F4F7C03092E8012D
:101290002092E701101611060CF095C12D9A0E94BC
:1012A0007C02AB01BC018091E1019091E201A0912F
:1012B000E301B091E4018A019B01081B190B2A0B81
:1012C0003B0B8091E7019091E801B0E0A0E080172E
:1012D0009107A207B30770F58091F7019091F8018B
:1012E000A091F901B091FA010297A105B10514F19D
:1012F000809100018823F1F04093E1015093E201D5
:101300006093E3017093E4011C9BDDC12C988091F4
:10131000F7019091F801A091F901B091FA010197BC
:10132000A109B1098093F7019093F801A093F90105
:10133000B093FA0180911502882309F461C20091EB
:10134000E5011091E6010115110509F459C262E8A1
:1013500071E0CE018F5B9F4F0E94D20401301105D6
:1013600009F0B3C1809114021CA21BA21EA21DA2EF
:1013700018A61FA24AE0BE016F5F7F4F90E00E9457
:101380008A0DBE016F5F7F4FCE0183960E944F048E
:101390001A8219821C821B821E821D82BE016D5D13
:1013A0007F4FCE0101960E94BB0460E871E0CE0140
:1013B00001960E940504BC01CE018F5B9F4F0E94E5
:1013C000BB04CE0101960E94E304CE0183960E94E5
:1013D000E3040FEF11E020911402C8018F5F9140E8
:1013E0002817190609F00CF4F6C1D80111968C9152
:1013F0001CA21BA21EA21DA218A61FA240E1BE0194
:101400006F5F7F4F90E00E948A0DBE016F5F7F4F3C
:10141000CE0183960E944F04F801818160E371E060
:10142000803110F069E871E0CE0101960E94D2048B
:10143000BE016D5D7F4FCE0101960E941B04DC0151
:1014400014964D915C9115976D917C91CE018F5BB7
:101450009F4F0E94C703CE0101960E94E304CE0174
:1014600083960E94E3040F5F1F4FB5CF853511F4BB
:1014700083E050C21092FF0166CE0B9738F488EEDD
:1014800093E09093E8018093E70104CFC501B40194
:101490000E9436113093E8012093E701FBCE0297BA
:1014A00009F077C0409131025091320260913302CD
:1014B000709134028091F3019091F401A091F501B3
:1014C000B091F6012A013B01481A590A6A0A7B0ABF
:1014D000409E9001419E300D509E300D1124E091B0
:1014E000F101F091F201E20FF31FF093F201E093AA
:1014F000F1018091E9019091EA01849D9001859D1F
:10150000300D949D300D11248091EF019091F001E8
:10151000D801A81BB90BCD01289FD001299FB00D80
:10152000389FB00D11242091ED013091EE01029F02
:10153000C001039F900D129F900D1124A80FB91F99
:101540002091EB013091EC01E29FC001E39F900DEF
:10155000F29F900D11241093F0010093EF0140933E
:10156000F3015093F4016093F5017093F601A80F15
:10157000B91FA93EE3E0BE0710F0A8EEB3E0A83221
:10158000B10510F4A8E2B0E0B093E801A093E70140
:1015900081CEB80117FF04C066277727601B710B47
:1015A000072E000C880B990B27E030E040E050E05C
:1015B0000E9436112093F7013093F8014093F9010E
:1015C0005093FA0167CE2D986ACE833009F067CE2A
:1015D00080910102863049F48091050290910602C3
:1015E0009093FE018093FD015ACE813019F48093CF
:1015F000000155CE823019F41092000150CE833094
:1016000061F480910302909104029827892798271A
:101610009093EE018093ED0142CE843061F480918D
:101620000302909104029827892798279093EC0150
:101630008093EB0134CE853061F480910302909168
:1016400004029827892798279093EA018093E9015B
:1016500026CE8730D9F48091030290910402982716
:10166000892798279093EE018093ED0180910502E0
:10167000909106029827892798279093EC018093F0
:10168000EB018091070290910802DBCF883081F452
:1016900080910302909104029827892798279093BC
:1016A0000201809301011092F2011092F101F7CD35
:1016B000893009F0F4CD8091030290E09093E60127
:1016C0008093E501ECCD2C9A35CE0230110509F05E
:1016D00024C18091FF01813009F47DC06091FB013C
:1016E0007091FC01072E000C880B990B0E94ED0FE6
:1016F0002FE73AE046E353E40E94B010AB01BC018F
:10170000CE0101960E9485046091FD017091FE0159
:10171000072E000C880B990B0E94ED0F2FE73AE083
:1017200046E353E40E94B010AB01BC01CE018396A6
:101730000E9485046091FB017091FC018091FD0184
:101740009091FE01680F791F072E000C880B990BF2
:101750000E94ED0F2FE73AE046E353E40E94B010F9
:10176000AB01BC01CE0189960E94850463E871E05B
:10177000CE018F960E94D204BE01675D7F4FCE01DD
:101780008F960E941B0467E871E00E940504BE0169
:101790006D5D7F4F0E941B046BE871E00E940504A1
:1017A000BE016F5F7F4F0E941B04BC01CE018F5BA7
:1017B0009F4F0E94BB04CE018F960E94E304CE018E
:1017C00089960E94E304CE0183960E94E304CE0131
:1017D00001960E94E30427964EAD5FAD27972396AE
:1017E0006EAD7FAD239782ED92E00E940A018DE2FB
:1017F00091E00E948403CE018F5B9F4F0E94E3041F
:101800001092150280E090E0892B41F00E94740153
:1018100081110E94000088E2282E312C2FB7F89405
:101820008091DD019091DE01A091DF01B091E00196
:101830002FBF8093310290933202A0933302B09372
:10184000340240912D0250912E0260912F0270912E
:101850003002841B950BA60BB70B0697A105B105AB
:1018600010F010922B0285E392E00E946801892B10
:1018700009F46BCC4F9B5ECC5F98809131029091C4
:101880003202A0913302B091340280932D029093E2
:101890002E02A0932F02B093300285E392E00E94C3
:1018A000460190912B02E92FF0E0EA5EFD4F818323
:1018B0009F5F90932B02943008F447CC892F90E0DF
:1018C00020911902222309F437CC30E02B5F3F4FDF
:1018D0008217930709F039CC30E020E047E1E6E1D8
:1018E000F2E0AFEFB1E001900D924A95E1F72F5F82
:1018F0003F4F2817390794F391E090931502809198
:101900000002803509F0B2CD80910202863009F0E4
:1019100016CC82E08093FF0116CC0330110509F04C
:101920005ACF8091FF01813009F455CF6091E701D2
:101930007091E801CE0183960E9459046091F701ED
:101940007091F8018091F9019091FA011AA619A6F7
:101950001CA61BA61EA61DA62AE0AE014F5F5F4F68
:101960000E94590DBE016F5F7F4FCE0189960E9484
:101970004F046091E9017091EA01CE0101960E9445
:1019800059046091EB017091EC01CE018F960E9499
:1019900059046091ED017091EE01CE01C5960E944F
:1019A00059046FE871E0CE01CB960E94D204BE01CB
:1019B0006B5C7F4FCE01CB960E941B0469E871E0FF
:1019C0000E940504BE01615D7F4F0E941B0469E80F
:1019D00071E00E940504BE016F5F7F4F0E941B04EF
:1019E00069E871E00E940504BE01675D7F4F0E94B7
:1019F0001B0469E871E00E940504BE016D5D7F4F24
:101A00000E941B04BC01CE018F5B9F4F0E94BB0450
:101A1000CE01CB960E94E304CE01C5960E94E3045A
:101A2000CE018F960E94E304CE0101960E94E3044A
:101A3000CE0189960E94E304CE018396CACE8FE13F
:101A400091E09093D3028093D2028091DB01909138
:101A5000DC01825D924071F4E091E502F091E602D2
:101A600090818091E7028095892380831092DC0128
:101A70001092DB010895EF920F931F93CF93DF93A2
:101A8000E80134E047FD34E1042E000C550B57FF0C
:101A900003C0519541955109E32E022F242FAE0129
:101AA0000E94A40DCE01DF91CF911F910F91EF9075
:101AB0000895BB272A3051F4992342F4BDE2909552
:101AC0008095709561957F4F8F4F9F4F0C94690D56
:101AD000BB27FA01A62F6217710581059105330B0B
:101AE00030FB66F0AA27660F771F881F991FAA1F71
:101AF000A21710F0A21B63953850A9F7A05DAA3376
:101B000008F0A95DA19336F7B111B1931082CA0113
:101B10000C94DB0FBB27FB015527AA27880F991FC1
:101B2000AA1FA41710F0A41B83955051B9F7A05D0C
:101B3000AA3308F0A95DA193009779F7B111B19389
:101B40001192CB010C94DB0FA9E0B0E0EAEAFDE0D2
:101B50000C947F106A01F22EB02E102FFBE3AF2EF3
:101B6000A01608F41BE31F5F012F27E0AE014F5FB3
:101B70005F4F0E94030FBC018981982F99709130AB
:101B800009F43FC09BE2E1FC04C09E2D9170E0FC93
:101B90003AC05E2D5071E82FE87083FF46C084E0A4
:101BA000911101C083E0EF2DE81B8F1508F0E0E0F4
:101BB000D6018E2F20E2552351F1992329F0D60129
:101BC0009C93C60101966C0196012D5F3F4FE2FE8A
:101BD00024C08EE4D6018C9391E411969C931197C6
:101BE00012968C93D9018E2F90E281111BC0E20FC7
:101BF000F32FF11D10828EEF9FEF2996ECE00C94ED
:101C00009B109DE2C6CF90E2C4CF2D9381508111ED
:101C1000FCCFCE0ED11CE0E0D0CF8EE6D6018C9367
:101C200091E6DBCF9D938150E0CF482F447082FF37
:101C30003DC084E0911101C083E08F1510F4EF2DB9
:101C4000E81BD6018E2F20E2552309F1992329F0B4
:101C5000D6019C93C60101966C0196012D5F3F4F02
:101C6000E2FE1BC089E4D6018C938EE411968C931E
:101C7000119786E412968C93D9018E2F90E28823D7
:101C800009F4B5CF9D938150FACF2D9381508111E6
:101C9000FCCFCE0ED11CE0E0D9CF89E6D6018C93E3
:101CA0008EE611968C93119786E6E4CF9B0177FF21
:101CB00002C030E020E0A1E0B0E0911102C0B0E04D
:101CC000A0E0F9013196AE0FBF1F8B2C912CBB20E9
:101CD00009F461C05401EFEFAE1ABE0AAA0DBB1D94
:101CE000FA161B0619F014F04F2D4A1B511188C02B
:101CF000E3FC59C07601A42FB0E2A1114FC0C40E7D
:101D0000D11C992309F45BC040E0D6011196F6017D
:101D100090836D01552309F448C0012F060F9A8165
:101D2000582F507184FF03C0913309F401501016ED
:101D30000CF047C0093008F008E0EEE2FE2E5B012F
:101D4000A01AB10885019194819491082F3F320720
:101D500029F4D601FC92F60131966F0162177307E0
:101D600094F1021713077CF5DB01A21BB30BAA2425
:101D7000A394B12CAC0EBD1EAA0DBB1D11968C9167
:101D800021503109D601119628153905F4F0F601D4
:101D900080836D01DBCFB12CA12CA0CFF701B193D3
:101DA0007F01A150AACF9111B0CFD601942F50E35B
:101DB00002C05D9391509111FCCFC40ED11C40E044
:101DC000ACCF01E0BACF80E3DBCF6217730731F409
:101DD000963388F4953311F4552369F0F601808326
:101DE000FD01842F90E2811108C0A40FB11D1C9247
:101DF00090E080E002CF81E3F1CF91938150F3CF67
:101E0000911183CF8ACF283008F027E03327DA01F9
:101E1000990F311D87FD916000966105710539F4B8
:101E200032602E5F3D9330E32A95E1F708959F3F9E
:101E300030F080387105610509F03C5F3C5F3D93EF
:101E4000913008F08068911DDF93CF931F930F931B
:101E5000FF92EF92192F987F9695E92F9695969578
:101E6000E90FFF27EE53FF4F99273327EE24FF2476
:101E7000A701E70105900894079428F4360FE71EA0
:101E8000F81E491F511D660F771F881F991F069462
:101E9000A1F70590079428F4E70EF81E491F561F76
:101EA000C11D770F881F991F661F0694A1F7059023
:101EB000079428F4F80E491F561FC71FD11D880F1D
:101EC000991F661F771F0694A1F70590079420F4C9
:101ED000490F561FC71FD81F990F661F771F881FEE
:101EE0000694A9F784911095177041F0D695C7957F
:101EF00057954795F794E7941A95C1F7E8E6F0E00F
:101F000068941590159135916591959105907FE2B2
:101F10007395E118F10A430B560BC90BD009C0F7B2
:101F2000E10CF11E431F561FC91FD01D7EF47033F4
:101F300011F48A95E6CFE894015030F0080F0AF4C6
:101F40000027021708F4202F2395022F7A3328F058
:101F500079E37D932A95E9F710C07D932A9589F658
:101F6000069497956795379517951794E118F10A98
:101F7000430B560BC90BD00998F023957E917395AE
:101F80007A3308F070E37C932013B8F77E91706188
:101F90007D9330F0839571E37D9370E32A95E1F7AB
:101FA0001124EF90FF900F911F91CF91DF9199270E
:101FB00087FD90950895DC01FC01672F71917723CF
:101FC000E1F7329704C07C916D9370836291AE17F4
:101FD000BF07C8F30895E89409C097FB3EF49095B5
:101FE0008095709561957F4F8F4F9F4F9923A9F0F2
:101FF000F92F96E9BB279395F69587957795679581
:10200000B795F111F8CFFAF4BB0F11F460FF1BC0C4
:102010006F5F7F4F8F4F9F4F16C0882311F096E957
:1020200011C0772321F09EE8872F762F05C0662305
:1020300071F096E8862F70E060E02AF09A95660FBE
:10204000771F881FDAF7880F9695879597F9089577
:1020500097F99F6780E870E060E008959FEF80EC5B
:10206000089500240A9416161706180609060895FE
:1020700000240A9412161306140605060895092E64
:102080000394000C11F4882352F0BB0F40F4BF2BD3
:1020900011F460FF04C06F5F7F4F8F4F9F4F089513
:1020A00057FD9058440F551F59F05F3F71F0479509
:1020B000880F97FB991F61F09F3F79F087950895EE
:1020C000121613061406551FF2CF4695F1DF08C00D
:1020D000161617061806991FF1CF8695710561052A
:1020E00008940895E894BB2766277727CB0197F9D2
:1020F00008952F923F924F925F926F927F928F92AC
:102100009F92AF92BF92CF92DF92EF92FF920F9386
:102110001F93CF93DF93CDB7DEB7CA1BDB0B0FB690
:10212000F894DEBF0FBECDBF09942A88398848884D
:102130005F846E847D848C849B84AA84B984C884E3
:10214000DF80EE80FD800C811B81AA81B981CE0FDA
:10215000D11D0FB6F894DEBF0FBECDBFED010895BF
:102160000E94C4100C943F100E94381058F00E9436
:10217000311040F029F45F3F29F00C9428105111E0
:102180000C9473100C942E100E94501068F3992335
:10219000B1F3552391F3951B550BBB27AA27621763
:1021A0007307840738F09F5F5F4F220F331F441F70
:1021B000AA1FA9F335D00E2E3AF0E0E832D09150A4
:1021C0005040E695001CCAF72BD0FE2F29D0660F91
:1021D000771F881FBB1F261737074807AB07B0E8D4
:1021E00009F0BB0B802DBF01FF2793585F4F3AF0DA
:1021F0009E3F510578F00C9428100C9473105F3FAB
:10220000E4F3983ED4F3869577956795B795F7955F
:102210009F5FC9F7880F911D9695879597F9089547
:10222000E1E0660F771F881FBB1F621773078407E3
:10223000BA0720F0621B730B840BBA0BEE1F88F7F2
:10224000E095089597FB072E16F4009407D077FDCC
:1022500009D00E94551107FC05D03EF49095819558
:102260009F4F0895709561957F4F0895052E97FBB8
:102270001EF400940E944D1157FD07D00E94691171
:1022800007FC03D04EF40C944D11509540953095B9
:1022900021953F4F4F4F5F4F0895909580957095D2
:1022A00061957F4F8F4F9F4F0895AA1BBB1B51E134
:1022B00007C0AA1FBB1FA617B70710F0A61BB70BB6
:1022C000881F991F5A95A9F780959095BC01CD015B
:1022D0000895A1E21A2EAA1BBB1BFD010DC0AA1F67
:1022E000BB1FEE1FFF1FA217B307E407F50720F07F
:1022F000A21BB30BE40BF50B661F771F881F991FFA
:102300001A9469F760957095809590959B01AC0142
:10231000BD01CF010895EE0FFF1F0590F491E02D50
:1023200009940F931F93CF93DF938230910510F49C
:1023300082E090E0E091F302F091F40230E020E0DE
:10234000B0E0A0E0309799F42115310509F44AC0B6
:10235000281B390B24303105D8F58A819B81611502
:10236000710589F1FB0193838283FE0111C04081D5
:1023700051810281138148175907E0F04817590726
:1023800099F4109761F012960C93129713961C9380
:102390003296CF01DF91CF911F910F910895009355
:1023A000F3021093F402F4CF2115310551F04217D6
:1023B000530738F0A901DB019A01BD01DF01F801E3
:1023C000C1CFEF01F9CF9093F4028093F302CDCF08
:1023D000FE01E20FF31F819391932250310939835B
:1023E0002883D7CF2091F1023091F202232B41F4C0
:1023F00020910501309106013093F2022093F10201
:1024000020910301309104012115310541F42DB7CC
:102410003EB74091070150910801241B350BE09114
:10242000F102F091F202E217F307A0F42E1B3F0B2A
:102430002817390778F0AC014E5F5F4F2417350736
:1024400048F04E0F5F1F5093F2024093F1028193C8
:1024500091939FCFF0E0E0E09CCFCF93DF93009784
:10246000E9F0FC01329713821282A091F302B0913D
:10247000F402ED0130E020E01097A1F420813181D9
:10248000820F931F2091F1023091F2022817390731
:1024900009F061C0F093F202E093F102DF91CF9175
:1024A0000895EA01CE17DF07E8F54A815B819E01B6
:1024B00041155105B1F7E901FB83EA83499159912F
:1024C000C40FD51FEC17FD0761F48081918102963E
:1024D000840F951FE90199838883828193819B836F
:1024E0008A83F0E0E0E012968D919C91139700971B
:1024F000B9F52D913C911197CD010296820F931F52
:102500002091F1023091F2022817390739F63097FD
:1025100051F51092F4021092F302B093F202A093DC
:10252000F102BCCFD383C28340815181840F951FB8
:10253000C817D90761F44E5F5F4F88819981480FB2
:10254000591F518340838A819B8193838283211504
:10255000310509F0B0CFF093F402E093F3029ECF7F
:10256000FD01DC01C0CF13821282D7CFB0E0A0E022
:10257000ECEBF2E10C947B108C01009751F4CB0151
:102580000E9491118C01C801CDB7DEB7E0E10C9437
:102590009710FC01E60FF71F9C0122503109E2174A
:1025A000F30708F49DC0D901CD91DC911197C617AE
:1025B000D70798F0C530D10530F3CE0104978617C0
:1025C000970708F3C61BD70B2297C193D1936D933E
:1025D0007C93CF010E942D12D6CF5B01AC1ABD0AAD
:1025E0004C018C0E9D1EA091F302B091F402512C6F
:1025F000412CF12CE12C109731F58091F102909152
:10260000F2028815990509F05CC04616570608F0D5
:1026100058C08091030190910401009741F48DB757
:102620009EB74091070150910801841B950BE81754
:10263000F90708F055C0F093F202E093F102F901B6
:1026400071836083A0CF8D919C91119712966C90AD
:10265000129713967C901397A815B90559F56C013C
:1026600042E0C40ED11CCA14DB0420F1AC014A19AB
:102670005B09DA011296159780F0628273825183AA
:102680004083D9016D937C93E114F10471F0D7017B
:102690001396FC93EE93129776CF22968C0F9D1F84
:1026A000F90191838083F301EFCFF093F402E0937B
:1026B000F30269CF4816590608F42C017D01D301B5
:1026C0009ACFCB010E9491117C01009749F0AE0195
:1026D000B8010E947313C8010E942D12870153CFC5
:1026E00010E000E050CFFB01DC0102C001900D9230
:1026F00041505040D8F70895FB01DC0101900D9244
:102700000020E1F7089510E0CFEDD0E004C0FE0115
:102710000E948B112196C03ED107C9F7F894FFCFD4
:102720000103000000F502800000000000AA010A79
:10273000013701F701680146015A0100000000EC71
:10274000020A018103EB0248036003D3020D0A0071
:102750002030000A3131353230300048533A0074AD
:10276000727565002053533A00494E464F3A205344
:10277000746172742073656C66746573742C206365
:102780006865636B206A756D70657220616E642088
:102790007265736574762061726475696E6F2E0060
:1027A0003A0900413A2000202D2000203D20005011
:0427B0003A200000CB
:00000001FF
