:100000000C9463000C948B000C948B000C94C20332
:100010000C94C2030C94C2030C948B000C948B00C0
:100020000C948B000C948B000C948B000C948B0024
:100030000C948B000C948B000C948B000C948B0014
:100040000C9478030C948B000C9446030C942003BE
:100050000C948B000C948B000C948B000C948B00F4
:100060000C948B000C948B0000000008000201002F
:100070000003040700000000000000000000000072
:1000800023002600290000000000240027002A0089
:1000900000000000250028002B00040404040404D0
:1000A0000404020202020202030303030303010227
:1000B00004081020408001020408102001020408F6
:1000C00010208604630911241FBECFEFD8E0DEBFE5
:1000D000CDBF22E0ACE4B1E001C01D92A13AB2076D
:1000E000E1F711E0A0E0B1E0E2EBF8E102C0059039
:1000F0000D92AC34B107D9F710E0C2E6D0E004C0ED
:100100002197FE010E94540AC136D107C9F70E9407
:100110006F050C944C0C0C940000AF92BF92CF92E0
:10012000DF92EF92FF920F931F93CF93DF936C01B7
:100130007B018B01040F151FEB015E01AE18BF0898
:10014000C017D10759F06991D601ED91FC9101904A
:10015000F081E02DC6010995892B79F7C501DF9162
:10016000CF911F910F91FF90EF90DF90CF90BF90B4
:10017000AF900895FC01538D448D252F30E0842FDE
:1001800090E0821B930B541710F0CF9608950197BF
:100190000895FC01918D828D981761F0A28DAE0FAC
:1001A000BF2FB11D5D968C91928D9F5F9F73928F33
:1001B00090E008958FEF9FEF0895FC01918D828D5F
:1001C000981731F0828DE80FF11D858D90E008952C
:1001D0008FEF9FEF0895FC01918D228D892F90E084
:1001E000805C9F4F821B91098F739927089581EE40
:1001F00091E00E94EB0021E0892B09F420E0822F9E
:10020000089580E090E0892B29F00E94F700811189
:100210000C9400000895FC01A48DA80FB92FB11D06
:10022000A35ABF4F2C91848D90E001968F7399272C
:10023000848FA689B7892C93A089B1898C9183700A
:1002400080648C93938D848D981306C00288F38903
:10025000E02D80818F7D80830895EF92FF920F9330
:100260001F93CF93DF93EC0181E0888F9B8D8C8D62
:1002700098131AC0E889F989808185FF15C09FB756
:10028000F894EE89FF896083E889F9898081837019
:10029000806480839FBF81E090E0DF91CF911F91C8
:1002A0000F91FF90EF900895F62E0B8D10E00F5FE9
:1002B0001F4F0F731127E02E8C8D8E110CC00FB6BF
:1002C00007FCFACFE889F989808185FFF5CFCE0157
:1002D0000E940B01F1CFEB8DEC0FFD2FF11DE35AC6
:1002E000FF4FF0829FB7F8940B8FEA89FB898081DA
:1002F0008062CFCFCF93DF93EC01888D8823B9F054
:10030000AA89BB89E889F9898C9185FD03C0808120
:1003100086FD0DC00FB607FCF7CF8C9185FFF2CF9D
:10032000808185FFEDCFCE010E940B01E9CFDF91E7
:10033000CF910895209193013091940128173907A6
:1003400071F49091910180919201981741F0E091A0
:100350009101F0E0E45BFE4F808190E008958FEF23
:100360009FEF08950895EF92FF920F931F93CF93FD
:10037000DF93DC015C96ED90FC905D97E114F10455
:1003800079F481E090E013969C938E93129790E01D
:1003900080E0DF91CF911F910F91FF90EF90089532
:1003A0005196ED91FC91529750968C915097982FC1
:1003B00090950FB75E962C915E97122F127021FDCB
:1003C0006095F8942081112319F1282B2083E701EF
:1003D0002197F1F728E0462F50E0308160FF1AC0E6
:1003E000382B3083E7012197F1F7BA0175956795AE
:1003F000215089F7112381F08081892380830FBFE9
:100400005C968D919C910197F1F781E090E0C1CFCE
:100410002923DCCF3923E5CF9081892BEFCF2091A1
:100420009301309194012817390771F4809192015A
:100430002091910190E0805C9F4F821B910960E4C4
:1004400070E00E94EB09089590E080E0089520910B
:1004500093013091940128173907B9F490919101D3
:1004600080919201981789F0E0919101F0E0E45BAE
:10047000FE4F80812091910130E02F5F3F4F2F731D
:1004800033272093910190E008958FEF9FEF089517
:1004900090E080E00895FC0101900020E9F7319799
:1004A000AF01481B590BBC018EE792E00C948D0004
:1004B000CF93DF93EC0188819981009711F00E941E
:1004C000F60A198218821D821C821B821A82DF9111
:1004D000CF910895FC0180819181009711F00C94D7
:1004E000F60A08950F931F93CF93DF93EC01888151
:1004F0009981009759F02A813B812617370730F000
:1005000081E0DF91CF911F910F9108958B016F5F73
:100510007F4F0E947F0B009759F0998388831B833C
:100520000A832C813D81232B59F7FC011082E8CFEF
:1005300080E0E7CFEF92FF920F931F93CF93DF936B
:100540006115710541F480E0DF91CF911F910F910A
:10055000FF90EF90089541155105B1F07B01EC013A
:100560000C811D81040F151FB8010E94720288239F
:1005700051F3288139818C819D81B701820F931FAE
:100580000E94450C1D830C8381E0DECFEF92FF9229
:100590000F931F93CF93DF93EC017B018A01BA0184
:1005A0000E94720281110BC0CE010E945802CE013E
:1005B000DF91CF911F910F91FF90EF9008951D83D0
:1005C0000C83B701888199810E94450CF0CFEF928E
:1005D000FF920F931F93CF93DF93CDB7DEB7299789
:1005E0000FB6F894DEBF0FBECDBF8C01862FF80189
:1005F00011821082138212821582148250E09E01B1
:100600002F5F3F4F7901B90190E00E947F09F70108
:1006100001900020E9F73197AF014E195F09B7014A
:10062000C8010E94C60229960FB6F894DEBF0FBE1D
:10063000CDBFDF91CF911F910F91FF90EF90089563
:100640001F920F920FB60F9211242F933F934F9347
:100650005F936F937F938F939F93AF93BF93EF932A
:10066000FF9381EE91E00E940B01FF91EF91BF910A
:10067000AF919F918F917F916F915F914F913F913A
:100680002F910F900FBE0F901F9018951F920F92F1
:100690000FB60F9211242F938F939F93EF93FF9395
:1006A000E091F101F091F2018081E091F701F09188
:1006B000F80182FD1BC090818091FA018F5F8F73DA
:1006C0002091FB01821741F0E091FA01F0E0EF5137
:1006D000FE4F958F8093FA01FF91EF919F918F913B
:1006E0002F910F900FBE0F901F9018958081F4CF1F
:1006F0001F920F920FB60F9211242F933F938F9357
:100700009F93AF93BF9380918D0190918E01A091A3
:100710008F01B091900130918C0123E0230F2D3790
:1007200058F50196A11DB11D20938C0180938D0178
:1007300090938E01A0938F01B093900180919501C9
:1007400090919601A0919701B09198010196A11DF9
:10075000B11D8093950190939601A0939701B0935A
:100760009801BF91AF919F918F913F912F910F90E1
:100770000FBE0F901F90189526E8230F0296A11D1B
:10078000B11DD2CF1F920F920FB60F9211242F934B
:100790003F934F935F936F937F938F939F93AF9309
:1007A000BF93EF93FF93E0919301F0919401309701
:1007B00049F0A685B7858585968D91FF14C09C91DB
:1007C0008923A1F4FF91EF91BF91AF919F918F91F8
:1007D0007F916F915F914F913F912F910F900FBE3D
:1007E0000F901F9018959C91892361F7A389B48974
:1007F0009C918589809589238C9386899789019717
:10080000F1F7608D718DA685B785558538E020E0BC
:10081000CB010197F1F7822F90E095958795282FCE
:100820004C91452309F02068315091F7868D81FD68
:1008300020958091920190E001968F7399273091D5
:100840009101381799F0A0919201B0E0A45BBE4FDE
:100850002C9380939201828D938D0197F1F7A38958
:10086000B4898C919589892B8C93ACCF868D8160CE
:10087000868FF1CF90E0FC01E859FF4F2491FC01F5
:10088000E255FF4F3491FC01E656FF4FE491EE2311
:10089000C9F0222339F0233001F1A8F4213019F1F5
:1008A000223029F1F0E0EE0FFF1FE057FF4FA59136
:1008B000B4918FB7F894EC91611126C030953E2326
:1008C0003C938FBF08952730A9F02830C9F0243019
:1008D00049F7809180008F7D03C0809180008F77E1
:1008E00080938000DFCF84B58F7784BDDBCF84B564
:1008F0008F7DFBCF8091B0008F778093B000D2CFF7
:100900008091B0008F7DF9CF3E2BDACF0F931F93EC
:10091000CF93DF931092E4011092E30188EE93E00D
:10092000A0E0B0E08093E5019093E601A093E70199
:10093000B093E8012BE031E03093E2012093E10134
:1009400025EC30E03093EE012093ED0124EC30E013
:100950003093F0012093EF0120EC30E03093F2016E
:100960002093F10121EC30E03093F4012093F30166
:1009700022EC30E03093F6012093F50126EC30E0D4
:100980003093F8012093F7011092FA011092FB01C5
:100990001092FC011092FD011092810210928002CF
:1009A0008093820290938302A0938402B093850285
:1009B0008DE191E090937F0280937E0210929502E8
:1009C000109294021092970210929602109299023D
:1009D0001092980210929B0210929A0260919C02CF
:1009E0006E7F6D7F60939C026695617081E06827E1
:1009F00083E00E943A0441EB50E0FA0164918DE9F2
:100A000090E0FC012491222399F030E0220F331F63
:100A1000F901EA57FF4FA591B491F901E057FF4F53
:100A2000259134912FB7F8943C91632B6C932FBF91
:100A3000FA01449140938E02FC018491E82FF0E08A
:100A4000EE0FFF1FE057FF4F859194919093900216
:100A500080938F0200EB10E0F8012491CCE9D0E004
:100A6000FE0184918823C9F090E0880F991FFC0152
:100A7000EA57FF4FA591B491FC01E057FF4F459114
:100A800054913FB7F8949C91822F809598239C9322
:100A9000FA019081892380833FBF80919C0281FD70
:100AA00004C061E082E00E943A0482E080938A02FE
:100AB000F801049100938B02FE01C491EC2FF0E049
:100AC000EE0FFF1FE458FF4F8591949190938D0294
:100AD00080938C02DF91CF911F910F910895CF9356
:100AE000DF93CDB7DEB762970FB6F894DEBF0FBEC7
:100AF000CDBF789484B5826084BD84B5816084BDA7
:100B000085B5826085BD85B5816085BD80916E00AB
:100B1000816080936E0010928100809181008260DC
:100B20008093810080918100816080938100809119
:100B300080008160809380008091B1008460809308
:100B4000B1008091B00081608093B00080917A0004
:100B5000846080937A0080917A00826080937A002A
:100B600080917A00816080937A0080917A00806819
:100B700080937A001092C100E091F101F091F201AE
:100B800082E08083E091ED01F091EE011082E0912E
:100B9000EF01F091F00180E180831092F901E09182
:100BA000F501F091F60186E08083E091F301F09188
:100BB000F401808180618083E091F301F091F40180
:100BC000808188608083E091F301F091F40180815D
:100BD00080688083E091F301F091F40180818F7D42
:100BE000808381E090E0A0E0B0E08093E501909305
:100BF000E601A093E701B093E801109299021092E8
:100C000098021092970210929602109295021092FA
:100C100094028FE190E090939B0280939A029091CE
:100C20008A02963108F047C021E030E03093950207
:100C3000209394022DE130E03093970220939602A6
:100C40002DE030E0309399022093980220916800C3
:100C500084E0983048F031E09E3008F430E081E0E4
:100C600001C0880F3A95EAF7822B809368002DE641
:100C700030E0983050F02BE630E09E3030F02CE63B
:100C800030E0963110F030E020E030939202209373
:100C90009102292F30E0983008F0D4C081E001C0E3
:100CA000880F9A95EAF78093930280919A02909127
:100CB0009B020197F1F78091980290919902892BFC
:100CC00049F1E0919301F091940102E0EE37F007D1
:100CD00009F1309739F0A389B4899C918589809571
:100CE00089238C9380919C028E7F80939C0210922A
:100CF0009201109291018EE792E09093940180937B
:100D00009301E0919102F09192028081909193027F
:100D1000892B808381E090E0A0E0B0E080938202A4
:100D200090938302A0938402B093850280E391E0C4
:100D30000E944B0288E391E00E944B02549A579A1A
:100D4000249A259A239A209A219A229A5F985C984D
:100D50002B982C982D98289829982A988BE391E025
:100D60000E944B028FE391E00E944B0284E491E0E9
:100D70000E944B028FE391E00E944B0288E391E0D6
:100D80000E944B02E7E0CE2ED12CE12CF12CF0E1B9
:100D90004F2EF7E25F2E612C712C58EE852E53E01A
:100DA000952E68E2A62EB12C70E0272E70E0372E2B
:100DB00081EE91E00E94EB00892B09F459C081EE8D
:100DC00091E00E94C900982F803511F0853511F40B
:100DD0001092DF018091DF01E82FF0E0E653FE4F33
:100DE00091838F5F8093DF01843008F441C090E0ED
:100DF0002091CD01222399F130E02B5F3F4F8217E4
:100E00009307B1F530E020E047E1EAECF1E0A3EB35
:100E1000B1E001900D924A95E1F72F5F3F4F2817FF
:100E2000390794F391E09093C9018091B401803522
:100E300009F0DBC18091B6018630A1F482E0809395
:100E4000B30114C09E3040F42850310981E001C044
:100E5000880F2A95EAF727CF2E503109F7CF28E0DF
:100E600030E0CDCF8111C5C19093B3011092DF0165
:100E70008091C901882309F45DC08091B30182305B
:100E800009F0D1C10091B7011091B80110270127D5
:100E900010278091B1019091B201081B190BB80184
:100EA00017FF04C066277727601B710B072E000C05
:100EB000880B990BA70196010E94FF092093AD01B1
:100EC0003093AE014093AF015093B001283C3105FF
:100ED000410551050CF490C1B092AC01A092AB0158
:100EE0006091B9017091BA017627672776277093D0
:100EF000AA016093A90177FF03C0719561957109FB
:100F0000072E000C880B990BA70196010E94FF0980
:100F10002093A5013093A6014093A7015093A80107
:100F200017FF7DC12D9A8091A9019091AA0197FF89
:100F300078C1289A3FB7F8948091950190919601D5
:100F4000A0919701B091980126B5A89B05C02F3FAD
:100F500019F00196A11DB11D3FBFBA2FA92F982FDF
:100F60008827820F911DA11DB11D42E0880F991F96
:100F7000AA1FBB1F4A95D1F78093A1019093A201AC
:100F8000A093A301B093A40140919D0150919E01B3
:100F900060919F017091A0018C019D01041B150BB4
:100FA000260B370B4091AB015091AC0170E060E033
:100FB0004017510762077307D0F54091AD0150917A
:100FC000AE016091AF017091B001423051056105F1
:100FD00071056CF120910001222349F180939D015C
:100FE00090939E01A0939F01B093A0011C9B49C1C7
:100FF0002C982091AD013091AE014091AF015091FC
:10100000B00121503109410951092093AD013093BC
:10101000AE014093AF015093B0012D37310541052A
:1010200051050CF41BC1B092AC01A092AB018091B0
:10103000A1019091A201A091A301B091A4014091BE
:10104000990150919A0160919B0170919C018C01D2
:101050009D01041B150B260B370BB901A801493262
:1010600051056105710578F14091A5015091A601E6
:101070006091A7017091A801423051056105710589
:1010800014F1209100012223F1F0809399019093B3
:101090009A01A0939B01B0939C01199BF4C02998DD
:1010A0008091A5019091A601A091A701B091A801FE
:1010B0000197A109B1098093A5019093A601A0937E
:1010C000A701B093A8018091C901882309F4EDC05C
:1010D0004AE06091C801CE0107960E94E7021A8299
:1010E00019821C821B821E821D826F817885611588
:1010F000710531F04B855C85CE0101960E94C602D8
:1011000042E050E069E471E0CE0101960E949A024B
:10111000811104C0CE0101960E9458021E861D86D0
:10112000188A1F861A8A198A69817A816115710560
:1011300031F04D815E81CE010D960E94C602CE0136
:1011400001960E946A02CE0107960E946A0203EB92
:1011500011E02091C801C801835B9140281719064E
:1011600009F00CF492C040E1F8016181CE010196D2
:101170000E94E702F80181816BE271E0803110F09A
:101180006EE271E018861F821A8619861C861B86FD
:10119000FB0101900020E9F73197AF01461B570B87
:1011A000CE0107960E94C6024D815E8169817A81D7
:1011B000CE0107960E949A02811104C0CE010796C3
:1011C0000E9458024B855C856F817885CE010D9613
:1011D0000E949A02CE0107960E946A02CE010196F1
:1011E0000E946A020F5F1F4FB4CF853511F483E070
:1011F00026CE1092B3013ACE2B3031054105510570
:101200002CF49092AC018092AB016ACEC301B20182
:101210000E94FF093093AC012093AB0161CE2D9861
:1012200082CE289887CE833009F084CE8091B50194
:10123000863049F48091B9019091BA019093B2013E
:101240008093B10177CE813019F48093000172CE82
:10125000823009F06FCE109200016CCE2B30310538
:10126000410551052CF49092AC018092AB01DFCE88
:10127000C301B2010E94FF093093AC012093AB017E
:10128000D6CE2C9AD4CE299A1ECF49895A896D85FB
:101290007E858EE792E00E948D0088E391E00E94B7
:1012A0004B02CE010D960E946A021092C9012114D0
:1012B000310409F47DCD0E94F700882309F46DCD37
:1012C0000E9400006ACD8DE191E090937F028093AF
:1012D0007E0280919301909194018E57924071F417
:1012E000E0919102F0919202908180919302809519
:1012F00089238083109294011092930108954532BE
:10130000510520F4423010F00C948A09FB01108240
:10131000CB010895BB27FB015527AA27880F991FEA
:10132000AA1FA41710F0A41B83955051B9F7A05D14
:10133000AA3308F0A95DA193009779F7B111B19391
:101340001192CB010C94A409DC01FC01672F71916F
:101350007723E1F7329704C07C916D93708362919B
:10136000AE17BF07C8F308952F923F924F925F9236
:101370006F927F928F929F92AF92BF92CF92DF92A5
:10138000EF92FF920F931F93CF93DF93CDB7DEB70A
:10139000CA1BDB0B0FB6F894DEBF0FBECDBF09949E
:1013A0002A88398848885F846E847D848C849B84F5
:1013B000AA84B984C884DF80EE80FD800C811B8103
:1013C000AA81B981CE0FD11D0FB6F894DEBF0FBE32
:1013D000CDBFED01089597FB072E16F4009407D0BA
:1013E00077FD09D00E941E0A07FC05D03EF49095B7
:1013F00081959F4F0895709561957F4F0895052EB3
:1014000097FB1EF400940E94160A57FD07D00E9415
:10141000320A07FC03D04EF40C94160A50954095FE
:10142000309521953F4F4F4F5F4F08959095809590
:10143000709561957F4F8F4F9F4F0895AA1BBB1BDF
:1014400051E107C0AA1FBB1FA617B70710F0A61BC4
:10145000B70B881F991F5A95A9F780959095BC01E5
:10146000CD010895A1E21A2EAA1BBB1BFD010DC0E0
:10147000AA1FBB1FEE1FFF1FA217B307E407F50744
:1014800020F0A21BB30BE40BF50B661F771F881F20
:10149000991F1A9469F760957095809590959B01B6
:1014A000AC01BD01CF010895EE0FFF1F0590F4912F
:1014B000E02D09940F931F93CF93DF938230910512
:1014C00010F482E090E0E0919F02F091A00230E001
:1014D00020E0B0E0A0E0309799F42115310509F43F
:1014E0004AC0281B390B24303105D8F58A819B81ED
:1014F0006115710589F1FB0193838283FE0111C09F
:10150000408151810281138148175907E0F0481743
:10151000590799F4109761F012960C93129713964D
:101520001C933296CF01DF91CF911F910F910895B7
:1015300000939F021093A002F4CF2115310551F0C2
:101540004217530738F0A901DB019A01BD01DF0101
:10155000F801C1CFEF01F9CF9093A00280939F02D1
:10156000CDCFFE01E20FF31F8193919322503109F9
:1015700039832883D7CF20919D0230919E02232B5F
:1015800041F4209103013091040130939E02209395
:101590009D0220910101309102012115310541F494
:1015A0002DB73EB74091050150910601241B350B24
:1015B000E0919D02F0919E02E217F307A0F42E1B2A
:1015C0003F0B2817390778F0AC014E5F5F4F2417A7
:1015D000350748F04E0F5F1F50939E0240939D02C7
:1015E000819391939FCFF0E0E0E09CCFCF93DF9386
:1015F0000097E9F0FC01329713821282A0919F02BA
:10160000B091A002ED0130E020E01097A1F420811C
:101610003181820F931F20919D0230919E022817E5
:10162000390709F061C0F0939E02E0939D02DF91BB
:10163000CF910895EA01CE17DF07E8F54A815B8173
:101640009E0141155105B1F7E901FB83EA834991F8
:101650005991C40FD51FEC17FD0761F4808191816A
:101660000296840F951FE901998388838281938173
:101670009B838A83F0E0E0E012968D919C91139712
:101680000097B9F52D913C911197CD010296820FEB
:10169000931F20919D0230919E022817390739F639
:1016A000309751F51092A00210929F02B0939E02C3
:1016B000A0939D02BCCFD383C28340815181840F0C
:1016C000951FC817D90761F44E5F5F4F88819981D4
:1016D000480F591F518340838A819B819383828362
:1016E0002115310509F0B0CFF093A002E0939F02DD
:1016F0009ECFFD01DC01C0CF13821282D7CFB0E0B4
:10170000A0E0E5E8FBE00C94B6098C01009751F4E9
:10171000CB010E945A0A8C01C801CDB7DEB7E0E1C7
:101720000C94D209FC01E60FF71F9C0122503109ED
:10173000E217F30708F49DC0D901CD91DC91119710
:10174000C617D70798F0C530D10530F3CE010497FE
:101750008617970708F3C61BD70B2297C193D1931F
:101760006D937C93CF010E94F60AD6CF5B01AC1A31
:10177000BD0A4C018C0E9D1EA0919F02B091A0024B
:10178000512C412CF12CE12C109731F580919D02C8
:1017900090919E028815990509F05CC0461657067F
:1017A00008F058C08091010190910201009741F426
:1017B0008DB79EB74091050150910601841B950B92
:1017C000E817F90708F055C0F0939E02E0939D02D8
:1017D000F90171836083A0CF8D919C91119712962E
:1017E0006C90129713967C901397A815B90559F52C
:1017F0006C0142E0C40ED11CCA14DB0420F1AC0120
:101800004A195B09DA011296159780F06282738299
:1018100051834083D9016D937C93E114F10471F0FD
:10182000D7011396FC93EE93129776CF22968C0FE6
:101830009D1FF90191838083F301EFCFF093A00204
:10184000E0939F0269CF4816590608F42C017D01E8
:10185000D3019ACFCB010E945A0A7C01009749F02C
:10186000AE01B8010E943C0CC8010E94F60A870133
:1018700053CF10E000E050CFFB01DC0102C001902B
:101880000D9241505040D8F70895FB01DC010190C2
:101890000D920020E1F7089510E0C2E6D0E004C008
:1018A000FE010E94540A2196C336D107C9F7F89465
:0218B000FFCF68
:1018B200010000A1028000000000002D018D00BA8D
:1018C200007A01EB00C900DD0000000000B3018DC9
:1018D200004802B2010F0227029A012030002000C4
:1018E2000A313135323030000D0A0048533A007463
:0C18F200727565002053533A003A09005B
:00000001FF
