:100000000C9463000C948B000C948B000C94B5033F
:100010000C94B5030C94B5030C948B000C948B00DA
:100020000C948B000C948B000C948B000C948B0024
:100030000C948B000C948B000C948B000C948B0014
:100040000C946B030C948B000C9439030C941303E5
:100050000C948B000C948B000C948B000C948B00F4
:100060000C948B000C948B0000000008000201002F
:100070000003040700000000000000000000000072
:1000800023002600290000000000240027002A0089
:1000900000000000250028002B00040404040404D0
:1000A0000404020202020202030303030303010227
:1000B00004081020408001020408102001020408F6
:1000C000102079043C0811241FBECFEFD8E0DEBF1A
:1000D000CDBF22E0A4E3B1E001C01D92AC38B2076D
:1000E000E1F711E0A0E0B1E0E4E6F6E102C005903E
:1000F0000D92A433B107D9F710E0C2E6D0E004C0F6
:100100002197FE010E942D09C136D107C9F70E942F
:1001100062050C94250B0C940000AF92BF92CF9215
:10012000DF92EF92FF920F931F93CF93DF936C01B7
:100130007B018B01040F151FEB015E01AE18BF0898
:10014000C017D10759F06991D601ED91FC9101904A
:10015000F081E02DC6010995892B79F7C501DF9162
:10016000CF911F910F91FF90EF90DF90CF90BF90B4
:10017000AF900895FC01538D448D252F30E0842FDE
:1001800090E0821B930B541710F0CF9608950197BF
:100190000895FC01918D828D981761F0A28DAE0FAC
:1001A000BF2FB11D5D968C91928D9F5F9F73928F33
:1001B00090E008958FEF9FEF0895FC01918D828D5F
:1001C000981731F0828DE80FF11D858D90E008952C
:1001D0008FEF9FEF0895FC01918D228D892F90E084
:1001E000805C9F4F821B91098F73992708958CEC37
:1001F00091E00E94EB0021E0892B09F420E0822F9E
:10020000089580E090E0892B29F00E94F700811189
:100210000C9400000895FC01A48DA80FB92FB11D06
:10022000A35ABF4F2C91848D90E001968F7399272C
:10023000848FA689B7892C93A089B1898C9183700A
:1002400080648C93938D848D981306C00288F38903
:10025000E02D80818F7D80830895EF92FF920F9330
:100260001F93CF93DF93EC0181E0888F9B8D8C8D62
:1002700098131AC0E889F989808185FF15C09FB756
:10028000F894EE89FF896083E889F9898081837019
:10029000806480839FBF81E090E0DF91CF911F91C8
:1002A0000F91FF90EF900895F62E0B8D10E00F5FE9
:1002B0001F4F0F731127E02E8C8D8E110CC00FB6BF
:1002C00007FCFACFE889F989808185FFF5CFCE0157
:1002D0000E940B01F1CFEB8DEC0FFD2FF11DE35AC6
:1002E000FF4FF0829FB7F8940B8FEA89FB898081DA
:1002F0008062CFCFCF93DF93EC01888D8823B9F054
:10030000AA89BB89E889F9898C9185FD03C0808120
:1003100086FD0DC00FB607FCF7CF8C9185FFF2CF9D
:10032000808185FFEDCFCE010E940B01E9CFDF91E7
:10033000CF91089520917B0130917C0128173907D6
:1003400071F49091790180917A01981741F0E091D0
:100350007901F0E0EC5CFE4F808190E008958FEF32
:100360009FEF08950895EF92FF920F931F93CF93FD
:10037000DF93DC015C96ED90FC905D97E114F10455
:1003800079F481E090E013969C938E93129790E01D
:1003900080E0DF91CF911F910F91FF90EF90089532
:1003A0005196ED91FC91529750968C915097982FC1
:1003B00090950FB75E962C915E97122F127021FDCB
:1003C0006095F8942081112319F1282B2083E701EF
:1003D0002197F1F728E0462F50E0308160FF1AC0E6
:1003E000382B3083E7012197F1F7BA0175956795AE
:1003F000215089F7112381F08081892380830FBFE9
:100400005C968D919C910197F1F781E090E0C1CFCE
:100410002923DCCF3923E5CF9081892BEFCF2091A1
:100420007B0130917C012817390771F480917A01A2
:100430002091790190E0805C9F4F821B910960E4DC
:1004400070E00E94C408089590E080E00895209133
:100450007B0130917C0128173907B9F4909179011B
:1004600080917A01981789F0E0917901F0E0EC5CD5
:10047000FE4F80812091790130E02F5F3F4F2F7335
:1004800033272093790190E008958FEF9FEF08952F
:1004900090E080E00895CF93DF93EC01888199810B
:1004A000009711F00E94CF09198218821D821C82C8
:1004B0001B821A82DF91CF910895FC018081918186
:1004C000009711F00C94CF0908950F931F93CF93C9
:1004D000DF93EC0188819981009759F02A813B8153
:1004E0002617370730F081E0DF91CF911F910F91F0
:1004F00008958B016F5F7F4F0E94580A009759F053
:10050000998388831B830A832C813D81232B59F790
:10051000FC011082E8CF80E0E7CFEF92FF920F93CB
:100520001F93CF93DF936115710541F480E0DF9154
:10053000CF911F910F91FF90EF90089541155105B4
:10054000B1F07B01EC010C811D81040F151FB80176
:100550000E946502882351F3288139818C819D8115
:10056000B701820F931F0E941E0B1D830C8381E035
:10057000DECFEF92FF920F931F93CF93DF93EC01A7
:100580007B018A01BA010E94650281110BC0CE0174
:100590000E944B02CE01DF91CF911F910F91FF90EE
:1005A000EF9008951D830C83B701888199810E9483
:1005B0001E0BF0CFEF92FF920F931F93CF93DF9319
:1005C000CDB7DEB729970FB6F894DEBF0FBECDBF0B
:1005D0008C01862FF80111821082138212821582FB
:1005E000148250E09E012F5F3F4F7901B90190E0E6
:1005F0000E945808F70101900020E9F73197AF01F8
:100600004E195F09B701C8010E94B90229960FB6B9
:10061000F894DEBF0FBECDBFDF91CF911F910F9138
:10062000FF90EF9008951F920F920FB60F92112432
:100630002F933F934F935F936F937F938F939F93EA
:10064000AF93BF93EF93FF938CEC91E00E940B016B
:10065000FF91EF91BF91AF919F918F917F916F919A
:100660005F914F913F912F910F900FBE0F901F9070
:1006700018951F920F920FB60F9211242F938F93FC
:100680009F93EF93FF93E091DC01F091DD01808176
:10069000E091E201F091E30182FD1BC09081809125
:1006A000E5018F5F8F732091E601821741F0E091A1
:1006B000E501F0E0E453FE4F958F8093E501FF9153
:1006C000EF919F918F912F910F900FBE0F901F90E0
:1006D00018958081F4CF1F920F920FB60F921124BC
:1006E0002F933F938F939F93AF93BF938091750107
:1006F00090917601A0917701B091780130917401C9
:1007000023E0230F2D3758F50196A11DB11D20932D
:1007100074018093750190937601A0937701B09353
:10072000780180917D0190917E01A0917F01B0912F
:1007300080010196A11DB11D80937D0190937E01E2
:10074000A0937F01B0938001BF91AF919F918F9152
:100750003F912F910F900FBE0F901F90189526E894
:10076000230F0296A11DB11DD2CF1F920F920FB67B
:100770000F9211242F933F934F935F936F937F9327
:100780008F939F93AF93BF93EF93FF93E0917B0180
:10079000F0917C01309749F0A685B7858585968DC7
:1007A00091FF14C09C918923A1F4FF91EF91BF9117
:1007B000AF919F918F917F916F915F914F913F91F9
:1007C0002F910F900FBE0F901F9018959C91892329
:1007D00061F7A389B4899C918589809589238C933D
:1007E000868997890197F1F7608D718DA685B78508
:1007F000558538E020E0CB010197F1F7822F90E09A
:1008000095958795282F4C91452309F02068315004
:1008100091F7868D81FD209580917A0190E0019677
:100820008F73992730917901381799F0A0917A0147
:10083000B0E0AC5CBE4F2C9380937A01828D938D97
:100840000197F1F7A389B4898C919589892B8C93B1
:10085000ACCF868D8160868FF1CF90E0FC01E859A6
:10086000FF4F2491FC01E255FF4F3491FC01E65605
:10087000FF4FE491EE23C9F0222339F0233001F138
:10088000A8F4213019F1223029F1F0E0EE0FFF1F1A
:10089000E057FF4FA591B4918FB7F894EC91611197
:1008A00026C030953E233C938FBF08952730A9F092
:1008B0002830C9F0243049F7809180008F7D03C033
:1008C000809180008F7780938000DFCF84B58F7711
:1008D00084BDDBCF84B58F7DFBCF8091B0008F7757
:1008E0008093B000D2CF8091B0008F7DF9CF3E2BA6
:1008F000DACF0F931F93CF93DF931092CF01109213
:10090000CE0188EE93E0A0E0B0E08093D001909318
:10091000D101A093D201B093D3012AE031E030930A
:10092000CD012093CC0125EC30E03093D901209308
:10093000D80124EC30E03093DB012093DA0120EC85
:1009400030E03093DD012093DC0121EC30E0309386
:10095000DF012093DE0122EC30E03093E1012093AF
:10096000E00126EC30E03093E3012093E2011092A5
:10097000E5011092E6011092E7011092E801109251
:100980006C0210926B0280936D0290936E02A093A2
:100990006F02B09370028CE191E090936A028093B1
:1009A00069021092800210927F02109282021092CD
:1009B0008102109284021092830210928602109299
:1009C0008502609187026E7F6D7F609387026695D6
:1009D000617081E0682783E00E942D0441EB50E0C4
:1009E000FA0164918DE990E0FC012491222399F0B1
:1009F00030E0220F331FF901EA57FF4FA591B49160
:100A0000F901E057FF4F259134912FB7F8943C91AD
:100A1000632B6C932FBFFA01449140937902FC0140
:100A20008491E82FF0E0EE0FFF1FE057FF4F859114
:100A3000949190937B0280937A0200EB10E0F8018E
:100A40002491CCE9D0E0FE0184918823C9F090E0A4
:100A5000880F991FFC01EA57FF4FA591B491FC0143
:100A6000E057FF4F459154913FB7F8949C91822FE6
:100A7000809598239C93FA019081892380833FBFBE
:100A80008091870281FD04C061E082E00E942D0414
:100A900082E080937502F801049100937602FE01D2
:100AA000C491EC2FF0E0EE0FFF1FE458FF4F85914B
:100AB00094919093780280937702DF91CF911F9168
:100AC0000F910895CF93DF93CDB7DEB762970FB63E
:100AD000F894DEBF0FBECDBF789484B5826084BD2C
:100AE00084B5816084BD85B5826085BD85B5816032
:100AF00085BD80916E00816080936E0010928100B0
:100B0000809181008260809381008091810081606A
:100B1000809381008091800081608093800080912B
:100B2000B10084608093B1008091B00081608093B7
:100B3000B00080917A00846080937A0080917A007E
:100B4000826080937A0080917A00816080937A003D
:100B500080917A00806880937A001092C100E091C1
:100B6000DC01F091DD0182E08083E091D801F09119
:100B7000D9011082E091DA01F091DB0180E18083FC
:100B80001092E401E091E001F091E10186E08083C0
:100B9000E091DE01F091DF01808180618083E0914E
:100BA000DE01F091DF01808188608083E091DE01C9
:100BB000F091DF01808180688083E091DE01F09117
:100BC000DF0180818F7D808381E090E0A0E0B0E054
:100BD0008093D0019093D101A093D201B093D3011F
:100BE000109284021092830210928202109281026B
:100BF0001092800210927F028FE190E09093860223
:100C00008093850290917502963108F047C021E0EB
:100C100030E03093800220937F022DE130E030936A
:100C20008202209381022DE030E0309384022093F1
:100C300083022091680084E0983048F031E09E30D3
:100C400008F430E081E001C0880F3A95EAF7822B82
:100C5000809368002DE630E0983050F02BE630E0CD
:100C60009E3030F02CE630E0963110F030E020E09D
:100C700030937D0220937C02292F30E0983008F0D9
:100C800054C181E001C0880F9A95EAF780937E02F3
:100C900080918502909186020197F1F780918302FD
:100CA00090918402892B49F1E0917B01F0917C01C4
:100CB00082E0E936F80709F1309739F0A389B48961
:100CC0009C918589809589238C93809187028E7F62
:100CD0008093870210927A011092790189E692E05E
:100CE00090937C0180937B01E0917C02F0917D02E6
:100CF000808190917E02892B808381E090E0A0E04A
:100D0000B0E080936D0290936E02A0936F02B09357
:100D10007002559A579A249A259A5F985D982C9854
:100D20002D9857E0C52ED12CE12CF12CBB24B39487
:100D300000E010E03FB7F89480917D0190917E0132
:100D4000A0917F01B091800126B5A89B05C02F3FDF
:100D500019F00196A11DB11D3FBFBA2FA92F982FE1
:100D60008827820F911DA11DB11D42E0880F991F98
:100D7000AA1FBB1F4A95D1F78093C8019093C90160
:100D8000A093CA01B093CB018CEC91E00E94EB00E0
:100D9000892BB9F15F9A8CEC91E00E94C9008035F3
:100DA00011F0853511F41092C7012091C701422F2F
:100DB00050E0FA01E755FE4F80832430E8F080913F
:100DC000AB01882309F4BEC090E005964817590787
:100DD00099F4ABE8B1E0E9EAF1E081918D93CF01BC
:100DE000895A914084179507C4F320938A01B092E1
:100DF00089011092C7015F988091C7018F5F80932E
:100E0000C70180918901882309F4B3C04AE0609149
:100E10008A01CE0107960E94DA021A8219821C8288
:100E20001B821E821D826F8178856115710531F0EC
:100E30004B855C85CE0101960E94B90241E050E0ED
:100E40006FE271E0CE0101960E948D02811104C013
:100E5000CE0101960E944B021E861D86188A1F86AF
:100E60001A8A198A69817A816115710531F04D817B
:100E70005E81CE010D960E94B902CE0101960E94BC
:100E80005D02CE0107960E945D028BE8882E81E00C
:100E9000982E20918A01C4018B5891402817190679
:100EA00009F00CF452C0F40161914F0140E1CE0110
:100EB00001960E94DA02F401319780816AE271E0C2
:100EC000803110F06DE271E018861F821A86198653
:100ED0001C861B86FB0101900020E9F73197AF01CA
:100EE000461B570BCE0107960E94B9024D815E81C9
:100EF00069817A81CE0107960E948D02811104C01A
:100F0000CE0107960E944B024B855C856F817885E8
:100F1000CE010D960E948D02CE0107960E945D02C1
:100F2000CE0101960E945D02B4CF9E3040F428505D
:100F3000310981E001C0880F2A95EAF7A7CE2E502B
:100F40003109F7CF88E090E041CF49895A896D8512
:100F50007E8589E692E00E948D0042E050E061E3E8
:100F600071E089E692E00E948D00CE010D960E940C
:100F70005D0280918901882359F180918B01803530
:100F800039F580918D01863019F55F9A8090900136
:100F900090909101982489249824B40197FE04C06C
:100FA0006627772768197909072E000C880B990B9B
:100FB000A70196010E94D8082093850130938601ED
:100FC000409387015093880197FE52C02D9A5F98F5
:100FD0004091C8015091C9016091CA017091CB0143
:100FE0008091810190918201A0918301B09184014F
:100FF000841B950BA60BB70B8997A105B10550F182
:101000008091850190918601A0918701B09188011E
:101010000297A105B105F4F040938101509382013C
:1010200060938301709384011C9B24C02C98809151
:10103000850190918601A0918701B0918801019767
:10104000A109B1098093850190938601A09387013E
:10105000B0938801109289010115110509F46ACE37
:101060000E94F700882309F461CE0E9400005ECE42
:101070002D98ADCF2C9AEECF8CE191E090936A023F
:101080008093690280917B0190917C018956924006
:1010900071F4E0917C02F0917D02908180917E025A
:1010A00080958923808310927C0110927B010895A2
:1010B0004532510520F4423010F00C946308FB01D6
:1010C0001082CB010895BB27FB015527AA27880F63
:1010D000991FAA1FA41710F0A41B83955051B9F7AC
:1010E000A05DAA3308F0A95DA193009779F7B1112B
:1010F000B1931192CB010C947D08DC01FC01672FA8
:1011000071917723E1F7329704C07C916D937083DE
:101110006291AE17BF07C8F308952F923F924F9286
:101120005F926F927F928F929F92AF92BF92CF9277
:10113000DF92EF92FF920F931F93CF93DF93CDB780
:10114000DEB7CA1BDB0B0FB6F894DEBF0FBECDBFF8
:1011500009942A88398848885F846E847D848C84C9
:101160009B84AA84B984C884DF80EE80FD800C81D2
:101170001B81AA81B981CE0FD11D0FB6F894DEBFB5
:101180000FBECDBFED01089597FB072E16F4009416
:1011900007D077FD09D00E94F70807FC05D03EF480
:1011A000909581959F4F0895709561957F4F089513
:1011B000052E97FB1EF400940E94EF0857FD07D000
:1011C0000E940B0907FC03D04EF40C94EF085095D5
:1011D0004095309521953F4F4F4F5F4F0895909523
:1011E0008095709561957F4F8F4F9F4F0895AA1BF3
:1011F000BB1B51E107C0AA1FBB1FA617B70710F002
:10120000A61BB70B881F991F5A95A9F78095909533
:10121000BC01CD010895A1E21A2EAA1BBB1BFD0142
:101220000DC0AA1FBB1FEE1FFF1FA217B307E407C5
:10123000F50720F0A21BB30BE40BF50B661F771F1D
:10124000881F991F1A9469F76095709580959095FD
:101250009B01AC01BD01CF010895EE0FFF1F05906A
:10126000F491E02D09940F931F93CF93DF93823075
:10127000910510F482E090E0E0918A02F0918B02F7
:1012800030E020E0B0E0A0E0309799F4211531057E
:1012900009F44AC0281B390B24303105D8F58A815E
:1012A0009B816115710589F1FB0193838283FE01A6
:1012B00011C0408151810281138148175907E0F024
:1012C0004817590799F4109761F012960C931297EA
:1012D00013961C933296CF01DF91CF911F910F91FE
:1012E000089500938A0210938B02F4CF21153105E3
:1012F00051F04217530738F0A901DB019A01BD01F3
:10130000DF01F801C1CFEF01F9CF90938B028093F9
:101310008A02CDCFFE01E20FF31F819391932250F9
:10132000310939832883D7CF2091880230918902EF
:10133000232B41F420910201309103013093890263
:10134000209388022091000130910101211531057F
:1013500041F42DB73EB74091040150910501241B83
:10136000350BE0918802F0918902E217F307A0F4AF
:101370002E1B3F0B2817390778F0AC014E5F5F4FEB
:101380002417350748F04E0F5F1F50938902409392
:101390008802819391939FCFF0E0E0E09CCFCF93C0
:1013A000DF930097E9F0FC01329713821282A0913B
:1013B0008A02B0918B02ED0130E020E01097A1F499
:1013C00020813181820F931F209188023091890200
:1013D0002817390709F061C0F0938902E093880269
:1013E000DF91CF910895EA01CE17DF07E8F54A8132
:1013F0005B819E0141155105B1F7E901FB83EA8349
:1014000049915991C40FD51FEC17FD0761F48081F4
:1014100091810296840F951FE901998388838281C7
:1014200093819B838A83F0E0E0E012968D919C91FA
:1014300013970097B9F52D913C911197CD01029624
:10144000820F931F20918802309189022817390753
:1014500039F6309751F510928B0210928A02B093B0
:101460008902A0938802BCCFD383C283408151817B
:10147000840F951FC817D90761F44E5F5F4F8881AD
:101480009981480F591F518340838A819B8193839F
:1014900082832115310509F0B0CFF0938B02E093E0
:1014A0008A029ECFFD01DC01C0CF13821282D7CF0A
:1014B000B0E0A0E0EEE5FAE00C948F088C01009714
:1014C00051F4CB010E9433098C01C801CDB7DEB7BE
:1014D000E0E10C94AB08FC01E60FF71F9C012250E1
:1014E0003109E217F30708F49DC0D901CD91DC91D1
:1014F0001197C617D70798F0C530D10530F3CE0144
:1015000004978617970708F3C61BD70B2297C1933A
:10151000D1936D937C93CF010E94CF09D6CF5B010D
:10152000AC1ABD0A4C018C0E9D1EA0918A02B0918E
:101530008B02512C412CF12CE12C109731F580912C
:101540008802909189028815990509F05CC04616B9
:10155000570608F058C08091000190910101009752
:1015600041F48DB79EB74091040150910501841B51
:10157000950BE817F90708F055C0F0938902E0933E
:101580008802F90171836083A0CF8D919C9111979E
:1015900012966C90129713967C901397A815B90524
:1015A00059F56C0142E0C40ED11CCA14DB0420F1D1
:1015B000AC014A195B09DA011296159780F0628234
:1015C000738251834083D9016D937C93E114F104BC
:1015D00071F0D7011396FC93EE93129776CF229673
:1015E0008C0F9D1FF90191838083F301EFCFF0935E
:1015F0008B02E0938A0269CF4816590608F42C0141
:101600007D01D3019ACFCB010E9433097C01009761
:1016100049F0AE01B8010E94150BC8010E94CF0924
:10162000870153CF10E000E050CFFB01DC0102C086
:1016300001900D9241505040D8F70895FB01DC0114
:1016400001900D920020E1F7089510E0C2E6D0E08D
:1016500004C0FE010E942D092196C336D107C9F7A7
:04166000F894FFCF2C
:1016640000008C028000000000002D018D00BA00F3
:101674007A01EB00C900DD0000000000B3018D0019
:101684004802B2010F0227029A012030002000090B
:04169400000D0A003B
:00000001FF
