:020000040000FA
:100000000C9463000C948B000C948B000C948C0467
:100010000C948C040C948C040C948B000C948B002A
:100020000C948B000C948B000C948B000C948B0024
:100030000C948B000C948B000C948B000C948B0014
:100040000C9442040C948B000C9410040C94EA035E
:100050000C948B000C948B000C948B000C948B00F4
:100060000C948B000C948B000000000024002700EF
:100070002A0000000008000201000003040700003D
:1000800000000000000000000000230026002900FE
:1000900000000000250028002B00040404040404D0
:1000A0000404020202020202030303030303010227
:1000B00004081020408001020408102001020408F6
:1000C00010203205510A11241FBECFEFD8E0DEBF49
:1000D000CDBF22E0A4E8B1E001C01D92A33EB2076B
:1000E000E1F711E0A0E0B1E0EEE8FAE102C005902E
:1000F0000D92A438B107D9F710E0C2E6D0E004C0F1
:100100002197FE010E94420BC136D107C9F70E9418
:10011000DD050C943A0D0C940000AF92BF92CF9283
:10012000DF92EF92FF920F931F93CF93DF936C01B7
:100130007B018B01040F151FEB015E01AE18BF0898
:10014000C017D10759F06991D601ED91FC9101904A
:10015000F081E02DC6010995892B79F7C501DF9162
:10016000CF911F910F91FF90EF90DF90CF90BF90B4
:10017000AF900895FC01538D448D252F30E0842FDE
:1001800090E0821B930B541710F0CF9608950197BF
:100190000895FC01918D828D981761F0A28DAE0FAC
:1001A000BF2FB11D5D968C91928D9F5F9F73928F33
:1001B00090E008958FEF9FEF0895FC01918D828D5F
:1001C000981731F0828DE80FF11D858D90E008952C
:1001D0008FEF9FEF0895FC01918D228D892F90E084
:1001E000805C9F4F821B91098F739927089583E24A
:1001F00092E00E94EB0021E0892B09F420E0822F9D
:10020000089580E090E0892B29F00E94F700811189
:100210000C9400000895FC01A48DA80FB92FB11D06
:10022000A35ABF4F2C91848D90E001968F7399272C
:10023000848FA689B7892C93A089B1898C9183700A
:1002400080648C93938D848D981306C00288F38903
:10025000E02D80818F7D80830895EF92FF920F9330
:100260001F93CF93DF93EC0181E0888F9B8D8C8D62
:1002700098131AC0E889F989808185FF15C09FB756
:10028000F894EE89FF896083E889F9898081837019
:10029000806480839FBF81E090E0DF91CF911F91C8
:1002A0000F91FF90EF900895F62E0B8D10E00F5FE9
:1002B0001F4F0F731127E02E8C8D8E110CC00FB6BF
:1002C00007FCFACFE889F989808185FFF5CFCE0157
:1002D0000E940B01F1CFEB8DEC0FFD2FF11DE35AC6
:1002E000FF4FF0829FB7F8940B8FEA89FB898081DA
:1002F0008062CFCFCF93DF93EC01888D8823B9F054
:10030000AA89BB89E889F9898C9185FD03C0808120
:1003100086FD0DC00FB607FCF7CF8C9185FFF2CF9D
:10032000808185FFEDCFCE010E940B01E9CFDF91E7
:10033000CF910895833081F028F4813099F0823094
:10034000A9F008958730A9F08830C9F08430B1F45D
:10035000809180008F7D03C0809180008F77809393
:100360008000089584B58F7784BD089584B58F7D0E
:10037000FBCF8091B0008F778093B000089580917B
:10038000B0008F7DF9CFCF93DF9390E0FC01E25571
:10039000FF4F249186569F4FFC0184918823C9F01A
:1003A00090E0880F991FFC01E859FF4FA591B49187
:1003B000FC01E057FF4FC591D49161110DC09FB76B
:1003C000F8948C91209582238C938881282328830C
:1003D0009FBFDF91CF910895623051F49FB7F89499
:1003E0003C91822F809583238C93E8812E2BEFCF35
:1003F0008FB7F894EC912E2B2C938FBFEACF3FB799
:10040000F8948091C5019091C601A091C701B09167
:10041000C80126B5A89B05C02F3F19F00196A11D64
:10042000B11D3FBFBA2FA92F982F8827BC01CD013E
:10043000620F711D811D911D42E0660F771F881F9D
:10044000991F4A95D1F708958F929F92AF92BF92CC
:10045000CF92DF92EF92FF924B015C010E94FF016D
:100460006B017C010E94FF016C197D098E099F09B7
:10047000683E734081059105A8F321E0821A910836
:10048000A108B10888EEC80E83E0D81EE11CF11C5B
:1004900081149104A104B10429F7FF90EF90DF903B
:1004A000CF90BF90AF909F908F9008952091CB01F7
:1004B0003091CC012817390771F49091C9018091CE
:1004C000CA01981741F0E091C901F0E0EC57FE4FE6
:1004D000808190E008958FEF9FEF08950895EF9247
:1004E000FF920F931F93CF93DF93DC015C96ED9007
:1004F000FC905D97E114F10479F481E090E01396AB
:100500009C938E93129790E080E0DF91CF911F91A2
:100510000F91FF90EF9008955196ED91FC915297B5
:1005200050968C915097982F90950FB75E962C917E
:100530005E97122F127021FD6095F894208111238F
:1005400019F1282B2083E7012197F1F728E0462FA6
:1005500050E0308160FF1AC0382B3083E7012197CB
:10056000F1F7BA0175956795215089F7112381F04C
:100570008081892380830FBF5C968D919C91019728
:10058000F1F781E090E0C1CF2923DCCF3923E5CF1B
:100590009081892BEFCF2091CB013091CC0128178E
:1005A000390771F48091CA012091C90190E0805C03
:1005B0009F4F821B910960E470E00E94D90A089560
:1005C00090E080E008952091CB013091CC01281774
:1005D0003907B9F49091C9018091CA01981789F03F
:1005E000E091C901F0E0EC57FE4F80812091C901F4
:1005F00030E02F5F3F4F2F7333272093C90190E0E6
:1006000008958FEF9FEF089590E080E00895FC013A
:1006100001900020E9F73197AF01481B590BBC014D
:1006200080EC92E00C948D00CF93DF930E9407033F
:10063000EC018BE291E00E9407038C0F9D1FDF917C
:10064000CF910895CF93DF93EC0188819981009732
:1006500011F00E94E40B198218821D821C821B82F9
:100660001A82DF91CF910895FC01808191810097DA
:1006700011F00C94E40B08950F931F93CF93DF9325
:10068000EC0188819981009759F02A813B812617D6
:10069000370730F081E0DF91CF911F910F910895DE
:1006A0008B016F5F7F4F0E946D0C009759F099830B
:1006B00088831B830A832C813D81232B59F7FC01FE
:1006C0001082E8CF80E0E7CFEF92FF920F931F9365
:1006D000CF93DF936115710541F480E0DF91CF91F5
:1006E0001F910F91FF90EF90089541155105B1F0C2
:1006F0007B01EC010C811D81040F151FB8010E94C4
:100700003C03882351F3288139818C819D81B70175
:10071000820F931F0E94330D1D830C8381E0DECF77
:10072000EF92FF920F931F93CF93DF93EC017B0126
:100730008A01BA010E943C0381110BC0CE010E94C4
:100740002203CE01DF91CF911F910F91FF90EF9087
:1007500008951D830C83B701888199810E94330D10
:10076000F0CFEF92FF920F931F93CF93DF93CDB70C
:10077000DEB729970FB6F894DEBF0FBECDBF8C0150
:10078000862FF80111821082138212821582148240
:1007900050E09E012F5F3F4F7901B90190E00E9428
:1007A0006D0AF70101900020E9F73197AF014E196A
:1007B0005F09B701C8010E94900329960FB6F8940B
:1007C000DEBF0FBECDBFDF91CF911F910F91FF9084
:1007D000EF9008951F920F920FB60F9211242F934E
:1007E0003F934F935F936F937F938F939F93AF93B9
:1007F000BF93EF93FF9383E292E00E940B01FF917E
:10080000EF91BF91AF919F918F917F916F915F9188
:100810004F913F912F910F900FBE0F901F90189501
:100820001F920F920FB60F9211242F938F939F93C5
:10083000EF93FF93E0913302F09134028081E091D5
:100840003902F0913A0282FD1BC0908180913C02F6
:100850008F5F8F7320913D02821741F0E0913C023F
:10086000F0E0ED5DFD4F958F80933C02FF91EF919D
:100870009F918F912F910F900FBE0F901F90189501
:100880008081F4CF1F920F920FB60F9211242F93F5
:100890003F938F939F93AF93BF938091CD0190919E
:1008A000CE01A091CF01B091D0013091C40123E0DD
:1008B000230F2D3758F50196A11DB11D2093C401BA
:1008C0008093CD019093CE01A093CF01B093D0013E
:1008D0008091C5019091C601A091C701B091C80156
:1008E0000196A11DB11D8093C5019093C601A093EF
:1008F000C701B093C801BF91AF919F918F913F9174
:100900002F910F900FBE0F901F90189526E8230F80
:100910000296A11DB11DD2CF1F920F920FB60F925A
:1009200011242F933F934F935F936F937F938F93F4
:100930009F93AF93BF93EF93FF93E091CB01F0911F
:10094000CC01309749F0A685B7858585968D91FFB6
:1009500014C09C918923A1F4FF91EF91BF91AF91B5
:100960009F918F917F916F915F914F913F912F91C7
:100970000F900FBE0F901F9018959C91892361F7DF
:10098000A389B4899C918589809589238C938689D4
:1009900097890197F1F7608D718DA685B78555858B
:1009A00038E020E0CB010197F1F7822F90E0959598
:1009B0008795282F4C91452309F02068315091F7F5
:1009C000868D81FD20958091CA0190E001968F73FC
:1009D00099273091C901381799F0A091CA01B0E068
:1009E000AC57BE4F2C938093CA01828D938D019793
:1009F000F1F7A389B4898C919589892B8C93ACCF1D
:100A0000868D8160868FF1CF1F93CF93DF93282F40
:100A100030E0F901EE58FF4F8491F901E255FF4FA4
:100A2000D491F901E656FF4FC491CC23A9F0162FBB
:100A300081110E949A01EC2FF0E0EE0FFF1FE057AA
:100A4000FF4FA591B4918FB7F894EC91111108C0A4
:100A5000D095DE23DC938FBFDF91CF911F91089556
:100A6000DE2BF8CF109226021092250288EE93E03A
:100A7000A0E0B0E08093270290932802A09329027F
:100A8000B0932A022BE031E030932402209323021A
:100A900025EC30E03093300220932F0224EC30E03C
:100AA000309332022093310220EC30E03093340254
:100AB0002093330221EC30E030933602209335024C
:100AC00022EC30E0309338022093370226EC30E0FD
:100AD00030933A022093390210923C0210923D0268
:100AE00010923E0210923F021092C3021092C20274
:100AF0008093C4029093C502A093C602B093C7022C
:100B00008DE191E09093C1028093C0021092D702D0
:100B10001092D6021092D9021092D8021092DB02E3
:100B20001092DA021092DD021092DC026091DE0275
:100B30006E7F6D7F6093DE026695617081E068274D
:100B400083E00E94040561E083E00E94C301E1EBC1
:100B5000F0E0E491E093D002EDE9F0E0E491F0E020
:100B6000EE0FFF1FE057FF4F859194919093D202B3
:100B70008093D10260E082E00E94C3018091DE0296
:100B800081FD04C061E082E00E94040582E0809360
:100B9000CC02E0EBF0E0E491E093CD02ECE9F0E090
:100BA000E491F0E0EE0FFF1FEA57FF4F859194911B
:100BB0009093CF028093CE020895CF93DF93CDB769
:100BC000DEB76A970FB6F894DEBF0FBECDBF78943C
:100BD00084B5826084BD84B5816084BD85B5826042
:100BE00085BD85B5816085BD80916E0081608093F3
:100BF0006E0010928100809181008260809381005C
:100C0000809181008160809381008091800081606B
:100C1000809380008091B10084608093B1008091C6
:100C2000B00081608093B00080917A0084608093EE
:100C30007A0080917A00826080937A0080917A00B5
:100C4000816080937A0080917A00806880937A0036
:100C50001092C100E0913302F091340282E080836F
:100C6000E0912F02F09130021082E0913102F09178
:100C7000320280E1808310923B02E0913702F091D2
:100C8000380286E08083E0913502F091360280815F
:100C900080618083E0913502F09136028081886026
:100CA0008083E0913502F0913602808180688083F4
:100CB000E0913502F091360280818F7D808381E062
:100CC00090E0A0E0B0E08093270290932802A093E8
:100CD0002902B0932A021092DB021092DA021092DB
:100CE000D9021092D8021092D7021092D6028FE148
:100CF00090E09093DD028093DC029091CC029631DB
:100D000008F047C021E030E03093D7022093D602AC
:100D10002DE130E03093D9022093D8022DE030E06D
:100D20003093DB022093DA022091680084E098304F
:100D300048F031E09E3008F430E081E001C0880FD7
:100D40003A95EAF7822B809368002DE630E09830E0
:100D500050F02BE630E09E3030F02CE630E096315B
:100D600010F030E020E03093D4022093D302292FFA
:100D700030E0983008F0CFC081E001C0880F9A952C
:100D8000EAF78093D5028091DC029091DD02019711
:100D9000F1F78091DA029091DB02892B49F1E09121
:100DA000CB01F091CC0102E0E03CF00709F1309773
:100DB00039F0A389B4899C918589809589238C9386
:100DC0008091DE028E7F8093DE021092CA01109223
:100DD000C90180EC92E09093CC018093CB01E0912B
:100DE000D302F091D40280819091D502892B808327
:100DF00081E090E0A0E0B0E08093C4029093C5024F
:100E0000A093C602B093C70283E391E00E9414034B
:100E1000549A62E085E00E94C301579A249A259A69
:100E2000239A209A219A229A5F985C982B982C9862
:100E30002D98289829982A988BE391E00E9407031F
:100E40008FE391E00E94070384E491E00E9407038E
:100E50008FE391E00E941403E7E7F0E08491E3EB75
:100E6000F0E00491EFE9F0E014911123A9F0811171
:100E70000E949A01E12FF0E0EE0FFF1FEA57FF4FAB
:100E8000A591B491EC91E02330E1432E37E2532E4B
:100E9000612C712CE1117BC289E491E00E94140362
:100EA0002D9828980CED15E02C98299861E070E0B9
:100EB00080E090E00E9424022C9A299A61E070E080
:100EC00080E090E00E9424020150110969F764EF6C
:100ED00071E080E090E00E9424022D9A289A0CEDA7
:100EE00015E02C98299861E070E080E090E00E9485
:100EF00024022C9A299A61E070E080E090E00E9440
:100F000024020150110969F764EF71E080E090E07C
:100F10000E942402C5CF9E3040F42850310981E060
:100F200001C0880F2A95EAF72CCF2E503109F7CF50
:100F30005F9A67C228E030E08FC28111BAC19093F6
:100F4000ED011092190280910302882309F469C00F
:100F50008091ED01823009F0C6C10091F10110913C
:100F6000F2011027012710278091EB019091EC01ED
:100F7000081B190BB80117FF04C066277727601BF1
:100F8000710B072E000C880B990B27E030E040E036
:100F900050E00E94ED0A2093E7013093E80140936E
:100FA000E9015093EA01283C3105410551050CF453
:100FB00083C1B092E601A092E5016091F3017091C6
:100FC000F4017627672776278091E3019091E40169
:100FD000681B790B7093E2016093E10177FF03C016
:100FE000719561957109072E000C880B990B27E00C
:100FF00030E040E050E00E94ED0A2093DD013093A4
:10100000DE014093DF015093E001101611060CF051
:1010100066C12D9A8091E1019091E20197FF61C133
:10102000289A0E94FF016093D9017093DA0180939E
:10103000DB019093DC012091D5013091D6014091E4
:10104000D7015091D8017B018C01E21AF30A040BFD
:10105000150BEB8AFC8A0D8B1E8B0091E50110911C
:10106000E601980150E040E0EB88FC880D891E897C
:101070002E153F0540075107D0F50091E70110916B
:10108000E8012091E9013091EA01023011052105C2
:1010900031056CF120910001222349F16093D501C3
:1010A0007093D6018093D7019093D8011C9B51C1B6
:1010B0002C982091E7013091E8014091E90150918D
:1010C000EA0121503109410951092093E701309388
:1010D000E8014093E9015093EA012D3731054105BC
:1010E00051050CF423C1B092E601A092E501809174
:1010F000D9019091DA01A091DB01B091DC0140911E
:10110000D1015091D2016091D3017091D4018C0131
:101110009D01041B150B260B370BB901A8014932A1
:1011200051056105710578F14091DD015091DE01B5
:101130006091DF017091E001423051056105710558
:1011400014F1209100012223F1F08093D1019093BA
:10115000D201A093D301B093D401199BFCC029986C
:101160008091DD019091DE01A091DF01B091E0015D
:101170000197A109B1098093DD019093DE01A0934D
:10118000DF01B093E00180910302882309F4F5C0E8
:101190004AE060910202CE0107960E94B1031A82D2
:1011A00019821C821B821E821D826F8178856115C7
:1011B000710531F04B855C85CE0101960E9490034C
:1011C00042E050E060E871E0CE0101960E946403C5
:1011D000811104C0CE0101960E9422031E861D8645
:1011E000188A1F861A8A198A69817A8161157105A0
:1011F00031F04D815E81CE010D960E949003CE01AB
:1012000001960E943403CE0107960E9434030DEE2E
:1012100011E020910202C8018D5E91402817190645
:1012200009F00CF49AC040E1F8016181CE01019609
:101230000E94B103F80181816EE271E0803110F00B
:1012400061E371E018861F821A8619861C861B8648
:10125000FB0101900020E9F73197AF01461B570BC6
:10126000CE0107960E9490034D815E8169817A814B
:10127000CE0107960E946403811104C0CE01079637
:101280000E9422034B855C856F817885CE010D9687
:101290000E946403CE0107960E943403CE0101969A
:1012A0000E9434030F5F1F4FB4CF853511F483E0E4
:1012B000F5C01092ED0145CE2B30310541055105A9
:1012C0002CF49092E6018092E50177CEC301B20141
:1012D0000E94ED0A3093E6012093E5016ECE2D9831
:1012E00099CE28989ECE833009F09BCE8091EF0155
:1012F000863089F48091F3019091F4019093EC0190
:101300008093EB018091F1019091F2019093E401BF
:101310008093E30186CE813019F48093000181CE61
:10132000823009F07ECE109200017BCE2B30310549
:10133000410551052CF49092E6018092E501D7CE4B
:10134000C301B2010E94ED0A3093E6012093E5014A
:10135000CECE2C9ACCCE299A16CF49895A896D8542
:101360007E8580EC92E00E948D008BE291E00E94ED
:101370000703CE010D960E9434031092030221143C
:10138000310481F00E94F70081110E94000088EE74
:10139000882E83E0982E98E2A92EB12C20E0222EF0
:1013A00020E0322E2FB7F8948091CD019091CE019C
:1013B000A091CF01B091D0012FBF80931F029093D5
:1013C0002002A0932102B093220240911B0250916F
:1013D0001C0260911D0270911E02841B950BA60BCE
:1013E000B70B0697A105B10510F01092190283E220
:1013F00092E00E94EB00892B09F4A5CD4F9B98CD7C
:101400005F9880911F0290912002A0912102B091DB
:10141000220280931B0290931C02A0931D02B093A2
:101420001E0283E292E00E94C90090911902E92F06
:10143000F0E0EC5FFD4F81839F5F90931902943041
:1014400008F481CD892F90E020910702222309F42E
:1014500071CD30E02B5F3F4F8217930709F073CDBA
:1014600030E020E047E1E4E0F2E0ADEEB1E00190F1
:101470000D924A95E1F72F5F3F4F2817390794F3F4
:1014800091E0909303028091EE01803509F00DCF39
:101490008091F001863009F050CD82E08093ED011B
:1014A00050CD8DE191E09093C1028093C002809174
:1014B000CB019091CC01805C924071F4E091D30219
:1014C000F091D40290818091D50280958923808308
:1014D0001092CC011092CB0108954532510520F4B1
:1014E000423010F00C94780AFB011082CB01089571
:1014F000BB27FB015527AA27880F991FAA1FA417EE
:1015000010F0A41B83955051B9F7A05DAA3308F0E1
:10151000A95DA193009779F7B111B1931192CB0115
:101520000C94920ADC01FC01672F71917723E1F79B
:10153000329704C07C916D9370836291AE17BF07A0
:10154000C8F308952F923F924F925F926F927F92CD
:101550008F929F92AF92BF92CF92DF92EF92FF92C3
:101560000F931F93CF93DF93CDB7DEB7CA1BDB0B6F
:101570000FB6F894DEBF0FBECDBF09942A88398814
:1015800048885F846E847D848C849B84AA84B9841B
:10159000C884DF80EE80FD800C811B81AA81B98127
:1015A000CE0FD11D0FB6F894DEBF0FBECDBFED013B
:1015B000089597FB072E16F4009407D077FD09D005
:1015C0000E940C0B07FC05D03EF4909581959F4F2F
:1015D0000895709561957F4F0895052E97FB1EF431
:1015E00000940E94040B57FD07D00E94200B07FCBB
:1015F00003D04EF40C94040B5095409530952195F2
:101600003F4F4F4F5F4F089590958095709561952E
:101610007F4F8F4F9F4F0895AA1BBB1B51E107C0FF
:10162000AA1FBB1FA617B70710F0A61BB70B881F72
:10163000991F5A95A9F780959095BC01CD01089501
:10164000A1E21A2EAA1BBB1BFD010DC0AA1FBB1FC6
:10165000EE1FFF1FA217B307E407F50720F0A21B38
:10166000B30BE40BF50B661F771F881F991F1A94A5
:1016700069F760957095809590959B01AC01BD01CF
:10168000CF010895EE0FFF1F0590F491E02D09940E
:101690000F931F93CF93DF938230910510F482E074
:1016A00090E0E091E102F091E20230E020E0B0E071
:1016B000A0E0309799F42115310509F44AC0281BA0
:1016C000390B24303105D8F58A819B81611571056C
:1016D00089F1FB0193838283FE0111C04081518116
:1016E0000281138148175907E0F04817590799F408
:1016F000109761F012960C93129713961C933296E2
:10170000CF01DF91CF911F910F9108950093E102D6
:101710001093E202F4CF2115310551F0421753071F
:1017200038F0A901DB019A01BD01DF01F801C1CF49
:10173000EF01F9CF9093E2028093E102CDCFFE0159
:10174000E20FF31F8193919322503109398328834B
:10175000D7CF2091DF023091E002232B41F420917A
:101760000301309104013093E0022093DF022091C5
:101770000101309102012115310541F42DB73EB729
:101780004091050150910601241B350BE091DF02C9
:10179000F091E002E217F307A0F42E1B3F0B28178D
:1017A000390778F0AC014E5F5F4F2417350748F0DA
:1017B0004E0F5F1F5093E0024093DF02819391939D
:1017C0009FCFF0E0E0E09CCFCF93DF930097E9F06C
:1017D000FC01329713821282A091E102B091E202E1
:1017E000ED0130E020E01097A1F420813181820FDB
:1017F000931F2091DF023091E0022817390709F08A
:1018000061C0F093E002E093DF02DF91CF91089591
:10181000EA01CE17DF07E8F54A815B819E01411599
:101820005105B1F7E901FB83EA8349915991C40F4E
:10183000D51FEC17FD0761F4808191810296840F1A
:10184000951FE90199838883828193819B838A8391
:10185000F0E0E0E012968D919C9113970097B9F516
:101860002D913C911197CD010296820F931F2091EB
:10187000DF023091E0022817390739F6309751F529
:101880001092E2021092E102B093E002A093DF0214
:10189000BCCFD383C28340815181840F951FC81769
:1018A000D90761F44E5F5F4F88819981480F591FB6
:1018B000518340838A819B819383828321153105E3
:1018C00009F0B0CFF093E202E093E1029ECFFD0178
:1018D000DC01C0CF13821282D7CFB0E0A0E0E3E7F3
:1018E000FCE00C94A40A8C01009751F4CB010E94F7
:1018F000480B8C01C801CDB7DEB7E0E10C94C00AFB
:10190000FC01E60FF71F9C0122503109E217F30793
:1019100008F49DC0D901CD91DC911197C617D70766
:1019200098F0C530D10530F3CE010497861797079C
:1019300008F3C61BD70B2297C193D1936D937C9369
:10194000CF010E94E40BD6CF5B01AC1ABD0A4C015B
:101950008C0E9D1EA091E102B091E202512C412C0F
:10196000F12CE12C109731F58091DF029091E0028B
:101970008815990509F05CC04616570608F058C04E
:101980008091010190910201009741F48DB79EB7BB
:101990004091050150910601841B950BE817F9074A
:1019A00008F055C0F093E002E093DF02F901718383
:1019B0006083A0CF8D919C91119712966C90129795
:1019C00013967C901397A815B90559F56C0142E060
:1019D000C40ED11CCA14DB0420F1AC014A195B0906
:1019E000DA011296159780F06282738251834083E8
:1019F000D9016D937C93E114F10471F0D701139632
:101A0000FC93EE93129776CF22968C0F9D1FF901CF
:101A100091838083F301EFCFF093E202E093E10240
:101A200069CF4816590608F42C017D01D3019ACFDD
:101A3000CB010E94480B7C01009749F0AE01B80130
:101A40000E942A0DC8010E94E40B870153CF10E0C9
:101A500000E050CFFB01DC0102C001900D9241502B
:101A60005040D8F70895FB01DC0101900D92002051
:101A7000E1F7089510E0C2E6D0E004C0FE010E9444
:101A8000420B2196C336D107C9F7F894FFCF010066
:101A900000E3028000000000002D018D00BA007AF2
:101AA00001EB00C900DD00000000006F028D0004A2
:101AB000036E02CB02E30256020D0A002030002022
:101AC000000A3131353230300048533A00747275B3
:101AD00065002053533A00494E464F3A20537461F3
:101AE00072742073656C66746573742C206368650A
:101AF000636B206A756D70657220616E642072651B
:101B0000736574762061726475696E6F2E003A0990
:021B10000000D3
:107E0000112484B714BE81FFF0D085E080938100F7
:107E100082E08093C00088E18093C10086E0809377
:107E2000C20080E18093C4008EE0C9D0259A86E02C
:107E300020E33CEF91E0309385002093840096BBD3
:107E4000B09BFECF1D9AA8958150A9F7CC24DD24C4
:107E500088248394B5E0AB2EA1E19A2EF3E0BF2EE7
:107E6000A2D0813461F49FD0082FAFD0023811F036
:107E7000013811F484E001C083E08DD089C08234E0
:107E800011F484E103C0853419F485E0A6D080C0E4
:107E9000853579F488D0E82EFF2485D0082F10E0AE
:107EA000102F00270E291F29000F111F8ED06801E7
:107EB0006FC0863521F484E090D080E0DECF843638
:107EC00009F040C070D06FD0082F6DD080E0C81688
:107ED00080E7D80618F4F601B7BEE895C0E0D1E017
:107EE00062D089930C17E1F7F0E0CF16F0E7DF06D8
:107EF00018F0F601B7BEE89568D007B600FCFDCFD4
:107F0000A601A0E0B1E02C9130E011968C91119780
:107F100090E0982F8827822B932B1296FA010C0160
:107F200087BEE89511244E5F5F4FF1E0A038BF0790
:107F300051F7F601A7BEE89507B600FCFDCF97BE46
:107F4000E89526C08437B1F42ED02DD0F82E2BD052
:107F50003CD0F601EF2C8F010F5F1F4F84911BD097
:107F6000EA94F801C1F70894C11CD11CFA94CF0C13
:107F7000D11C0EC0853739F428D08EE10CD085E9AC
:107F80000AD08FE07ACF813511F488E018D01DD067
:107F900080E101D065CF982F8091C00085FFFCCF94
:107FA0009093C60008958091C00087FFFCCF809118
:107FB000C00084FD01C0A8958091C6000895E0E648
:107FC000F0E098E1908380830895EDDF803219F02E
:107FD00088E0F5DFFFCF84E1DECF1F93182FE3DFCA
:107FE0001150E9F7F2DF1F91089580E0E8DFEE27F6
:047FF000FF270994CA
:027FFE00040479
:00000001FF
