:020000040000FA
:100000000C9463000C948B000C948B000C94C20332
:100010000C94C2030C94C2030C948B000C948B00C0
:100020000C948B000C948B000C948B000C948B0024
:100030000C948B000C948B000C948B000C948B0014
:100040000C9478030C948B000C9446030C942003BE
:100050000C948B000C948B000C948B000C948B00F4
:100060000C948B000C948B0000000008000201002F
:100070000003040700000000000000000000000072
:1000800023002600290000000000240027002A0089
:1000900000000000250028002B00040404040404D0
:1000A0000404020202020202030303030303010227
:1000B00004081020408001020408102001020408F6
:1000C000102086049A0911241FBECFEFD8E0DEBFAE
:1000D000CDBF22E0ACE4B1E001C01D92A73AB20767
:1000E000E1F711E0A0E0B1E0E0E2F9E102C0059043
:1000F0000D92AC34B107D9F710E0C2E6D0E004C0ED
:100100002197FE010E948B0AC136D107C9F70E94D0
:100110006F050C94830C0C940000AF92BF92CF92A9
:10012000DF92EF92FF920F931F93CF93DF936C01B7
:100130007B018B01040F151FEB015E01AE18BF0898
:10014000C017D10759F06991D601ED91FC9101904A
:10015000F081E02DC6010995892B79F7C501DF9162
:10016000CF911F910F91FF90EF90DF90CF90BF90B4
:10017000AF900895FC01538D448D252F30E0842FDE
:1001800090E0821B930B541710F0CF9608950197BF
:100190000895FC01918D828D981761F0A28DAE0FAC
:1001A000BF2FB11D5D968C91928D9F5F9F73928F33
:1001B00090E008958FEF9FEF0895FC01918D828D5F
:1001C000981731F0828DE80FF11D858D90E008952C
:1001D0008FEF9FEF0895FC01918D228D892F90E084
:1001E000805C9F4F821B91098F739927089587EE3A
:1001F00091E00E94EB0021E0892B09F420E0822F9E
:10020000089580E090E0892B29F00E94F700811189
:100210000C9400000895FC01A48DA80FB92FB11D06
:10022000A35ABF4F2C91848D90E001968F7399272C
:10023000848FA689B7892C93A089B1898C9183700A
:1002400080648C93938D848D981306C00288F38903
:10025000E02D80818F7D80830895EF92FF920F9330
:100260001F93CF93DF93EC0181E0888F9B8D8C8D62
:1002700098131AC0E889F989808185FF15C09FB756
:10028000F894EE89FF896083E889F9898081837019
:10029000806480839FBF81E090E0DF91CF911F91C8
:1002A0000F91FF90EF900895F62E0B8D10E00F5FE9
:1002B0001F4F0F731127E02E8C8D8E110CC00FB6BF
:1002C00007FCFACFE889F989808185FFF5CFCE0157
:1002D0000E940B01F1CFEB8DEC0FFD2FF11DE35AC6
:1002E000FF4FF0829FB7F8940B8FEA89FB898081DA
:1002F0008062CFCFCF93DF93EC01888D8823B9F054
:10030000AA89BB89E889F9898C9185FD03C0808120
:1003100086FD0DC00FB607FCF7CF8C9185FFF2CF9D
:10032000808185FFEDCFCE010E940B01E9CFDF91E7
:10033000CF910895209193013091940128173907A6
:1003400071F49091910180919201981741F0E091A0
:100350009101F0E0E45BFE4F808190E008958FEF23
:100360009FEF08950895EF92FF920F931F93CF93FD
:10037000DF93DC015C96ED90FC905D97E114F10455
:1003800079F481E090E013969C938E93129790E01D
:1003900080E0DF91CF911F910F91FF90EF90089532
:1003A0005196ED91FC91529750968C915097982FC1
:1003B00090950FB75E962C915E97122F127021FDCB
:1003C0006095F8942081112319F1282B2083E701EF
:1003D0002197F1F728E0462F50E0308160FF1AC0E6
:1003E000382B3083E7012197F1F7BA0175956795AE
:1003F000215089F7112381F08081892380830FBFE9
:100400005C968D919C910197F1F781E090E0C1CFCE
:100410002923DCCF3923E5CF9081892BEFCF2091A1
:100420009301309194012817390771F4809192015A
:100430002091910190E0805C9F4F821B910960E4C4
:1004400070E00E94220A089590E080E008952091D3
:1004500093013091940128173907B9F490919101D3
:1004600080919201981789F0E0919101F0E0E45BAE
:10047000FE4F80812091910130E02F5F3F4F2F731D
:1004800033272093910190E008958FEF9FEF089517
:1004900090E080E00895FC0101900020E9F7319799
:1004A000AF01481B590BBC0184E892E00C948D000D
:1004B000CF93DF93EC0188819981009711F00E941E
:1004C0002D0B198218821D821C821B821A82DF91D9
:1004D000CF910895FC0180819181009711F00C94D7
:1004E0002D0B08950F931F93CF93DF93EC01888119
:1004F0009981009759F02A813B812617370730F000
:1005000081E0DF91CF911F910F9108958B016F5F73
:100510007F4F0E94B60B009759F0998388831B8305
:100520000A832C813D81232B59F7FC011082E8CFEF
:1005300080E0E7CFEF92FF920F931F93CF93DF936B
:100540006115710541F480E0DF91CF911F910F910A
:10055000FF90EF90089541155105B1F07B01EC013A
:100560000C811D81040F151FB8010E94720288239F
:1005700051F3288139818C819D81B701820F931FAE
:100580000E947C0C1D830C8381E0DECFEF92FF92F2
:100590000F931F93CF93DF93EC017B018A01BA0184
:1005A0000E94720281110BC0CE010E945802CE013E
:1005B000DF91CF911F910F91FF90EF9008951D83D0
:1005C0000C83B701888199810E947C0CF0CFEF9257
:1005D000FF920F931F93CF93DF93CDB7DEB7299789
:1005E0000FB6F894DEBF0FBECDBF8C01862FF80189
:1005F00011821082138212821582148250E09E01B1
:100600002F5F3F4F7901B90190E00E94B609F701D1
:1006100001900020E9F73197AF014E195F09B7014A
:10062000C8010E94C60229960FB6F894DEBF0FBE1D
:10063000CDBFDF91CF911F910F91FF90EF90089563
:100640001F920F920FB60F9211242F933F934F9347
:100650005F936F937F938F939F93AF93BF93EF932A
:10066000FF9387EE91E00E940B01FF91EF91BF9104
:10067000AF919F918F917F916F915F914F913F913A
:100680002F910F900FBE0F901F9018951F920F92F1
:100690000FB60F9211242F938F939F93EF93FF9395
:1006A000E091F701F091F8018081E091FD01F09176
:1006B000FE0182FD1BC09081809100028F5F8F73CD
:1006C00020910102821741F0E0910002F0E0E9512F
:1006D000FE4F958F80930002FF91EF919F918F9134
:1006E0002F910F900FBE0F901F9018958081F4CF1F
:1006F0001F920F920FB60F9211242F933F938F9357
:100700009F93AF93BF9380918D0190918E01A091A3
:100710008F01B091900130918C0123E0230F2D3790
:1007200058F50196A11DB11D20938C0180938D0178
:1007300090938E01A0938F01B093900180919501C9
:1007400090919601A0919701B09198010196A11DF9
:10075000B11D8093950190939601A0939701B0935A
:100760009801BF91AF919F918F913F912F910F90E1
:100770000FBE0F901F90189526E8230F0296A11D1B
:10078000B11DD2CF1F920F920FB60F9211242F934B
:100790003F934F935F936F937F938F939F93AF9309
:1007A000BF93EF93FF93E0919301F0919401309701
:1007B00049F0A685B7858585968D91FF14C09C91DB
:1007C0008923A1F4FF91EF91BF91AF919F918F91F8
:1007D0007F916F915F914F913F912F910F900FBE3D
:1007E0000F901F9018959C91892361F7A389B48974
:1007F0009C918589809589238C9386899789019717
:10080000F1F7608D718DA685B785558538E020E0BC
:10081000CB010197F1F7822F90E095958795282FCE
:100820004C91452309F02068315091F7868D81FD68
:1008300020958091920190E001968F7399273091D5
:100840009101381799F0A0919201B0E0A45BBE4FDE
:100850002C9380939201828D938D0197F1F7A38958
:10086000B4898C919589892B8C93ACCF868D8160CE
:10087000868FF1CF90E0FC01E859FF4F2491FC01F5
:10088000E255FF4F3491FC01E656FF4FE491EE2311
:10089000C9F0222339F0233001F1A8F4213019F1F5
:1008A000223029F1F0E0EE0FFF1FE057FF4FA59136
:1008B000B4918FB7F894EC91611126C030953E2326
:1008C0003C938FBF08952730A9F02830C9F0243019
:1008D00049F7809180008F7D03C0809180008F77E1
:1008E00080938000DFCF84B58F7784BDDBCF84B564
:1008F0008F7DFBCF8091B0008F778093B000D2CFF7
:100900008091B0008F7DF9CF3E2BDACF0F931F93EC
:10091000CF93DF931092EA011092E90188EE93E001
:10092000A0E0B0E08093EB019093EC01A093ED0187
:10093000B093EE012BE031E03093E8012093E70122
:1009400025EC30E03093F4012093F30124EC30E007
:100950003093F6012093F50120EC30E03093F8015C
:100960002093F70121EC30E03093FA012093F90154
:1009700022EC30E03093FC012093FB0126EC30E0C8
:100980003093FE012093FD011092000210920102AB
:1009900010920202109203021092870210928602B5
:1009A0008093880290938902A0938A02B0938B026D
:1009B0008DE191E0909385028093840210929B02D6
:1009C00010929A0210929D0210929C0210929F0225
:1009D00010929E021092A1021092A0026091A202B7
:1009E0006E7F6D7F6093A2026695617081E06827DB
:1009F00083E00E943A0441EB50E0FA0164918DE9F2
:100A000090E0FC012491222399F030E0220F331F63
:100A1000F901EA57FF4FA591B491F901E057FF4F53
:100A2000259134912FB7F8943C91632B6C932FBF91
:100A3000FA01449140939402FC018491E82FF0E084
:100A4000EE0FFF1FE057FF4F859194919093960210
:100A50008093950200EB10E0F8012491CCE9D0E0FE
:100A6000FE0184918823C9F090E0880F991FFC0152
:100A7000EA57FF4FA591B491FC01E057FF4F459114
:100A800054913FB7F8949C91822F809598239C9322
:100A9000FA019081892380833FBF8091A20281FD6A
:100AA00004C061E082E00E943A0482E080939002F8
:100AB000F801049100939102FE01C491EC2FF0E043
:100AC000EE0FFF1FE458FF4F85919491909393028E
:100AD00080939202DF91CF911F910F910895CF9350
:100AE000DF93CDB7DEB763970FB6F894DEBF0FBEC6
:100AF000CDBF789484B5826084BD84B5816084BDA7
:100B000085B5826085BD85B5816085BD80916E00AB
:100B1000816080936E0010928100809181008260DC
:100B20008093810080918100816080938100809119
:100B300080008160809380008091B1008460809308
:100B4000B1008091B00081608093B00080917A0004
:100B5000846080937A0080917A00826080937A002A
:100B600080917A00816080937A0080917A00806819
:100B700080937A001092C100E091F701F091F801A2
:100B800082E08083E091F301F091F4011082E09122
:100B9000F501F091F60180E180831092FF01E09170
:100BA000FB01F091FC0186E08083E091F901F09176
:100BB000FA01808180618083E091F901F091FA016E
:100BC000808188608083E091F901F091FA01808151
:100BD00080688083E091F901F091FA0180818F7D36
:100BE000808381E090E0A0E0B0E08093EB019093FF
:100BF000EC01A093ED01B093EE0110929F021092D0
:100C00009E0210929D0210929C0210929B021092E2
:100C10009A028FE190E09093A1028093A0029091BC
:100C20009002963108F047C021E030E030939B02FB
:100C300020939A022DE130E030939D0220939C0294
:100C40002DE030E030939F0220939E0220916800B7
:100C500084E0983048F031E09E3008F430E081E0E4
:100C600001C0880F3A95EAF7822B809368002DE641
:100C700030E0983050F02BE630E09E3030F02CE63B
:100C800030E0963110F030E020E03093980220936D
:100C90009702292F30E0983008F0D5C081E001C0DC
:100CA000880F9A95EAF7809399028091A00290911B
:100CB000A1020197F1F780919E0290919F02892BEA
:100CC00049F1E0919301F091940102E0E438F007DA
:100CD00009F1309739F0A389B4899C918589809571
:100CE00089238C938091A2028E7F8093A20210921E
:100CF00092011092910184E892E090939401809384
:100D00009301E0919702F09198028081909199026D
:100D1000892B808381E090E0A0E0B0E0809388029E
:100D200090938902A0938A02B0938B0280E391E0B2
:100D30000E944B0288E391E00E944B02549A579A1A
:100D4000249A259A239A209A219A229A5F985C984D
:100D50002B982C982D98289829982A988BE391E025
:100D60000E944B028FE391E00E944B0284E491E0E9
:100D70000E944B028FE391E00E944B0288E391E0D6
:100D80000E944B02E7E0CE2ED12CE12CF12CF0E1B9
:100D90004F2EF7E25F2E612C712C58EE852E53E01A
:100DA000952E68E2A62EB12C70E0272E70E0372E2B
:100DB00087EE91E00E94EB00892B09F45AC05F9AFC
:100DC00087EE91E00E94C900982F803511F085359B
:100DD00011F41092E5018091E501E82FF0E0E05375
:100DE000FE4F91838F5F8093E501843008F441C00A
:100DF00090E02091D301222399F130E02B5F3F4F07
:100E000082179307B1F530E020E047E1E0EDF1E033
:100E1000A9EBB1E001900D924A95E1F72F5F3F4FAA
:100E20002817390794F391E09093CF018091BA018C
:100E3000803509F004C28091BC018630A1F482E0C3
:100E40008093B90114C09E3040F42850310981E0EC
:100E500001C0880F2A95EAF726CF2E503109F7CF27
:100E600028E030E0CDCF8111EEC19093B90110920E
:100E7000E5015F988091CF01882309F473C08091C8
:100E8000B901823009F0FEC15F9A1091B9011B8B44
:100E9000123009F0DBC10091BD011091BE01102795
:100EA000012710278091B7019091B801081B190BF9
:100EB000B80117FF04C066277727601B710B072E48
:100EC000000C880B990BA70196010E94360A20930B
:100ED000B3013093B4014093B5015093B601283C5F
:100EE0003105410551050CF4B6C1B092B201A09292
:100EF000B1012B896091BD017091BE01223039F49E
:100F00006091BF017091C001762767277627809195
:100F1000AF019091B001681B790B7093AE016093A3
:100F2000AD0177FF03C0719561957109072E000C23
:100F3000880B990BA70196010E94360A2093A901FC
:100F40003093AA014093AB015093AC0110161106E7
:100F50000CF094C12D9A8091AD019091AE0197FF54
:100F60008FC1289A5F983FB7F8948091950190912E
:100F70009601A0919701B091980126B5A89B05C054
:100F80002F3F19F00196A11DB11D3FBFBA2FA92F08
:100F9000982F8827820F911DA11DB11D42E0880F57
:100FA000991FAA1FBB1F4A95D1F78093A501909363
:100FB000A601A093A701B093A8018093A1019093EB
:100FC000A201A093A301B093A4015F9A4091A5014F
:100FD0005091A6016091A7017091A80180919D0197
:100FE00090919E01A0919F01B091A0018A019B0167
:100FF000081B190B2A0B3B0B8091B1019091B20198
:10100000B0E0A0E080179107A207B307C8F5809170
:10101000B3019091B401A091B501B091B6010297CE
:10102000A105B1056CF180910001882349F140933D
:101030009D0150939E0160939F017093A0011C9BA2
:1010400057C12C982091B3013091B4014091B50162
:101050005091B60121503109410951092093B30142
:101060003093B4014093B5015093B6012D3731054B
:10107000410551050CF429C1B092B201A092B10111
:101080008091A1019091A201A091A301B091A4012E
:101090004091990150919A0160919B0170919C013E
:1010A0008C019D01041B150B260B370BB901A80100
:1010B000493251056105710578F14091A9015091BE
:1010C000AA016091AB017091AC01423051056105FC
:1010D000710514F1209100012223F1F08093990110
:1010E00090939A01A0939B01B0939C01199B02C11C
:1010F00029988091A9019091AA01A091AB01B0918A
:10110000AC010197A109B1098093A9019093AA01AB
:10111000A093AB01B093AC015F988091CF0188237D
:1011200009F4FAC04AE06091CE01CE0107960E9410
:10113000E7021A8219821C821B821E821D826F8125
:1011400078856115710531F04B855C85CE0101967E
:101150000E94C60242E050E069E471E0CE010196CF
:101160000E949A02811104C0CE0101960E94580289
:101170001E861D86188A1F861A8A198A69817A81B5
:101180006115710531F04D815E81CE010D960E9491
:10119000C602CE0101960E946A02CE0107960E9405
:1011A0006A0209EB11E02091CE01C801895B9140F0
:1011B0002817190609F00CF49FC040E1F80161817D
:1011C000CE0101960E94E702F80181816BE271E095
:1011D000803110F06EE271E018861F821A8619863F
:1011E0001C861B86FB0101900020E9F73197AF01B7
:1011F000461B570BCE0107960E94C6024D815E81A9
:1012000069817A81CE0107960E949A02811104C0F9
:10121000CE0107960E9458024B855C856F817885C8
:10122000CE010D960E949A02CE0107960E946A0294
:10123000CE0101960E946A020F5F1F4FB4CF853521
:1012400011F483E0FDCD1092B90111CE0091BF01E0
:101250001091C00127CE2B303105410551052CF4EA
:101260009092B2018092B10144CEC301B2010E94BA
:10127000360A3093B2012093B1013BCE2D986BCE4C
:10128000289870CE833009F06DCE8091BB018630F6
:1012900089F48091BF019091C0019093B80180932F
:1012A000B7018091BD019091BE019093B0018093F0
:1012B000AF0158CE813019F48093000153CE8230B3
:1012C00009F050CE109200014DCE2B303105410572
:1012D00051052CF49092B2018092B101D1CEC3019C
:1012E000B2010E94360A3093B2012093B101C8CEF8
:1012F0002C9AC6CE299A10CF49895A896D857E8548
:1013000084E892E00E948D0088E391E00E944B0205
:10131000CE010D960E946A021092CF012114310471
:1013200009F446CD0E94F700882309F436CD0E94C7
:10133000000033CD8DE191E090938502809384028B
:1013400080919301909194018458924071F4E091BE
:101350009702F0919802908180919902809589235B
:1013600080831092940110929301089545325105A3
:1013700020F4423010F00C94C109FB011082CB0123
:101380000895BB27FB015527AA27880F991FAA1F7D
:10139000A41710F0A41B83955051B9F7A05DAA3390
:1013A00008F0A95DA193009779F7B111B19311925B
:1013B000CB010C94DB09DC01FC01672F71917723D1
:1013C000E1F7329704C07C916D9370836291AE1700
:1013D000BF07C8F308952F923F924F925F926F928A
:1013E0007F928F929F92AF92BF92CF92DF92EF92B5
:1013F000FF920F931F93CF93DF93CDB7DEB7CA1B36
:10140000DB0B0FB6F894DEBF0FBECDBF09942A8860
:10141000398848885F846E847D848C849B84AA8408
:10142000B984C884DF80EE80FD800C811B81AA8195
:10143000B981CE0FD11D0FB6F894DEBF0FBECDBF60
:10144000ED01089597FB072E16F4009407D077FD61
:1014500009D00E94550A07FC05D03EF4909581956D
:101460009F4F0895709561957F4F0895052E97FBC6
:101470001EF400940E944D0A57FD07D00E94690A8D
:1014800007FC03D04EF40C944D0A509540953095CE
:1014900021953F4F4F4F5F4F0895909580957095E0
:1014A00061957F4F8F4F9F4F0895AA1BBB1B51E142
:1014B00007C0AA1FBB1FA617B70710F0A61BB70BC4
:1014C000881F991F5A95A9F780959095BC01CD0169
:1014D0000895A1E21A2EAA1BBB1BFD010DC0AA1F75
:1014E000BB1FEE1FFF1FA217B307E407F50720F08D
:1014F000A21BB30BE40BF50B661F771F881F991F08
:101500001A9469F760957095809590959B01AC0150
:10151000BD01CF010895EE0FFF1F0590F491E02D5E
:1015200009940F931F93CF93DF938230910510F4AA
:1015300082E090E0E091A502F091A60230E020E088
:10154000B0E0A0E0309799F42115310509F44AC0C4
:10155000281B390B24303105D8F58A819B81611510
:10156000710589F1FB0193838283FE0111C04081E3
:1015700051810281138148175907E0F04817590734
:1015800099F4109761F012960C93129713961C938E
:101590003296CF01DF91CF911F910F910895009363
:1015A000A5021093A602F4CF2115310551F0421780
:1015B000530738F0A901DB019A01BD01DF01F801F1
:1015C000C1CFEF01F9CF9093A6028093A502CDCFB2
:1015D000FE01E20FF31F8193919322503109398369
:1015E0002883D7CF2091A3023091A402232B41F46A
:1015F00020910301309104013093A4022093A302AF
:1016000020910101309102012115310541F42DB7DE
:101610003EB74091050150910601241B350BE09126
:10162000A302F091A402E217F307A0F42E1B3F0BD4
:101630002817390778F0AC014E5F5F4F2417350744
:1016400048F04E0F5F1F5093A4024093A302819372
:1016500091939FCFF0E0E0E09CCFCF93DF93009792
:10166000E9F0FC01329713821282A091A502B09199
:10167000A602ED0130E020E01097A1F42081318135
:10168000820F931F2091A3023091A40228173907DB
:1016900009F061C0F093A402E093A302DF91CF911F
:1016A0000895EA01CE17DF07E8F54A815B819E01C4
:1016B00041155105B1F7E901FB83EA83499159913D
:1016C000C40FD51FEC17FD0761F48081918102964C
:1016D000840F951FE90199838883828193819B837D
:1016E0008A83F0E0E0E012968D919C911397009729
:1016F000B9F52D913C911197CD010296820F931F60
:101700002091A3023091A4022817390739F63097A7
:1017100051F51092A6021092A502B093A402A093D4
:10172000A302BCCFD383C28340815181840F951F14
:10173000C817D90761F44E5F5F4F88819981480FC0
:10174000591F518340838A819B8193838283211512
:10175000310509F0B0CFF093A602E093A5029ECF29
:10176000FD01DC01C0CF13821282D7CFB0E0A0E030
:10177000ECEBFBE00C94ED098C01009751F4CB01EC
:101780000E94910A8C01C801CDB7DEB7E0E10C944C
:10179000090AFC01E60FF71F9C0122503109E217EC
:1017A000F30708F49DC0D901CD91DC911197C617BC
:1017B000D70798F0C530D10530F3CE0104978617CE
:1017C000970708F3C61BD70B2297C193D1936D934C
:1017D0007C93CF010E942D0BD6CF5B01AC1ABD0AC2
:1017E0004C018C0E9D1EA091A502B091A602512C19
:1017F000412CF12CE12C109731F58091A3029091AE
:10180000A4028815990509F05CC04616570608F031
:1018100058C08091010190910201009741F48DB769
:101820009EB74091050150910601841B950BE81766
:10183000F90708F055C0F093A402E093A302F90160
:1018400071836083A0CF8D919C91119712966C90BB
:10185000129713967C901397A815B90559F56C014A
:1018600042E0C40ED11CCA14DB0420F1AC014A19B9
:101870005B09DA011296159780F0628273825183B8
:101880004083D9016D937C93E114F10471F0D70189
:101890001396FC93EE93129776CF22968C0F9D1F92
:1018A000F90191838083F301EFCFF093A602E093D7
:1018B000A50269CF4816590608F42C017D01D30111
:1018C0009ACFCB010E94910A7C01009749F0AE01AA
:1018D000B8010E94730CC8010E942D0B870153CFE1
:1018E00010E000E050CFFB01DC0102C001900D923E
:1018F00041505040D8F70895FB01DC0101900D9252
:101900000020E1F7089510E0C2E6D0E004C0FE0137
:101910000E948B0A2196C336D107C9F7F894FFCFEE
:10192000010000A7028000000000002D018D00BA18
:10193000007A01EB00C900DD0000000000B3018D5A
:10194000004802B2010F0227029A01203000200055
:101950000A313135323030000D0A0048533A0074F4
:0C196000727565002053533A003A0900EC
:107E0000112484B714BE81FFF0D085E080938100F7
:107E100082E08093C00088E18093C10086E0809377
:107E2000C20080E18093C4008EE0C9D0259A86E02C
:107E300020E33CEF91E0309385002093840096BBD3
:107E4000B09BFECF1D9AA8958150A9F7CC24DD24C4
:107E500088248394B5E0AB2EA1E19A2EF3E0BF2EE7
:107E6000A2D0813461F49FD0082FAFD0023811F036
:107E7000013811F484E001C083E08DD089C08234E0
:107E800011F484E103C0853419F485E0A6D080C0E4
:107E9000853579F488D0E82EFF2485D0082F10E0AE
:107EA000102F00270E291F29000F111F8ED06801E7
:107EB0006FC0863521F484E090D080E0DECF843638
:107EC00009F040C070D06FD0082F6DD080E0C81688
:107ED00080E7D80618F4F601B7BEE895C0E0D1E017
:107EE00062D089930C17E1F7F0E0CF16F0E7DF06D8
:107EF00018F0F601B7BEE89568D007B600FCFDCFD4
:107F0000A601A0E0B1E02C9130E011968C91119780
:107F100090E0982F8827822B932B1296FA010C0160
:107F200087BEE89511244E5F5F4FF1E0A038BF0790
:107F300051F7F601A7BEE89507B600FCFDCF97BE46
:107F4000E89526C08437B1F42ED02DD0F82E2BD052
:107F50003CD0F601EF2C8F010F5F1F4F84911BD097
:107F6000EA94F801C1F70894C11CD11CFA94CF0C13
:107F7000D11C0EC0853739F428D08EE10CD085E9AC
:107F80000AD08FE07ACF813511F488E018D01DD067
:107F900080E101D065CF982F8091C00085FFFCCF94
:107FA0009093C60008958091C00087FFFCCF809118
:107FB000C00084FD01C0A8958091C6000895E0E648
:107FC000F0E098E1908380830895EDDF803219F02E
:107FD00088E0F5DFFFCF84E1DECF1F93182FE3DFCA
:107FE0001150E9F7F2DF1F91089580E0E8DFEE27F6
:047FF000FF270994CA
:027FFE00040479
:00000001FF
