:100000000C94E0000C9408010C9408010C94E20498
:100010000C94E2040C94E2040C9408010C94080182
:100020000C9408010C9408010C9408010C9408012C
:100030000C9408010C9408010C9408010C9408011C
:100040000C9498040C9408010C9466040C944004DD
:100050000C9408010C9408010C9408010C940801FC
:100060000C9408010C94080100407A10F35A00A087
:10007000724E18090010A5D4E80000E87648170071
:1000800000E40B54020000CA9A3B000000E1F505B1
:10009000000080969800000040420F000000A086FB
:1000A00001000000102700000000E803000000002D
:1000B0006400000000000A000000000001000000D1
:1000C00000002C76D888DC674F0823DFC1DFAE59EB
:1000D000E1B1B796E5E3E453C63AE651997696E87E
:1000E000E6C28426EB898C9B62ED407C6FFCEFBC02
:1000F0009C9F40F2BAA56FA5F490055A2AF75C932D
:100100006B6CF9676DC11BFCE0E40D47FEF520E662
:10011000B500D0ED902E0300943577050080841E45
:10012000080000204E0A000000C80C333333330FA0
:10013000986E12831141EF8D2114893BE65516CF3D
:10014000FEE6DB18D1844B381BF77C1D901DA4BB49
:10015000E424203284725E228100C9F124ECA1E5FE
:100160003D27000000080002010000030407000012
:10017000000000000000000000002300260029000D
:1001800000000000240027002A00000000002500D5
:1001900028002B00040404040404040402020202E4
:1001A000020203030303030301020408102040803A
:1001B000010204081020010204081020A6053209DB
:1001C00011241FBECFEFD8E0DEBFCDBF22E0AEE3EB
:1001D000B1E001C01D92A137B207E1F711E0A0E044
:1001E000B1E0E6E1FEE102C005900D92AE33B10749
:1001F000D9F710E0CFEDD0E004C02197FE010E94B6
:10020000060DCE3DD107C9F70E9494060C94FE0E50
:100210000C940000AF92BF92CF92DF92EF92FF92C8
:100220000F931F93CF93DF936C017B018B01040F1E
:10023000151FEB015E01AE18BF08C017D10759F0BA
:100240006991D601ED91FC910190F081E02DC601FC
:100250000995892B79F7C501DF91CF911F910F91F6
:10026000FF90EF90DF90CF90BF90AF900895FC018A
:10027000538D448D252F30E0842F90E0821B930B0B
:10028000541710F0CF96089501970895FC01918DB1
:10029000828D981761F0A28DAE0FBF2FB11D5D96B4
:1002A0008C91928D9F5F9F73928F90E008958FEF56
:1002B0009FEF0895EF92FF920F931F93CF93DF93D9
:1002C0007B018C01D0E0C0E02FB7F8948091A701AA
:1002D0009091A801A091A901B091AA012FBF80938C
:1002E000B3019093B401A093B501B093B6018BEA2A
:1002F00091E00E94460197FF2CC02FB7F89480919F
:10030000A7019091A801A091A901B091AA012FBFC6
:100310004091B3015091B4016091B5017091B60163
:10032000841B950BA60BB70B4091AF015091B00108
:100330006091B1017091B20184179507A607B707C4
:10034000B0F2CE01DF91CF911F910F91FF90EF900E
:100350000895F80181938F012196EC16FD0609F0AE
:10036000B3CFEFCFFC01918D828D981731F0828D44
:10037000E80FF11D858D90E008958FEF9FEF0895B0
:10038000FC01918D228D892F90E0805C9F4F821B14
:1003900091098F73992708958BEA91E00E94C0011B
:1003A00021E0892B09F420E0822F089580E090E07D
:1003B000892B29F00E94CC0181110C940000089532
:1003C000FC01A48DA80FB92FB11DA35ABF4F2C91CA
:1003D000848D90E001968F739927848FA689B789C1
:1003E0002C93A089B1898C91837080648C93938DB8
:1003F000848D981306C00288F389E02D80818F7D5B
:1004000080830895EF92FF920F931F93CF93DF9312
:10041000EC0181E0888F9B8D8C8D98131AC0E88940
:10042000F989808185FF15C09FB7F894EE89FF890F
:100430006083E889F98980818370806480839FBFAD
:1004400081E090E0DF91CF911F910F91FF90EF90AD
:100450000895F62E0B8D10E00F5F1F4F0F731127BD
:10046000E02E8C8D8E110CC00FB607FCFACFE889F8
:10047000F989808185FFF5CFCE010E94E001F1CF9F
:10048000EB8DEC0FFD2FF11DE35AFF4FF0829FB76C
:10049000F8940B8FEA89FB8980818062CFCFCF935C
:1004A000DF93EC01888D8823B9F0AA89BB89E8899C
:1004B000F9898C9185FD03C0808186FD0DC00FB642
:1004C00007FCF7CF8C9185FFF2CF808185FFEDCFC0
:1004D000CE010E94E001E9CFDF91CF9108952091F4
:1004E0008501309186012817390771F490918301B5
:1004F00080918401981741F0E0918301F0E0E25C83
:10050000FE4F808190E008958FEF9FEF089508954A
:10051000EF92FF920F931F93CF93DF93DC015C96D2
:10052000ED90FC905D97E114F10479F481E090E0A6
:1005300013969C938E93129790E080E0DF91CF9179
:100540001F910F91FF90EF9008955196ED91FC91BE
:10055000529750968C915097982F90950FB75E9622
:100560002C915E97122F127021FD6095F8942081D6
:10057000112319F1282B2083E7012197F1F728E0B7
:10058000462F50E0308160FF1AC0382B3083E701DE
:100590002197F1F7BA0175956795215089F71123D5
:1005A00081F08081892380830FBF5C968D919C911F
:1005B0000197F1F781E090E0C1CF2923DCCF392307
:1005C000E5CF9081892BEFCF209185013091860175
:1005D0002817390771F4809184012091830190E0FC
:1005E000805C9F4F821B910960E470E00E94DE0CEA
:1005F000089590E080E00895209185013091860172
:1006000028173907B9F490918301809184019817D4
:1006100089F0E0918301F0E0E25CFE4F808120915F
:10062000830130E02F5F3F4F2F73332720938301E7
:1006300090E008958FEF9FEF089590E080E0089597
:10064000FC0101900020E9F73197AF01481B590BDD
:10065000BC018EE492E00C940A010F931F93CF9398
:10066000DF93EC0188819981009759F02A813B81C1
:100670002617370730F081E0DF91CF911F910F915E
:1006800008958B016F5F7F4F0E94310E009759F0E4
:10069000998388831B830A832C813D81232B59F7FF
:1006A000FC011082E8CF80E0E7CFEF92FF920F933A
:1006B0001F93CF93DF936115710541F480E0DF91C3
:1006C000CF911F910F91FF90EF9008954115510523
:1006D000B1F07B01EC010C811D81040F151FB801E5
:1006E0000E942D03882351F3288139818C819D81BB
:1006F000B701820F931F0E94F70E1D830C8381E0C8
:10070000DECFCF93DF93EC0188819981009711F0C0
:100710000E94A80D198218821D821C821B821A82D7
:10072000DF91CF910895EF92FF920F931F93CF9394
:10073000DF93EC017B01198218821B821A821D82D1
:100740001C82FB0101900020E9F731978F01061B05
:10075000170BB8010E942D03811109C0CE01DF9152
:10076000CF911F910F91FF90EF900C9481031D8307
:100770000C83B70188819981DF91CF911F910F91EF
:10078000FF90EF900C94F70EEF92FF920F931F9350
:10079000CF93DF938C017B01EB0109900020E9F7F7
:1007A0002197C61BD70BBE010E942D03811109C0E2
:1007B000C801DF91CF911F910F91FF90EF900C94A2
:1007C0008103F801D583C483B70180819181DF91D2
:1007D000CF911F910F91FF90EF900C94F70EEF9235
:1007E000FF920F931F93CF93DF93CDB7DEB7A197FF
:1007F0000FB6F894DEBF0FBECDBF7C01CB01BA01AE
:10080000F7011182108213821282158214828E01E6
:100810000F5F1F4F22E044E00E945209009789F0C9
:10082000BC01C7010E94C403A1960FB6F894DEBFB5
:100830000FBECDBFDF91CF911F910F91FF90EF9031
:100840000895C7010E948103EFCFCF93DF93EC019E
:10085000FB0144815581608171810E9455038111A2
:1008600003C0CE010E948103CE01DF91CF91089594
:10087000FC0180819181009711F00C94A80D0895DE
:100880001F920F920FB60F9211242F933F934F9305
:100890005F936F937F938F939F93AF93BF93EF93E8
:1008A000FF938BEA91E00E94E001FF91EF91BF91ED
:1008B000AF919F918F917F916F915F914F913F91F8
:1008C0002F910F900FBE0F901F9018951F920F92AF
:1008D0000FB60F9211242F938F939F93EF93FF9353
:1008E000E091BB01F091BC018081E091C101F091E8
:1008F000C20182FD1BC090818091C4018F5F8F7304
:100900002091C501821741F0E091C401F0E0E55566
:10091000FE4F958F8093C401FF91EF919F918F912E
:100920002F910F900FBE0F901F9018958081F4CFDC
:100930001F920F920FB60F9211242F933F938F9314
:100940009F93AF93BF938091A7019091A801A0912D
:10095000A901B091AA013091820123E0230F2D3724
:1009600058F50196A11DB11D209382018093A70126
:100970009093A801A093A901B093AA0180917E0150
:1009800090917F01A0918001B09181010196A11DFC
:10099000B11D80937E0190937F01A0938001B0935D
:1009A0008101BF91AF919F918F913F912F910F90B6
:1009B0000FBE0F901F90189526E8230F0296A11DD9
:1009C000B11DD2CF1F920F920FB60F9211242F9309
:1009D0003F934F935F936F937F938F939F93AF93C7
:1009E000BF93EF93FF93E0918501F09186013097DB
:1009F00049F0A685B7858585968D91FF14C09C9199
:100A00008923A1F4FF91EF91BF91AF919F918F91B5
:100A10007F916F915F914F913F912F910F900FBEFA
:100A20000F901F9018959C91892361F7A389B48931
:100A30009C918589809589238C93868997890197D4
:100A4000F1F7608D718DA685B785558538E020E07A
:100A5000CB010197F1F7822F90E095958795282F8C
:100A60004C91452309F02068315091F7868D81FD26
:100A700020958091840190E001968F7399273091A1
:100A80008301381799F0A0918401B0E0A25CBE4FB9
:100A90002C9380938401828D938D0197F1F7A38924
:100AA000B4898C919589892B8C93ACCF868D81608C
:100AB000868FF1CF90E0FC01EE59FE4F2491FC01AE
:100AC000E855FE4F3491FC01EC56FE4FE491EE23C5
:100AD000C9F0222339F0233001F1A8F4213019F1B3
:100AE000223029F1F0E0EE0FFF1FE657FE4FA591EF
:100AF000B4918FB7F894EC91611126C030953E23E4
:100B00003C938FBF08952730A9F02830C9F02430D6
:100B100049F7809180008F7D03C0809180008F779E
:100B200080938000DFCF84B58F7784BDDBCF84B521
:100B30008F7DFBCF8091B0008F778093B000D2CFB4
:100B40008091B0008F7DF9CF3E2BDACF0F931F93AA
:100B5000CF93DF931092AE011092AD0188EE93E037
:100B6000A0E0B0E08093AF019093B001A093B101F9
:100B7000B093B2012AE031E03093AC012093AB0195
:100B800025EC30E03093B8012093B70124EC30E03D
:100B90003093BA012093B90120EC30E03093BC01CE
:100BA0002093BB0121EC30E03093BE012093BD01C6
:100BB00022EC30E03093C0012093BF0126EC30E0FE
:100BC0003093C2012093C1011092C4011092C5015B
:100BD0001092C6011092C701109251021092500259
:100BE0008093520290935302A0935402B093550203
:100BF0008CE191E090934F0280934E021092650237
:100C000010926402109267021092660210926902BA
:100C10001092680210926B0210926A0260916C024C
:100C20006E7F6D7F60936C026695617081E06827CE
:100C300083E00E945A054BEA51E0FA01649187E98A
:100C400091E0FC012491222399F030E0220F331F20
:100C5000F901E058FE4FA591B491F901E657FE4F16
:100C6000259134912FB7F8943C91632B6C932FBF4F
:100C7000FA01449140935E02FC018491E82FF0E078
:100C8000EE0FFF1FE657FE4F8591949190936002FF
:100C900080935F020AEA11E0F8012491C6E9D1E0ED
:100CA000FE0184918823C9F090E0880F991FFC0110
:100CB000E058FE4FA591B491FC01E657FE4F4591D7
:100CC00054913FB7F8949C91822F809598239C93E0
:100CD000FA019081892380833FBF80916C0281FD5E
:100CE00004C061E082E00E945A0582E080935A02CB
:100CF000F801049100935B02FE01C491EC2FF0E037
:100D0000EE0FFF1FEA58FE4F8591949190935D027C
:100D100080935C0269E371E088E492E0DF91CF9117
:100D20001F910F910C949303CF93DF93CDB7DEB750
:100D30002C970FB6F894DEBF0FBECDBF789484B564
:100D4000826084BD84B5816084BD85B5826085BDC7
:100D500085B5816085BD80916E00816080936E0055
:100D60001092810080918100826080938100809147
:100D700081008160809381008091800081608093F8
:100D800080008091B10084608093B1008091B000B8
:100D900081608093B00080917A00846080937A00B3
:100DA00080917A00826080937A0080917A008160DD
:100DB00080937A0080917A00806880937A00109204
:100DC000C100E091BB01F091BC0182E08083E09121
:100DD000B701F091B8011082E091B901F091BA0128
:100DE00080E180831092C301E091BF01F091C001C6
:100DF00086E08083E091BD01F091BE018081806139
:100E00008083E091BD01F091BE0180818860808384
:100E1000E091BD01F091BE01808180688083E09106
:100E2000BD01F091BE0180818F7D808310926902A7
:100E30001092680210926702109266021092650288
:100E4000109264028FE190E090936B0280936A02AB
:100E500090915A02963108F047C021E030E030937B
:100E60006502209364022DE130E030936702209305
:100E700066022DE030E030936902209368022091F1
:100E8000680084E0983048F031E09E3008F430E0AB
:100E900081E001C0880F3A95EAF7822B80936800C1
:100EA0002DE630E0983050F02BE630E09E3030F008
:100EB0002CE630E0963110F030E020E03093620212
:100EC00020936102292F30E0983008F09BC181E027
:100ED00001C0880F9A95EAF78093630280916A02B5
:100EE00090916B020197F1F78091680290916902ED
:100EF000892B49F1E0918501F091860182E0EE3481
:100F0000F80709F1309739F0A389B4899C91858954
:100F1000809589238C9380916C028E7F80936C02E4
:100F200010928401109283018EE492E090938601E6
:100F300080938501E0916102F0916202808190913D
:100F40006302892B808385E090E0A0E0B0E080938D
:100F5000AF019093B001A093B101B093B20180931F
:100F6000520290935302A0935402B09355028AE226
:100F700091E00E942003209A219A229A559A569A2B
:100F8000579A83EC90E0FC013197F1F72898299863
:100F90002A980197F1F783E391E00E94200387E309
:100FA00091E00E94200384E1C82ED12C0BE811E0CF
:100FB00090E0E92E90E0F92E8BEA91E00E94C001CA
:100FC000892B09F43CC18BEA91E00E944601809391
:100FD000A6019091A501903509F02BC1833009F04D
:100FE00028C18BEA91E00E94C001892BD1F38BEAE2
:100FF00091E00E944601069709F02DC168E070E07B
:101000008BE991E00E945A0169E371E088E492E083
:101010000E94C40360919B0170919C017627672711
:10102000762770939A016093990180919D01909128
:101030009E0198278927982790939801809397017C
:1010400080919F019091A0019827892798279093DC
:10105000960180939501072E000C880B990B0E9436
:10106000A90B2FE73AE046E353E40E946C0CAB0176
:10107000BC01CE0107960E94EF036AE371E0CE0146
:1010800001960E949303BE01695F7F4FCE010196D6
:101090000E942504FC01448155816081718188E4AE
:1010A00092E00E945503CE0101960E943804CE01C1
:1010B00007960E9438046091970170919801072E5D
:1010C000000C880B990B0E94A90B2FE73AE046E32E
:1010D00053E40E946C0CAB01BC01CE0107960E9448
:1010E000EF036AE371E0CE0101960E949303BE0113
:1010F000695F7F4FCE0101960E942504FC01448167
:1011000055816081718188E492E00E945503CE018F
:1011100001960E943804CE0107960E94380460911F
:10112000950170919601072E000C880B990B0E9477
:10113000A90B2FE73AE046E353E40E946C0CAB01A5
:10114000BC01CE0107960E94EF036AE371E0CE0175
:1011500001960E949303BE01695F7F4FCE01019605
:101160000E942504FC01448155816081718188E4DD
:1011700092E00E945503CE0101960E943804CE01F0
:1011800007960E9438045F9A40914C0250914D029C
:1011900060914802709149028EE492E00E940A0137
:1011A00087E391E00E9420035F982091990130919C
:1011B0009A018091930190919401281B390BC901E8
:1011C00037FF04C088279927821B930BB6010E9422
:1011D000DE0C709392016093910112161306FCF4D9
:1011E000299A809191019091920118161906CCF4D8
:1011F000289AF8013197F1F72898F8013197F1F71B
:101200000197F3CF9E3040F42850310981E001C0AE
:10121000880F2A95EAF760CE2E503109F7CF29982A
:10122000E0CF8091990190919A01909394018093DD
:1012300093018091A6018093A5015E985F98E114C7
:10124000F10409F4B9CE0E94CC01882309F4B4CE8C
:101250000E940000B1CE65E070E087E891E00E9456
:101260005A01E7CF88E492E00E9438048CE191E0D3
:1012700090934F0280934E02809185019091860158
:101280008E54924071F4E0916102F091620290817B
:101290008091630280958923808310928601109249
:1012A00085010895EF920F931F93CF93DF93E80189
:1012B00034E047FD34E1042E000C550B57FF03C00A
:1012C000519541955109E32E022F242FAE010E9422
:1012D0007009CE01DF91CF911F910F91EF9008958A
:1012E000A9E0B0E0E6E7F9E00C943B0C6A01F22ECD
:1012F000B02E102FFBE3AF2EA01608F41BE31F5FE8
:10130000012F27E0AE014F5F5F4F0E94CF0ABC0163
:101310008981982F9970913009F43FC09BE2E1FCDC
:1013200004C09E2D9170E0FC3AC05E2D5071E82FF4
:10133000E87083FF46C084E0911101C083E0EF2D87
:10134000E81B8F1508F0E0E0D6018E2F20E2552330
:1013500051F1992329F0D6019C93C60101966C01A5
:1013600096012D5F3F4FE2FE24C08EE4D6018C93A0
:1013700091E411969C93119712968C93D9018E2F1C
:1013800090E281111BC0E20FF32FF11D10828EEF4E
:101390009FEF2996ECE00C94570C9DE2C6CF90E2AB
:1013A000C4CF2D9381508111FCCFCE0ED11CE0E033
:1013B000D0CF8EE6D6018C9391E6DBCF9D93815002
:1013C000E0CF482F447082FF3DC084E0911101C0FE
:1013D00083E08F1510F4EF2DE81BD6018E2F20E24D
:1013E000552309F1992329F0D6019C93C601019652
:1013F0006C0196012D5F3F4FE2FE1BC089E4D601D0
:101400008C938EE411968C93119786E412968C93AC
:10141000D9018E2F90E2882309F4B5CF9D93815096
:10142000FACF2D9381508111FCCFCE0ED11CE0E07C
:10143000D9CF89E6D6018C938EE611968C931197BD
:1014400086E6E4CF9B0177FF02C030E020E0A1E018
:10145000B0E0911102C0B0E0A0E0F9013196AE0F0A
:10146000BF1F8B2C912CBB2009F461C05401EFEFFE
:10147000AE1ABE0AAA0DBB1DFA161B0619F014F00F
:101480004F2D4A1B511188C0E3FC59C07601A42F8F
:10149000B0E2A1114FC0C40ED11C992309F45BC066
:1014A00040E0D6011196F60190836D01552309F4B1
:1014B00048C0012F060F9A81582F507184FF03C036
:1014C000913309F4015010160CF047C0093008F0B0
:1014D00008E0EEE2FE2E5B01A01AB10885019194AE
:1014E000819491082F3F320729F4D601FC92F6012E
:1014F00031966F016217730794F1021713077CF599
:10150000DB01A21BB30BAA24A394B12CAC0EBD1E0D
:10151000AA0DBB1D11968C9121503109D60111964F
:1015200028153905F4F0F60180836D01DBCFB12C6D
:10153000A12CA0CFF701B1937F01A150AACF9111A7
:10154000B0CFD601942F50E302C05D93915091111A
:10155000FCCFC40ED11C40E0ACCF01E0BACF80E399
:10156000DBCF6217730731F4963388F4953311F4A7
:10157000552369F0F6018083FD01842F90E28111EB
:1015800008C0A40FB11D1C9290E080E002CF81E35F
:10159000F1CF91938150F3CF911183CF8ACF28302F
:1015A00008F027E03327DA01990F311D87FD91609C
:1015B00000966105710539F432602E5F3D9330E38A
:1015C0002A95E1F708959F3F30F080387105610555
:1015D00009F03C5F3C5F3D93913008F08068911DBD
:1015E000DF93CF931F930F93FF92EF92192F987F62
:1015F0009695E92F96959695E90FFF27EE53FF4FA5
:1016000099273327EE24FF24A701E70105900894CA
:10161000079428F4360FE71EF81E491F511D660F68
:10162000771F881F991F0694A1F70590079428F447
:10163000E70EF81E491F561FC11D770F881F991FFF
:10164000661F0694A1F70590079428F4F80E491F29
:10165000561FC71FD11D880F991F661F771F06943D
:10166000A1F70590079420F4490F561FC71FD81FF4
:10167000990F661F771F881F0694A9F7849110950C
:10168000177041F0D695C79557954795F794E7940D
:101690001A95C1F7E8E6F0E0689415901591359138
:1016A0006591959105907FE27395E118F10A430BDE
:1016B000560BC90BD009C0F7E10CF11E431F561F92
:1016C000C91FD01D7EF4703311F48A95E6CFE894DB
:1016D000015030F0080F0AF40027021708F4202FF9
:1016E0002395022F7A3328F079E37D932A95E9F741
:1016F00010C07D932A9589F606949795679537953E
:1017000017951794E118F10A430B560BC90BD00932
:1017100098F023957E9173957A3308F070E37C936B
:101720002013B8F77E9170617D9330F0839571E35B
:101730007D9370E32A95E1F71124EF90FF900F91CC
:101740001F91CF91DF91992787FD90950895E89497
:1017500009C097FB3EF490958095709561957F4FF9
:101760008F4F9F4F9923A9F0F92F96E9BB279395A7
:10177000F695879577956795B795F111F8CFFAF4B7
:10178000BB0F11F460FF1BC06F5F7F4F8F4F9F4FE8
:1017900016C0882311F096E911C0772321F09EE846
:1017A000872F762F05C0662371F096E8862F70E0AC
:1017B00060E02AF09A95660F771F881FDAF7880F86
:1017C0009695879597F9089597F99F6780E870E057
:1017D00060E008959FEF80EC089500240A941616A7
:1017E000170618060906089500240A94121613060F
:1017F000140605060895092E0394000C11F488239D
:1018000052F0BB0F40F4BF2B11F460FF04C06F5FB8
:101810007F4F8F4F9F4F089557FD9058440F551F8E
:1018200059F05F3F71F04795880F97FB991F61F062
:101830009F3F79F087950895121613061406551FD9
:10184000F2CF4695F1DF08C0161617061806991F45
:10185000F1CF86957105610508940895E894BB273A
:1018600066277727CB0197F908952F923F924F92E1
:101870005F926F927F928F929F92AF92BF92CF9220
:10188000DF92EF92FF920F931F93CF93DF93CDB729
:10189000DEB7CA1BDB0B0FB6F894DEBF0FBECDBFA1
:1018A00009942A88398848885F846E847D848C8472
:1018B0009B84AA84B984C884DF80EE80FD800C817B
:1018C0001B81AA81B981CE0FD11D0FB6F894DEBF5E
:1018D0000FBECDBFED0108950E94800C0C94FB0B50
:1018E0000E94F40B58F00E94ED0B40F029F45F3F8A
:1018F00029F00C94E40B51110C942F0C0C94EA0B6E
:101900000E940C0C68F39923B1F3552391F3951BB6
:10191000550BBB27AA2762177307840738F09F5F10
:101920005F4F220F331F441FAA1FA9F335D00E2E7D
:101930003AF0E0E832D091505040E695001CCAF7EA
:101940002BD0FE2F29D0660F771F881FBB1F2617AD
:1019500037074807AB07B0E809F0BB0B802DBF0184
:10196000FF2793585F4F3AF09E3F510578F00C9453
:10197000E40B0C942F0C5F3FE4F3983ED4F3869570
:1019800077956795B795F7959F5FC9F7880F911D74
:101990009695879597F90895E1E0660F771F881F60
:1019A000BB1F621773078407BA0720F0621B730B13
:1019B000840BBA0BEE1F88F7E095089597FB072E6E
:1019C00016F4009407D077FD09D00E94F20C07FCB2
:1019D00005D03EF4909581959F4F0895709561953F
:1019E0007F4F0895AA1BBB1B51E107C0AA1FBB1F55
:1019F000A617B70710F0A61BB70B881F991F5A959B
:101A0000A9F780959095BC01CD010895EE0FFF1FB9
:101A10000590F491E02D09940F931F93CF93DF93DA
:101A20008230910510F482E090E0E0916F02F09135
:101A3000700230E020E0B0E0A0E0309799F421158A
:101A4000310509F44AC0281B390B24303105D8F57B
:101A50008A819B816115710589F1FB0193838283E2
:101A6000FE0111C04081518102811381481759073D
:101A7000E0F04817590799F4109761F012960C930B
:101A8000129713961C933296CF01DF91CF911F913D
:101A90000F91089500936F0210937002F4CF2115F7
:101AA000310551F04217530738F0A901DB019A01C3
:101AB000BD01DF01F801C1CFEF01F9CF90937002B2
:101AC00080936F02CDCFFE01E20FF31F81939193BC
:101AD0002250310939832883D7CF20916D0230916C
:101AE0006E02232B41F420910201309103013093C7
:101AF0006E0220936D0220910001309101012115A9
:101B0000310541F42DB73EB74091040150910501D4
:101B1000241B350BE0916D02F0916E02E217F30782
:101B2000A0F42E1B3F0B2817390778F0AC014E5F4D
:101B30005F4F2417350748F04E0F5F1F50936E021A
:101B400040936D02819391939FCFF0E0E0E09CCFB2
:101B5000CF93DF930097E9F0FC0132971382128252
:101B6000A0916F02B0917002ED0130E020E010977B
:101B7000A1F420813181820F931F20916D02309159
:101B80006E022817390709F061C0F0936E02E093E6
:101B90006D02DF91CF910895EA01CE17DF07E8F5D6
:101BA0004A815B819E0141155105B1F7E901FB8333
:101BB000EA8349915991C40FD51FEC17FD0761F4D1
:101BC000808191810296840F951FE9019983888312
:101BD000828193819B838A83F0E0E0E012968D916D
:101BE0009C9113970097B9F52D913C911197CD01D8
:101BF0000296820F931F20916D0230916E0228177A
:101C0000390739F6309751F51092700210926F0231
:101C1000B0936E02A0936D02BCCFD383C283408188
:101C20005181840F951FC817D90761F44E5F5F4F2C
:101C300088819981480F591F518340838A819B81F4
:101C4000938382832115310509F0B0CFF0937002A0
:101C5000E0936F029ECFFD01DC01C0CF13821282A0
:101C6000D7CFB0E0A0E0E7E3FEE00C94370C8C01A6
:101C7000009751F4CB010E940C0D8C01C801CDB727
:101C8000DEB7E0E10C94530CFC01E60FF71F9C015A
:101C900022503109E217F30708F49DC0D901CD9114
:101CA000DC911197C617D70798F0C530D10530F3EE
:101CB000CE0104978617970708F3C61BD70B229708
:101CC000C193D1936D937C93CF010E94A80DD6CF81
:101CD0005B01AC1ABD0A4C018C0E9D1EA0916F02D7
:101CE000B0917002512C412CF12CE12C109731F560
:101CF00080916D0290916E028815990509F05CC083
:101D00004616570608F058C08091000190910101D5
:101D1000009741F48DB79EB74091040150910501A1
:101D2000841B950BE817F90708F055C0F0936E0275
:101D3000E0936D02F90171836083A0CF8D919C9136
:101D4000119712966C90129713967C901397A81582
:101D5000B90559F56C0142E0C40ED11CCA14DB046C
:101D600020F1AC014A195B09DA011296159780F04F
:101D70006282738251834083D9016D937C93E11415
:101D8000F10471F0D7011396FC93EE93129776CF7E
:101D900022968C0F9D1FF90191838083F301EFCF71
:101DA000F0937002E0936F0269CF4816590608F469
:101DB0002C017D01D3019ACFCB010E940C0D7C0137
:101DC000009749F0AE01B8010E94EE0EC8010E94D2
:101DD000A80D870153CF10E000E050CFFB01DC01DC
:101DE00002C001900D9241505040D8F70895FB0178
:101DF000DC0101900D920020E1F7089510E0CFED95
:101E0000D0E004C0FE010E94060D2196C03ED1071D
:061E1000C9F7F894FFCFB2
:101E16000000710280000000000002020A01370182
:101E26004F02C0014601B2010000000088020A010B
:101E36001D038702E402FC026F020A626F6F742EB2
:0E1E46002E2E00094F4B000D0A00207C2000BC
:00000001FF
